{
  "contractName": "Greetings",
  "abi": [
    {
      "anonymous": false,
      "inputs": [
        {
          "indexed": true,
          "internalType": "address",
          "name": "previousOwner",
          "type": "address"
        },
        {
          "indexed": true,
          "internalType": "address",
          "name": "newOwner",
          "type": "address"
        }
      ],
      "name": "OwnershipTransferred",
      "type": "event"
    },
    {
      "inputs": [
        {
          "internalType": "string",
          "name": "",
          "type": "string"
        }
      ],
      "name": "contractABIMap",
      "outputs": [
        {
          "internalType": "string",
          "name": "",
          "type": "string"
        }
      ],
      "stateMutability": "view",
      "type": "function"
    },
    {
      "inputs": [],
      "name": "crossChainContract",
      "outputs": [
        {
          "internalType": "contract ICrossChain",
          "name": "",
          "type": "address"
        }
      ],
      "stateMutability": "view",
      "type": "function"
    },
    {
      "inputs": [
        {
          "internalType": "string",
          "name": "",
          "type": "string"
        }
      ],
      "name": "destnContractMap",
      "outputs": [
        {
          "internalType": "string",
          "name": "contractAddress",
          "type": "string"
        },
        {
          "internalType": "string",
          "name": "actionName",
          "type": "string"
        },
        {
          "internalType": "bool",
          "name": "used",
          "type": "bool"
        }
      ],
      "stateMutability": "view",
      "type": "function"
    },
    {
      "inputs": [],
      "name": "getContext",
      "outputs": [
        {
          "components": [
            {
              "internalType": "uint256",
              "name": "id",
              "type": "uint256"
            },
            {
              "internalType": "string",
              "name": "fromChain",
              "type": "string"
            },
            {
              "internalType": "string",
              "name": "sender",
              "type": "string"
            },
            {
              "internalType": "string",
              "name": "signer",
              "type": "string"
            },
            {
              "components": [
                {
                  "internalType": "uint8",
                  "name": "reveal",
                  "type": "uint8"
                }
              ],
              "internalType": "struct SQOS",
              "name": "sqos",
              "type": "tuple"
            },
            {
              "internalType": "address",
              "name": "contractAddress",
              "type": "address"
            },
            {
              "internalType": "string",
              "name": "action",
              "type": "string"
            }
          ],
          "internalType": "struct SimplifiedMessage",
          "name": "",
          "type": "tuple"
        }
      ],
      "stateMutability": "view",
      "type": "function"
    },
    {
      "inputs": [
        {
          "internalType": "string",
          "name": "_funcName",
          "type": "string"
        }
      ],
      "name": "getContractABI",
      "outputs": [
        {
          "internalType": "string",
          "name": "",
          "type": "string"
        }
      ],
      "stateMutability": "view",
      "type": "function"
    },
    {
      "inputs": [
        {
          "internalType": "string",
          "name": "_funcName",
          "type": "string"
        }
      ],
      "name": "getMessageABI",
      "outputs": [
        {
          "components": [
            {
              "internalType": "string",
              "name": "parametertypes",
              "type": "string"
            },
            {
              "internalType": "string",
              "name": "parameterNames",
              "type": "string"
            }
          ],
          "internalType": "struct ContractBase.MessageABI",
          "name": "",
          "type": "tuple"
        }
      ],
      "stateMutability": "view",
      "type": "function"
    },
    {
      "inputs": [
        {
          "internalType": "uint256",
          "name": "",
          "type": "uint256"
        }
      ],
      "name": "greetings",
      "outputs": [
        {
          "internalType": "string",
          "name": "fromChain",
          "type": "string"
        },
        {
          "internalType": "string",
          "name": "title",
          "type": "string"
        },
        {
          "internalType": "string",
          "name": "content",
          "type": "string"
        },
        {
          "internalType": "string",
          "name": "date",
          "type": "string"
        }
      ],
      "stateMutability": "view",
      "type": "function"
    },
    {
      "inputs": [
        {
          "internalType": "string",
          "name": "",
          "type": "string"
        }
      ],
      "name": "messageABIMap",
      "outputs": [
        {
          "internalType": "string",
          "name": "parametertypes",
          "type": "string"
        },
        {
          "internalType": "string",
          "name": "parameterNames",
          "type": "string"
        }
      ],
      "stateMutability": "view",
      "type": "function"
    },
    {
      "inputs": [],
      "name": "owner",
      "outputs": [
        {
          "internalType": "address",
          "name": "",
          "type": "address"
        }
      ],
      "stateMutability": "view",
      "type": "function"
    },
    {
      "inputs": [
        {
          "internalType": "string",
          "name": "",
          "type": "string"
        },
        {
          "internalType": "string",
          "name": "",
          "type": "string"
        }
      ],
      "name": "permittedContractMap",
      "outputs": [
        {
          "internalType": "string",
          "name": "",
          "type": "string"
        }
      ],
      "stateMutability": "view",
      "type": "function"
    },
    {
      "inputs": [
        {
          "internalType": "string",
          "name": "_funcName",
          "type": "string"
        },
        {
          "internalType": "string",
          "name": "_interface",
          "type": "string"
        }
      ],
      "name": "registerContractABI",
      "outputs": [],
      "stateMutability": "nonpayable",
      "type": "function"
    },
    {
      "inputs": [
        {
          "internalType": "string",
          "name": "_funcName",
          "type": "string"
        },
        {
          "internalType": "string",
          "name": "_paramType",
          "type": "string"
        },
        {
          "internalType": "string",
          "name": "_paramName",
          "type": "string"
        }
      ],
      "name": "registerMessageABI",
      "outputs": [],
      "stateMutability": "nonpayable",
      "type": "function"
    },
    {
      "inputs": [],
      "name": "renounceOwnership",
      "outputs": [],
      "stateMutability": "nonpayable",
      "type": "function"
    },
    {
      "inputs": [
        {
          "internalType": "address",
          "name": "_address",
          "type": "address"
        }
      ],
      "name": "setCrossChainContract",
      "outputs": [],
      "stateMutability": "nonpayable",
      "type": "function"
    },
    {
      "inputs": [
        {
          "internalType": "address",
          "name": "newOwner",
          "type": "address"
        }
      ],
      "name": "transferOwnership",
      "outputs": [],
      "stateMutability": "nonpayable",
      "type": "function"
    },
    {
      "inputs": [
        {
          "internalType": "string",
          "name": "_fromChain",
          "type": "string"
        },
        {
          "internalType": "string",
          "name": "_title",
          "type": "string"
        },
        {
          "internalType": "string",
          "name": "_content",
          "type": "string"
        },
        {
          "internalType": "string",
          "name": "_date",
          "type": "string"
        }
      ],
      "name": "receiveGreeting",
      "outputs": [],
      "stateMutability": "nonpayable",
      "type": "function"
    },
    {
      "inputs": [
        {
          "internalType": "string",
          "name": "_toChain",
          "type": "string"
        },
        {
          "internalType": "string",
          "name": "_title",
          "type": "string"
        },
        {
          "internalType": "string",
          "name": "_content",
          "type": "string"
        },
        {
          "internalType": "string",
          "name": "_date",
          "type": "string"
        }
      ],
      "name": "sendGreeting",
      "outputs": [],
      "stateMutability": "nonpayable",
      "type": "function"
    },
    {
      "inputs": [
        {
          "internalType": "string",
          "name": "_toChain",
          "type": "string"
        },
        {
          "internalType": "string",
          "name": "_contractAddress",
          "type": "string"
        },
        {
          "internalType": "string",
          "name": "_funcName",
          "type": "string"
        }
      ],
      "name": "registerDestnContract",
      "outputs": [],
      "stateMutability": "nonpayable",
      "type": "function"
    },
    {
      "inputs": [
        {
          "internalType": "string",
          "name": "_chainName",
          "type": "string"
        },
        {
          "internalType": "string",
          "name": "_sender",
          "type": "string"
        },
        {
          "internalType": "string",
          "name": "_actionName",
          "type": "string"
        }
      ],
      "name": "registerPermittedContract",
      "outputs": [],
      "stateMutability": "nonpayable",
      "type": "function"
    },
    {
      "inputs": [
        {
          "internalType": "string",
          "name": "_chainName",
          "type": "string"
        },
        {
          "internalType": "string",
          "name": "_actionName",
          "type": "string"
        },
        {
          "internalType": "string",
          "name": "_sender",
          "type": "string"
        }
      ],
      "name": "verify",
      "outputs": [
        {
          "internalType": "bool",
          "name": "",
          "type": "bool"
        }
      ],
      "stateMutability": "view",
      "type": "function"
    }
  ],
  "bytecode": "0x608060405234801561001057600080fd5b5061001a3361001f565b61006f565b600080546001600160a01b038381166001600160a01b0319831681178455604051919092169283917f8be0079c531659141344cd1fd0a4f28419497f9722a3daafe3b4186f6b6457e09190a35050565b611f4f8061007e6000396000f3fe608060405234801561001057600080fd5b506004361061012c5760003560e01c80638da5cb5b116100ad578063d0ed6b7f11610071578063d0ed6b7f14610299578063dbc90de1146102ac578063f2fde38b146102bf578063f87c9ea9146102d2578063ff96254b146102f557600080fd5b80638da5cb5b1461020b57806397f5765314610230578063a2dbf4ae14610252578063bb45acd914610265578063c0c6dae61461027857600080fd5b806366e1f820116100f457806366e1f820146101b7578063715018a6146101ca578063791fd40d146101d257806379f6793c146101e5578063880b45aa146101f857600080fd5b8063127f0f0714610131578063177cd5261461014f57806318d72b541461016f5780631dea9205146101845780635fe78c6c14610197575b600080fd5b610139610318565b60405161014691906114f2565b60405180910390f35b61016261015d3660046115ee565b6103a0565b6040516101469190611630565b61018261017d36600461167e565b61050b565b005b6101826101923660046116a2565b610560565b6101aa6101a5366004611854565b610748565b6040516101469190611891565b6101826101c53660046118a4565b6107ed565b61018261084c565b6101826101e03660046116a2565b610882565b6101826101f3366004611910565b6109a8565b610182610206366004611910565b610a2d565b6000546001600160a01b03165b6040516001600160a01b039091168152602001610146565b61024361023e366004611854565b610aad565b604051610146939291906119aa565b610182610260366004611910565b610bed565b6101aa6102733660046119e2565b610cf7565b61028b610286366004611854565b610d38565b604051610146929190611a46565b6101aa6102a73660046115ee565b610e6f565b600354610218906001600160a01b031681565b6101826102cd36600461167e565b610f22565b6102e56102e0366004611a6b565b610fbd565b6040516101469493929190611a84565b610308610303366004611910565b61121d565b6040519015158152602001610146565b610320611335565b600360009054906101000a90046001600160a01b03166001600160a01b0316639af7a48c6040518163ffffffff1660e01b8152600401600060405180830381865afa158015610373573d6000803e3d6000fd5b505050506040513d6000823e601f3d908101601f1916820160405261039b9190810190611b87565b905090565b6040805180820190915260608082526020820152600183836040516103c6929190611c8d565b90815260200160405180910390206040518060400160405290816000820180546103ef90611c9d565b80601f016020809104026020016040519081016040528092919081815260200182805461041b90611c9d565b80156104685780601f1061043d57610100808354040283529160200191610468565b820191906000526020600020905b81548152906001019060200180831161044b57829003601f168201915b5050505050815260200160018201805461048190611c9d565b80601f01602080910402602001604051908101604052809291908181526020018280546104ad90611c9d565b80156104fa5780601f106104cf576101008083540402835291602001916104fa565b820191906000526020600020905b8154815290600101906020018083116104dd57829003601f168201915b505050505081525050905092915050565b6000546001600160a01b0316331461053e5760405162461bcd60e51b815260040161053590611cd8565b60405180910390fd5b600380546001600160a01b0319166001600160a01b0392909216919091179055565b6003546001600160a01b031633146105ba5760405162461bcd60e51b815260206004820181905260248201527f4c6f636b65723a2063616c6c6572206973206e6f742043726f7373436861696e6044820152606401610535565b60006105c4610318565b905080608001516000015160ff166001146106115760405162461bcd60e51b815260206004820152600d60248201526c53516f5320696e76616c69642160981b6044820152606401610535565b6000600582602001516040516106279190611d0d565b90815260200160405180910390209050816040015180519060200120818360c001516040516106569190611d0d565b90815260405190819003602001812061066e91611d29565b6040518091039020146106cd5760405162461bcd60e51b815260206004820152602160248201527f6d6573736167652073656e646572206973206e6f7420726567697374657265646044820152602160f81b6064820152608401610535565b600680546001810182556000919091526004027ff652222313e28459528d920b65115c16c04f3efc82aaedc97be59f3f377c0d3f0161070d818c8c611389565b5061071c600182018a8a611389565b5061072b600282018888611389565b5061073a600382018686611389565b505050505050505050505050565b80516020818301810180516002825292820191909301209152805461076c90611c9d565b80601f016020809104026020016040519081016040528092919081815260200182805461079890611c9d565b80156107e55780601f106107ba576101008083540402835291602001916107e5565b820191906000526020600020905b8154815290600101906020018083116107c857829003601f168201915b505050505081565b6000546001600160a01b031633146108175760405162461bcd60e51b815260040161053590611cd8565b81816002868660405161082b929190611c8d565b908152604051908190036020019020610845929091611389565b5050505050565b6000546001600160a01b031633146108765760405162461bcd60e51b815260040161053590611cd8565b61088060006112e5565b565b600060048989604051610896929190611c8d565b908152604051908190036020019020600281015490915060ff166108f45760405162461bcd60e51b81526020600482015260156024820152741858dd1a5bdb881b9bdd081c9959da5cdd195c9959605a1b6044820152606401610535565b600087878787878760405160200161091196959493929190611dc4565b60408051601f198184030181526020830182526001808452600354925163489bc69560e11b81529194506001600160a01b03909216916391378d2a91610969918f918f91899190820190329089908b90600401611ea4565b600060405180830381600087803b15801561098357600080fd5b505af1158015610997573d6000803e3d6000fd5b505050505050505050505050505050565b6000546001600160a01b031633146109d25760405162461bcd60e51b815260040161053590611cd8565b6000600587876040516109e6929190611c8d565b908152602001604051809103902090508484828585604051610a09929190611c8d565b908152604051908190036020019020610a23929091611389565b5050505050505050565b6000546001600160a01b03163314610a575760405162461bcd60e51b815260040161053590611cd8565b600060048787604051610a6b929190611c8d565b9081526040519081900360200190209050610a87818686611389565b50610a96600182018484611389565b50600201805460ff19166001179055505050505050565b8051602081830181018051600482529282019190930120915280548190610ad390611c9d565b80601f0160208091040260200160405190810160405280929190818152602001828054610aff90611c9d565b8015610b4c5780601f10610b2157610100808354040283529160200191610b4c565b820191906000526020600020905b815481529060010190602001808311610b2f57829003601f168201915b505050505090806001018054610b6190611c9d565b80601f0160208091040260200160405190810160405280929190818152602001828054610b8d90611c9d565b8015610bda5780601f10610baf57610100808354040283529160200191610bda565b820191906000526020600020905b815481529060010190602001808311610bbd57829003601f168201915b5050506002909301549192505060ff1683565b6000546001600160a01b03163314610c175760405162461bcd60e51b815260040161053590611cd8565b6040805160606020601f8701819004028201810183529181018581526000928291908890889081908501838280828437600092019190915250505090825250604080516020601f87018190048102820181019092528581529181019190869086908190840183828082843760009201919091525050509152506040519091508190600190610ca8908a908a90611c8d565b90815260200160405180910390206000820151816000019080519060200190610cd292919061140d565b506020828101518051610ceb926001850192019061140d565b50505050505050505050565b815160208184018101805160058252928201948201949094209190935281518083018401805192815290840192909301919091209152805461076c90611c9d565b8051602081830181018051600182529282019190930120915280548190610d5e90611c9d565b80601f0160208091040260200160405190810160405280929190818152602001828054610d8a90611c9d565b8015610dd75780601f10610dac57610100808354040283529160200191610dd7565b820191906000526020600020905b815481529060010190602001808311610dba57829003601f168201915b505050505090806001018054610dec90611c9d565b80601f0160208091040260200160405190810160405280929190818152602001828054610e1890611c9d565b8015610e655780601f10610e3a57610100808354040283529160200191610e65565b820191906000526020600020905b815481529060010190602001808311610e4857829003601f168201915b5050505050905082565b606060028383604051610e83929190611c8d565b90815260200160405180910390208054610e9c90611c9d565b80601f0160208091040260200160405190810160405280929190818152602001828054610ec890611c9d565b8015610f155780601f10610eea57610100808354040283529160200191610f15565b820191906000526020600020905b815481529060010190602001808311610ef857829003601f168201915b5050505050905092915050565b6000546001600160a01b03163314610f4c5760405162461bcd60e51b815260040161053590611cd8565b6001600160a01b038116610fb15760405162461bcd60e51b815260206004820152602660248201527f4f776e61626c653a206e6577206f776e657220697320746865207a65726f206160448201526564647265737360d01b6064820152608401610535565b610fba816112e5565b50565b60068181548110610fcd57600080fd5b9060005260206000209060040201600091509050806000018054610ff090611c9d565b80601f016020809104026020016040519081016040528092919081815260200182805461101c90611c9d565b80156110695780601f1061103e57610100808354040283529160200191611069565b820191906000526020600020905b81548152906001019060200180831161104c57829003601f168201915b50505050509080600101805461107e90611c9d565b80601f01602080910402602001604051908101604052809291908181526020018280546110aa90611c9d565b80156110f75780601f106110cc576101008083540402835291602001916110f7565b820191906000526020600020905b8154815290600101906020018083116110da57829003601f168201915b50505050509080600201805461110c90611c9d565b80601f016020809104026020016040519081016040528092919081815260200182805461113890611c9d565b80156111855780601f1061115a57610100808354040283529160200191611185565b820191906000526020600020905b81548152906001019060200180831161116857829003601f168201915b50505050509080600301805461119a90611c9d565b80601f01602080910402602001604051908101604052809291908181526020018280546111c690611c9d565b80156112135780601f106111e857610100808354040283529160200191611213565b820191906000526020600020905b8154815290600101906020018083116111f657829003601f168201915b5050505050905084565b60008060058888604051611232929190611c8d565b908152602001604051809103902090506000818787604051611255929190611c8d565b90815260405190819003602001812091506112739086908690611c8d565b6040518091039020816040516112899190611d29565b6040518091039020146112d65760405162461bcd60e51b81526020600482015260156024820152740a6cadcc8cae440c8decae640dcdee840dac2e8c6d605b1b6044820152606401610535565b50600198975050505050505050565b600080546001600160a01b038381166001600160a01b0319831681178455604051919092169283917f8be0079c531659141344cd1fd0a4f28419497f9722a3daafe3b4186f6b6457e09190a35050565b6040518060e00160405280600081526020016060815260200160608152602001606081526020016113756040518060200160405280600060ff1681525090565b815260006020820152606060409091015290565b82805461139590611c9d565b90600052602060002090601f0160209004810192826113b757600085556113fd565b82601f106113d05782800160ff198235161785556113fd565b828001600101855582156113fd579182015b828111156113fd5782358255916020019190600101906113e2565b50611409929150611481565b5090565b82805461141990611c9d565b90600052602060002090601f01602090048101928261143b57600085556113fd565b82601f1061145457805160ff19168380011785556113fd565b828001600101855582156113fd579182015b828111156113fd578251825591602001919060010190611466565b5b808211156114095760008155600101611482565b60005b838110156114b1578181015183820152602001611499565b838111156114c0576000848401525b50505050565b600081518084526114de816020860160208601611496565b601f01601f19169290920160200192915050565b60208152815160208201526000602083015160e060408401526115196101008401826114c6565b90506040840151601f198085840301606086015261153783836114c6565b9250606086015191508085840301608086015261155483836114c6565b925060ff6080870151511660a086015260a0860151915061158060c08601836001600160a01b03169052565b60c08601519150808584030160e08601525061159c82826114c6565b95945050505050565b60008083601f8401126115b757600080fd5b50813567ffffffffffffffff8111156115cf57600080fd5b6020830191508360208285010111156115e757600080fd5b9250929050565b6000806020838503121561160157600080fd5b823567ffffffffffffffff81111561161857600080fd5b611624858286016115a5565b90969095509350505050565b60208152600082516040602084015261164c60608401826114c6565b90506020840151601f1984830301604085015261159c82826114c6565b6001600160a01b0381168114610fba57600080fd5b60006020828403121561169057600080fd5b813561169b81611669565b9392505050565b6000806000806000806000806080898b0312156116be57600080fd5b883567ffffffffffffffff808211156116d657600080fd5b6116e28c838d016115a5565b909a50985060208b01359150808211156116fb57600080fd5b6117078c838d016115a5565b909850965060408b013591508082111561172057600080fd5b61172c8c838d016115a5565b909650945060608b013591508082111561174557600080fd5b506117528b828c016115a5565b999c989b5096995094979396929594505050565b634e487b7160e01b600052604160045260246000fd5b60405160e0810167ffffffffffffffff8111828210171561179f5761179f611766565b60405290565b604051601f8201601f1916810167ffffffffffffffff811182821017156117ce576117ce611766565b604052919050565b600067ffffffffffffffff8211156117f0576117f0611766565b50601f01601f191660200190565b600082601f83011261180f57600080fd5b813561182261181d826117d6565b6117a5565b81815284602083860101111561183757600080fd5b816020850160208301376000918101602001919091529392505050565b60006020828403121561186657600080fd5b813567ffffffffffffffff81111561187d57600080fd5b611889848285016117fe565b949350505050565b60208152600061169b60208301846114c6565b600080600080604085870312156118ba57600080fd5b843567ffffffffffffffff808211156118d257600080fd5b6118de888389016115a5565b909650945060208701359150808211156118f757600080fd5b50611904878288016115a5565b95989497509550505050565b6000806000806000806060878903121561192957600080fd5b863567ffffffffffffffff8082111561194157600080fd5b61194d8a838b016115a5565b9098509650602089013591508082111561196657600080fd5b6119728a838b016115a5565b9096509450604089013591508082111561198b57600080fd5b5061199889828a016115a5565b979a9699509497509295939492505050565b6060815260006119bd60608301866114c6565b82810360208401526119cf81866114c6565b9150508215156040830152949350505050565b600080604083850312156119f557600080fd5b823567ffffffffffffffff80821115611a0d57600080fd5b611a19868387016117fe565b93506020850135915080821115611a2f57600080fd5b50611a3c858286016117fe565b9150509250929050565b604081526000611a5960408301856114c6565b828103602084015261159c81856114c6565b600060208284031215611a7d57600080fd5b5035919050565b608081526000611a9760808301876114c6565b8281036020840152611aa981876114c6565b90508281036040840152611abd81866114c6565b90508281036060840152611ad181856114c6565b979650505050505050565b600082601f830112611aed57600080fd5b8151611afb61181d826117d6565b818152846020838601011115611b1057600080fd5b611889826020830160208701611496565b600060208284031215611b3357600080fd5b6040516020810181811067ffffffffffffffff82111715611b5657611b56611766565b8060405250809150825160ff81168114611b6f57600080fd5b905292915050565b8051611b8281611669565b919050565b600060208284031215611b9957600080fd5b815167ffffffffffffffff80821115611bb157600080fd5b9083019060e08286031215611bc557600080fd5b611bcd61177c565b82518152602083015182811115611be357600080fd5b611bef87828601611adc565b602083015250604083015182811115611c0757600080fd5b611c1387828601611adc565b604083015250606083015182811115611c2b57600080fd5b611c3787828601611adc565b606083015250611c4a8660808501611b21565b6080820152611c5b60a08401611b77565b60a082015260c083015182811115611c7257600080fd5b611c7e87828601611adc565b60c08301525095945050505050565b8183823760009101908152919050565b600181811c90821680611cb157607f821691505b60208210811415611cd257634e487b7160e01b600052602260045260246000fd5b50919050565b6020808252818101527f4f776e61626c653a2063616c6c6572206973206e6f7420746865206f776e6572604082015260600190565b60008251611d1f818460208701611496565b9190910192915050565b6000808354611d3781611c9d565b60018281168015611d4f5760018114611d6057611d8f565b60ff19841687528287019450611d8f565b8760005260208060002060005b85811015611d865781548a820152908401908201611d6d565b50505082870194505b50929695505050505050565b81835281816020850137506000828201602090810191909152601f909101601f19169091010190565b6080815260096080820152684176616c616e63686560b81b60a082015260c060208201526000611df860c08301888a611d9b565b8281036040840152611e0b818789611d9b565b90508281036060840152611e20818587611d9b565b9998505050505050505050565b60008154611e3a81611c9d565b808552602060018381168015611e575760018114611e6b57611e99565b60ff19851688840152604088019550611e99565b866000528260002060005b85811015611e915781548a8201860152908301908401611e76565b890184019650505b505050505092915050565b60c081526000611eb860c08301898b611d9b565b8281036020840152611eca8189611e2d565b90508281036040840152611ede8188611e2d565b6001600160a01b0387166060850152855160ff16608085015283810360a08501529050611f0b81856114c6565b9a995050505050505050505056fea26469706673582212200d42fc73fbe6fd462ff064ca7ea3932e08b9f12cb1619e6020f857f99972d9bf64736f6c634300080a0033",
  "immutableReferences": {},
  "source": "// SPDX-License-Identifier: MIT\npragma solidity >=0.8.0 <0.9.0;\n\nimport \"@openzeppelin/contracts/access/Ownable.sol\";\nimport \"./CrossChain/ContractBase.sol\";\n\ncontract Greetings is ContractBase {\n    // Destination contract info\n    struct DestnContract {\n        string contractAddress; // destination contract address\n        string actionName; // destination contract action name\n        bool used;\n    }\n\n    // greeting\n    struct Greeting {\n        string fromChain;\n        string title;\n        string content;\n        string date;\n    }\n\n    // Cross-chain destination contract map\n    mapping(string => DestnContract) public destnContractMap;\n\n    // Cross-chain source chain map\n    mapping(string => mapping(string => string)) public permittedContractMap;\n\n    // Store greetings\n    Greeting[] public greetings;\n\n    // Store context of cross chain contract\n    // SimplifiedMessage public context;\n\n    /**\n     * Receive greeting info from other chains\n     * @param _fromChain - from chain name\n     * @param _title - greeting title\n     * @param _content - greeting content\n     * @param _date - date\n     */\n    function receiveGreeting(\n        string calldata _fromChain,\n        string calldata _title,\n        string calldata _content,\n        string calldata _date\n    ) public {\n        require(\n            msg.sender == address(crossChainContract),\n            \"Locker: caller is not CrossChain\"\n        );\n\n        // `context` used for verify the operation authority\n        SimplifiedMessage memory context = getContext();\n        // verify sqos\n        require(context.sqos.reveal == 1, \"SQoS invalid!\");\n\n        // verify the sender from the registered chain\n        mapping(string => string)\n            storage permittedContract = permittedContractMap[context.fromChain];\n\n        require(\n            keccak256(bytes(permittedContract[context.action])) ==\n                keccak256(bytes(context.sender)),\n            \"message sender is not registered!\"\n        );\n\n        Greeting storage g = greetings.push();\n        g.fromChain = _fromChain;\n        g.title = _title;\n        g.content = _content;\n        g.date = _date;\n\n        // Get message info from CrossChain contract context\n        // context = crossChainContract.getCurrentMessage();\n    }\n\n    /**\n     * Send greeting info to other chains\n     * @param _toChain - to chain name\n     * @param _title - greeting title\n     * @param _content - greeting content\n     * @param _date - date\n     */\n    function sendGreeting(\n        string calldata _toChain,\n        string calldata _title,\n        string calldata _content,\n        string calldata _date\n    ) external {\n        DestnContract storage destnContract = destnContractMap[_toChain];\n        require(destnContract.used, \"action not registered\");\n\n        bytes memory data = abi.encode(\"Avalanche\", _title, _content, _date);\n        SQOS memory sqos = SQOS(1);\n        crossChainContract.sendMessage(\n            _toChain,\n            destnContract.contractAddress,\n            destnContract.actionName,\n            tx.origin,\n            sqos,\n            data\n        );\n    }\n\n    ///////////////////////////////////////////////\n    /////    Send messages to other chains   //////\n    ///////////////////////////////////////////////\n\n    /**\n     * Register destination contract info\n     * @param _toChain - destination chain name\n     * @param _contractAddress - destination contract address\n     * @param _funcName - contract function bane\n     */\n    function registerDestnContract(\n        string calldata _toChain,\n        string calldata _contractAddress,\n        string calldata _funcName\n    ) external onlyOwner {\n        DestnContract storage destnContract = destnContractMap[_toChain];\n        destnContract.contractAddress = _contractAddress;\n        destnContract.actionName = _funcName;\n        destnContract.used = true;\n    }\n\n    ///////////////////////////////////////////////\n    ///    Receive messages from other chains   ///\n    ///////////////////////////////////////////////\n\n    /**\n     * Authorize contracts of other chains to call the functions of this contract\n     * @param _chainName - from chain name\n     * @param _sender - sender of cross chain message\n     * @param _actionName - action name which allowed to be invoked\n     */\n    function registerPermittedContract(\n        string calldata _chainName,\n        string calldata _sender,\n        string calldata _actionName\n    ) external onlyOwner {\n        mapping(string => string) storage map = permittedContractMap[\n            _chainName\n        ];\n        map[_actionName] = _sender;\n    }\n\n    /**\n     * This verify method will be invoked by the CrossChain contract automatically, ensure that only registered contract(registerSourceContract) calls are allowed\n     * @param _chainName - chain name of cross chain message\n     * @param _actionName - contract action name of cross chain message\n     * @param _sender - cross chain message sender\n     */\n    //  Will be deprecated soon\n    function verify(\n        string calldata _chainName,\n        string calldata _actionName,\n        string calldata _sender\n    ) public view virtual returns (bool) {\n        mapping(string => string) storage map = permittedContractMap[\n            _chainName\n        ];\n        string storage sender = map[_actionName];\n        require(\n            keccak256(bytes(sender)) == keccak256(bytes(_sender)),\n            \"Sender does not match\"\n        );\n        return true;\n    }\n}\n",
  "sourcePath": "/Users/yahuang.wu/Desktop/solidity-contract-template/contracts/Greetings.sol",
  "compiler": {
    "name": "solc",
    "version": "0.8.10+commit.fc410830.Emscripten.clang"
  },
  "schemaVersion": "3.4.5",
  "updatedAt": "2022-03-10T07:02:47.403Z",
  "devdoc": {
    "kind": "dev",
    "methods": {
      "getContractABI(string)": {
        "params": {
          "_funcName": "- contract action name"
        }
      },
      "getMessageABI(string)": {
        "params": {
          "_funcName": "- contract action name"
        }
      },
      "owner()": {
        "details": "Returns the address of the current owner."
      },
      "receiveGreeting(string,string,string,string)": {
        "params": {
          "_content": "- greeting content",
          "_date": "- date",
          "_fromChain": "- from chain name",
          "_title": "- greeting title"
        }
      },
      "registerContractABI(string,string)": {
        "params": {
          "_funcName": "- contract action name",
          "_interface": "- contract action abi"
        }
      },
      "registerDestnContract(string,string,string)": {
        "params": {
          "_contractAddress": "- destination contract address",
          "_funcName": "- contract function bane",
          "_toChain": "- destination chain name"
        }
      },
      "registerMessageABI(string,string,string)": {
        "params": {
          "_funcName": "- contract action name",
          "_paramName": "- action param name",
          "_paramType": "- action param types"
        }
      },
      "registerPermittedContract(string,string,string)": {
        "params": {
          "_actionName": "- action name which allowed to be invoked",
          "_chainName": "- from chain name",
          "_sender": "- sender of cross chain message"
        }
      },
      "renounceOwnership()": {
        "details": "Leaves the contract without owner. It will not be possible to call `onlyOwner` functions anymore. Can only be called by the current owner. NOTE: Renouncing ownership will leave the contract without an owner, thereby removing any functionality that is only available to the owner."
      },
      "sendGreeting(string,string,string,string)": {
        "params": {
          "_content": "- greeting content",
          "_date": "- date",
          "_title": "- greeting title",
          "_toChain": "- to chain name"
        }
      },
      "setCrossChainContract(address)": {
        "params": {
          "_address": "- cross chain contract address"
        }
      },
      "transferOwnership(address)": {
        "details": "Transfers ownership of the contract to a new account (`newOwner`). Can only be called by the current owner."
      },
      "verify(string,string,string)": {
        "params": {
          "_actionName": "- contract action name of cross chain message",
          "_chainName": "- chain name of cross chain message",
          "_sender": "- cross chain message sender"
        }
      }
    },
    "version": 1
  },
  "userdoc": {
    "kind": "user",
    "methods": {
      "getContractABI(string)": {
        "notice": "Get Registered source contract action info"
      },
      "getMessageABI(string)": {
        "notice": "Get Registered destination contract action info"
      },
      "receiveGreeting(string,string,string,string)": {
        "notice": "Receive greeting info from other chains"
      },
      "registerContractABI(string,string)": {
        "notice": "contract ABI used to encode/decode messages sent to this contract"
      },
      "registerDestnContract(string,string,string)": {
        "notice": "Register destination contract info"
      },
      "registerMessageABI(string,string,string)": {
        "notice": "message ABI used to encode/decode messages sent from this contract"
      },
      "registerPermittedContract(string,string,string)": {
        "notice": "Authorize contracts of other chains to call the functions of this contract"
      },
      "sendGreeting(string,string,string,string)": {
        "notice": "Send greeting info to other chains"
      },
      "setCrossChainContract(address)": {
        "notice": "Set cross chain contract"
      },
      "verify(string,string,string)": {
        "notice": "This verify method will be invoked by the CrossChain contract automatically, ensure that only registered contract(registerSourceContract) calls are allowed"
      }
    },
    "version": 1
  }
}