{
  "contractName": "Greetings",
  "abi": [
    {
      "anonymous": false,
      "inputs": [
        {
          "indexed": true,
          "internalType": "address",
          "name": "previousOwner",
          "type": "address"
        },
        {
          "indexed": true,
          "internalType": "address",
          "name": "newOwner",
          "type": "address"
        }
      ],
      "name": "OwnershipTransferred",
      "type": "event"
    },
    {
      "inputs": [],
      "name": "crossChainContract",
      "outputs": [
        {
          "internalType": "contract ICrossChain",
          "name": "",
          "type": "address"
        }
      ],
      "stateMutability": "view",
      "type": "function",
      "constant": true
    },
    {
      "inputs": [
        {
          "internalType": "string",
          "name": "",
          "type": "string"
        },
        {
          "internalType": "string",
          "name": "",
          "type": "string"
        }
      ],
      "name": "destnContractMap",
      "outputs": [
        {
          "internalType": "string",
          "name": "contractAddress",
          "type": "string"
        },
        {
          "internalType": "string",
          "name": "funcName",
          "type": "string"
        },
        {
          "internalType": "bool",
          "name": "used",
          "type": "bool"
        }
      ],
      "stateMutability": "view",
      "type": "function",
      "constant": true
    },
    {
      "inputs": [],
      "name": "getContext",
      "outputs": [
        {
          "components": [
            {
              "internalType": "uint256",
              "name": "id",
              "type": "uint256"
            },
            {
              "internalType": "string",
              "name": "fromChain",
              "type": "string"
            },
            {
              "internalType": "string",
              "name": "sender",
              "type": "string"
            },
            {
              "internalType": "string",
              "name": "signer",
              "type": "string"
            },
            {
              "components": [
                {
                  "internalType": "enum SQoSType",
                  "name": "t",
                  "type": "uint8"
                },
                {
                  "internalType": "string",
                  "name": "v",
                  "type": "string"
                }
              ],
              "internalType": "struct SQoS[]",
              "name": "sqos",
              "type": "tuple[]"
            },
            {
              "internalType": "address",
              "name": "contractAddress",
              "type": "address"
            },
            {
              "internalType": "bytes4",
              "name": "action",
              "type": "bytes4"
            },
            {
              "components": [
                {
                  "internalType": "uint256",
                  "name": "id",
                  "type": "uint256"
                },
                {
                  "internalType": "bytes",
                  "name": "callback",
                  "type": "bytes"
                }
              ],
              "internalType": "struct Session",
              "name": "session",
              "type": "tuple"
            }
          ],
          "internalType": "struct SimplifiedMessage",
          "name": "",
          "type": "tuple"
        }
      ],
      "stateMutability": "view",
      "type": "function",
      "constant": true
    },
    {
      "inputs": [
        {
          "internalType": "uint256",
          "name": "",
          "type": "uint256"
        }
      ],
      "name": "greetings",
      "outputs": [
        {
          "internalType": "string",
          "name": "fromChain",
          "type": "string"
        },
        {
          "internalType": "string",
          "name": "title",
          "type": "string"
        },
        {
          "internalType": "string",
          "name": "content",
          "type": "string"
        },
        {
          "internalType": "string",
          "name": "date",
          "type": "string"
        }
      ],
      "stateMutability": "view",
      "type": "function",
      "constant": true
    },
    {
      "inputs": [],
      "name": "owner",
      "outputs": [
        {
          "internalType": "address",
          "name": "",
          "type": "address"
        }
      ],
      "stateMutability": "view",
      "type": "function",
      "constant": true
    },
    {
      "inputs": [
        {
          "internalType": "string",
          "name": "",
          "type": "string"
        },
        {
          "internalType": "bytes4",
          "name": "",
          "type": "bytes4"
        }
      ],
      "name": "permittedContractMap",
      "outputs": [
        {
          "internalType": "string",
          "name": "",
          "type": "string"
        }
      ],
      "stateMutability": "view",
      "type": "function",
      "constant": true
    },
    {
      "inputs": [],
      "name": "renounceOwnership",
      "outputs": [],
      "stateMutability": "nonpayable",
      "type": "function"
    },
    {
      "inputs": [
        {
          "internalType": "address",
          "name": "_address",
          "type": "address"
        }
      ],
      "name": "setCrossChainContract",
      "outputs": [],
      "stateMutability": "nonpayable",
      "type": "function"
    },
    {
      "inputs": [
        {
          "internalType": "address",
          "name": "newOwner",
          "type": "address"
        }
      ],
      "name": "transferOwnership",
      "outputs": [],
      "stateMutability": "nonpayable",
      "type": "function"
    },
    {
      "inputs": [
        {
          "components": [
            {
              "components": [
                {
                  "internalType": "string",
                  "name": "name",
                  "type": "string"
                },
                {
                  "internalType": "enum MsgType",
                  "name": "msgType",
                  "type": "uint8"
                },
                {
                  "internalType": "bytes",
                  "name": "value",
                  "type": "bytes"
                }
              ],
              "internalType": "struct PayloadItem[]",
              "name": "items",
              "type": "tuple[]"
            }
          ],
          "internalType": "struct Payload",
          "name": "_payload",
          "type": "tuple"
        }
      ],
      "name": "receiveGreeting",
      "outputs": [],
      "stateMutability": "nonpayable",
      "type": "function"
    },
    {
      "inputs": [
        {
          "internalType": "string",
          "name": "_toChain",
          "type": "string"
        },
        {
          "internalType": "string[]",
          "name": "_greeting",
          "type": "string[]"
        }
      ],
      "name": "sendGreeting",
      "outputs": [],
      "stateMutability": "nonpayable",
      "type": "function"
    },
    {
      "inputs": [
        {
          "internalType": "string",
          "name": "_funcName",
          "type": "string"
        },
        {
          "internalType": "string",
          "name": "_toChain",
          "type": "string"
        },
        {
          "internalType": "string",
          "name": "_contractAddress",
          "type": "string"
        },
        {
          "internalType": "string",
          "name": "_contractFuncName",
          "type": "string"
        }
      ],
      "name": "registerDestnContract",
      "outputs": [],
      "stateMutability": "nonpayable",
      "type": "function"
    },
    {
      "inputs": [
        {
          "internalType": "string",
          "name": "_chainName",
          "type": "string"
        },
        {
          "internalType": "string",
          "name": "_sender",
          "type": "string"
        },
        {
          "internalType": "bytes4",
          "name": "_funcName",
          "type": "bytes4"
        }
      ],
      "name": "registerPermittedContract",
      "outputs": [],
      "stateMutability": "nonpayable",
      "type": "function"
    },
    {
      "inputs": [
        {
          "internalType": "string",
          "name": "_chainName",
          "type": "string"
        },
        {
          "internalType": "bytes4",
          "name": "_funcName",
          "type": "bytes4"
        },
        {
          "internalType": "string",
          "name": "_sender",
          "type": "string"
        }
      ],
      "name": "verify",
      "outputs": [
        {
          "internalType": "bool",
          "name": "",
          "type": "bool"
        }
      ],
      "stateMutability": "view",
      "type": "function",
      "constant": true
    }
  ],
  "bytecode": "0x608060405234801561001057600080fd5b5061001a3361001f565b61006f565b600080546001600160a01b038381166001600160a01b0319831681178455604051919092169283917f8be0079c531659141344cd1fd0a4f28419497f9722a3daafe3b4186f6b6457e09190a35050565b611fc78061007e6000396000f3fe608060405234801561001057600080fd5b50600436106100ea5760003560e01c80638da5cb5b1161008c578063c5f200ed11610066578063c5f200ed146101e2578063dbc90de114610202578063f2fde38b14610215578063f87c9ea91461022857600080fd5b80638da5cb5b14610197578063babe5dd6146101bc578063bd0bbc47146101cf57600080fd5b80632d436822116100c85780632d43682214610147578063715018a61461015a57806380899bba14610162578063856444151461018457600080fd5b80630c5ae335146100ef578063127f0f071461011d57806318d72b5414610132575b600080fd5b6101086100fd36600461114a565b600195945050505050565b60405190151581526020015b60405180910390f35b61012561024b565b60405161011491906112e5565b6101456101403660046113d5565b6102d3565b005b6101456101553660046113f9565b610328565b6101456104ec565b610175610170366004611541565b610522565b604051610114939291906115a4565b6101456101923660046115dc565b61067f565b6000546001600160a01b03165b6040516001600160a01b039091168152602001610114565b6101456101ca36600461165f565b6106f2565b6101456101dd366004611722565b610798565b6101f56101f03660046117bb565b610b13565b604051610114919061180c565b6001546101a4906001600160a01b031681565b6101456102233660046113d5565b610bc8565b61023b61023636600461181f565b610c63565b6040516101149493929190611838565b610253610efb565b600160009054906101000a90046001600160a01b03166001600160a01b0316639af7a48c6040518163ffffffff1660e01b8152600401600060405180830381865afa1580156102a6573d6000803e3d6000fd5b505050506040513d6000823e601f3d908101601f191682016040526102ce9190810190611a5d565b905090565b6000546001600160a01b031633146103065760405162461bcd60e51b81526004016102fd90611b86565b60405180910390fd5b600180546001600160a01b0319166001600160a01b0392909216919091179055565b6001546001600160a01b031633146103825760405162461bcd60e51b815260206004820181905260248201527f4c6f636b65723a2063616c6c6572206973206e6f742043726f7373436861696e60448201526064016102fd565b600061038c61024b565b9050600061039a8380611bbb565b60008181106103ab576103ab611c04565b90506020028101906103bd9190611c1a565b6103cb906040810190611c3a565b8101906103d89190611c80565b905060006040518060800160405280836000815181106103fa576103fa611c04565b602002602001015181526020018360018151811061041a5761041a611c04565b602002602001015181526020018360028151811061043a5761043a611c04565b602002602001015181526020018360038151811061045a5761045a611c04565b602090810291909101810151909152845160009081526004825260409020825180519394508493919261049292849290910190610f6d565b5060208281015180516104ab9260018501920190610f6d565b50604082015180516104c7916002840191602090910190610f6d565b50606082015180516104e3916003840191602090910190610f6d565b50505050505050565b6000546001600160a01b031633146105165760405162461bcd60e51b81526004016102fd90611b86565b6105206000610eab565b565b8151602081840181018051600282529282019482019490942091909352815180830184018051928152908401929093019190912091528054819061056590611d30565b80601f016020809104026020016040519081016040528092919081815260200182805461059190611d30565b80156105de5780601f106105b3576101008083540402835291602001916105de565b820191906000526020600020905b8154815290600101906020018083116105c157829003601f168201915b5050505050908060010180546105f390611d30565b80601f016020809104026020016040519081016040528092919081815260200182805461061f90611d30565b801561066c5780601f106106415761010080835404028352916020019161066c565b820191906000526020600020905b81548152906001019060200180831161064f57829003601f168201915b5050506002909301549192505060ff1683565b6000546001600160a01b031633146106a95760405162461bcd60e51b81526004016102fd90611b86565b6000600386866040516106bd929190611d6b565b90815260408051602092819003830190206001600160e01b0319851660009081529281905291209091506104e3908585610ff1565b6000546001600160a01b0316331461071c5760405162461bcd60e51b81526004016102fd90611b86565b600060028787604051610730929190611d6b565b908152602001604051809103902090506000818a8a604051610753929190611d6b565b908152604051908190036020019020905061076f818787610ff1565b5061077e600182018585610ff1565b50600201805460ff19166001179055505050505050505050565b6000600285856040516107ac929190611d6b565b9081526040519081900360200181206e726563656976654772656574696e6760881b825291506000908290600f01908152604051908190036020019020600281015490915060ff166108385760405162461bcd60e51b81526020600482015260156024820152741858dd1a5bdb881b9bdd081c9959da5cdd195c9959605a1b60448201526064016102fd565b6040805160208101825260608152815160018082528184019093529091816020015b6040805160608082018352808252600060208301529181019190915281526020019060019003908161085a575050808252805160009190829061089f5761089f611c04565b60209081029190910181015160408051808201825260088152676772656574696e6760c01b818501528252600b82840152519092506108e2918891889101611da4565b60408051601f198184030181529181528201526108fd611065565b88888080601f0160208091040260200160405190810160405280939291908181526020018383808284376000920182905250938552505060408051808201825283815281516020818101845294815293810193909352606080850193909352805192830190525084548190869061097390611d30565b80601f016020809104026020016040519081016040528092919081815260200182805461099f90611d30565b80156109ec5780601f106109c1576101008083540402835291602001916109ec565b820191906000526020600020905b8154815290600101906020018083116109cf57829003601f168201915b50505050508152602001856001018054610a0590611d30565b80601f0160208091040260200160405190810160405280929190818152602001828054610a3190611d30565b8015610a7e5780601f10610a5357610100808354040283529160200191610a7e565b820191906000526020600020905b815481529060010190602001808311610a6157829003601f168201915b50505091835250506020018490526040808301919091526001549051636e0520a160e01b81526001600160a01b0390911690636e0520a190610ac4908490600401611e3e565b6020604051808303816000875af1158015610ae3573d6000803e3d6000fd5b505050506040513d601f19601f82011682018060405250810190610b079190611f78565b50505050505050505050565b81516020818401810180516003825292820194820194909420919093529091526000908152604090208054610b4790611d30565b80601f0160208091040260200160405190810160405280929190818152602001828054610b7390611d30565b8015610bc05780601f10610b9557610100808354040283529160200191610bc0565b820191906000526020600020905b815481529060010190602001808311610ba357829003601f168201915b505050505081565b6000546001600160a01b03163314610bf25760405162461bcd60e51b81526004016102fd90611b86565b6001600160a01b038116610c575760405162461bcd60e51b815260206004820152602660248201527f4f776e61626c653a206e6577206f776e657220697320746865207a65726f206160448201526564647265737360d01b60648201526084016102fd565b610c6081610eab565b50565b600460205260009081526040902080548190610c7e90611d30565b80601f0160208091040260200160405190810160405280929190818152602001828054610caa90611d30565b8015610cf75780601f10610ccc57610100808354040283529160200191610cf7565b820191906000526020600020905b815481529060010190602001808311610cda57829003601f168201915b505050505090806001018054610d0c90611d30565b80601f0160208091040260200160405190810160405280929190818152602001828054610d3890611d30565b8015610d855780601f10610d5a57610100808354040283529160200191610d85565b820191906000526020600020905b815481529060010190602001808311610d6857829003601f168201915b505050505090806002018054610d9a90611d30565b80601f0160208091040260200160405190810160405280929190818152602001828054610dc690611d30565b8015610e135780601f10610de857610100808354040283529160200191610e13565b820191906000526020600020905b815481529060010190602001808311610df657829003601f168201915b505050505090806003018054610e2890611d30565b80601f0160208091040260200160405190810160405280929190818152602001828054610e5490611d30565b8015610ea15780601f10610e7657610100808354040283529160200191610ea1565b820191906000526020600020905b815481529060010190602001808311610e8457829003601f168201915b5050505050905084565b600080546001600160a01b038381166001600160a01b0319831681178455604051919092169283917f8be0079c531659141344cd1fd0a4f28419497f9722a3daafe3b4186f6b6457e09190a35050565b604051806101000160405280600081526020016060815260200160608152602001606081526020016060815260200160006001600160a01b0316815260200160006001600160e01b0319168152602001610f68604051806040016040528060008152602001606081525090565b905290565b828054610f7990611d30565b90600052602060002090601f016020900481019282610f9b5760008555610fe1565b82601f10610fb457805160ff1916838001178555610fe1565b82800160010185558215610fe1579182015b82811115610fe1578251825591602001919060010190610fc6565b50610fed9291506110a8565b5090565b828054610ffd90611d30565b90600052602060002090601f01602090048101928261101f5760008555610fe1565b82601f106110385782800160ff19823516178555610fe1565b82800160010185558215610fe1579182015b82811115610fe157823582559160200191906001019061104a565b604051806080016040528060608152602001606081526020016110866110bd565b8152602001610f68604051806040016040528060008152602001606081525090565b5b80821115610fed57600081556001016110a9565b60405180606001604052806060815260200160608152602001610f686040518060200160405280606081525090565b60008083601f8401126110fe57600080fd5b5081356001600160401b0381111561111557600080fd5b60208301915083602082850101111561112d57600080fd5b9250929050565b6001600160e01b031981168114610c6057600080fd5b60008060008060006060868803121561116257600080fd5b85356001600160401b038082111561117957600080fd5b61118589838a016110ec565b90975095506020880135915061119a82611134565b909350604087013590808211156111b057600080fd5b506111bd888289016110ec565b969995985093965092949392505050565b60005b838110156111e95781810151838201526020016111d1565b838111156111f8576000848401525b50505050565b600081518084526112168160208601602086016111ce565b601f01601f19169290920160200192915050565b634e487b7160e01b600052602160045260246000fd5b600082825180855260208086019550808260051b84010181860160005b848110156112b157601f19868403018952815160408151600981106112845761128461122a565b8552908501518585018290529061129d818601836111fe565b9a86019a945050509083019060010161125d565b5090979650505050505050565b8051825260006020820151604060208501526112dd60408501826111fe565b949350505050565b60208152815160208201526000602083015161010080604085015261130e6101208501836111fe565b91506040850151601f198086850301606087015261132c84836111fe565b9350606087015191508086850301608087015261134984836111fe565b935060808701519150808685030160a08701526113668483611240565b935060a0870151915061138460c08701836001600160a01b03169052565b60c08701516001600160e01b0319811660e0880152915060e08701519150808685030183870152506113b683826112be565b9695505050505050565b6001600160a01b0381168114610c6057600080fd5b6000602082840312156113e757600080fd5b81356113f2816113c0565b9392505050565b60006020828403121561140b57600080fd5b81356001600160401b0381111561142157600080fd5b8201602081850312156113f257600080fd5b634e487b7160e01b600052604160045260246000fd5b604080519081016001600160401b038111828210171561146b5761146b611433565b60405290565b60405161010081016001600160401b038111828210171561146b5761146b611433565b604051601f8201601f191681016001600160401b03811182821017156114bc576114bc611433565b604052919050565b60006001600160401b038211156114dd576114dd611433565b50601f01601f191660200190565b600082601f8301126114fc57600080fd5b813561150f61150a826114c4565b611494565b81815284602083860101111561152457600080fd5b816020850160208301376000918101602001919091529392505050565b6000806040838503121561155457600080fd5b82356001600160401b038082111561156b57600080fd5b611577868387016114eb565b9350602085013591508082111561158d57600080fd5b5061159a858286016114eb565b9150509250929050565b6060815260006115b760608301866111fe565b82810360208401526115c981866111fe565b9150508215156040830152949350505050565b6000806000806000606086880312156115f457600080fd5b85356001600160401b038082111561160b57600080fd5b61161789838a016110ec565b9097509550602088013591508082111561163057600080fd5b5061163d888289016110ec565b909450925050604086013561165181611134565b809150509295509295909350565b6000806000806000806000806080898b03121561167b57600080fd5b88356001600160401b038082111561169257600080fd5b61169e8c838d016110ec565b909a50985060208b01359150808211156116b757600080fd5b6116c38c838d016110ec565b909850965060408b01359150808211156116dc57600080fd5b6116e88c838d016110ec565b909650945060608b013591508082111561170157600080fd5b5061170e8b828c016110ec565b999c989b5096995094979396929594505050565b6000806000806040858703121561173857600080fd5b84356001600160401b038082111561174f57600080fd5b61175b888389016110ec565b9096509450602087013591508082111561177457600080fd5b818701915087601f83011261178857600080fd5b81358181111561179757600080fd5b8860208260051b85010111156117ac57600080fd5b95989497505060200194505050565b600080604083850312156117ce57600080fd5b82356001600160401b038111156117e457600080fd5b6117f0858286016114eb565b925050602083013561180181611134565b809150509250929050565b6020815260006113f260208301846111fe565b60006020828403121561183157600080fd5b5035919050565b60808152600061184b60808301876111fe565b828103602084015261185d81876111fe565b9050828103604084015261187181866111fe565b9050828103606084015261188581856111fe565b979650505050505050565b600061189e61150a846114c4565b90508281528383830111156118b257600080fd5b6113f28360208301846111ce565b600082601f8301126118d157600080fd5b6113f283835160208501611890565b60006001600160401b038211156118f9576118f9611433565b5060051b60200190565b600082601f83011261191457600080fd5b8151602061192461150a836118e0565b82815260059290921b8401810191818101908684111561194357600080fd5b8286015b848110156119d25780516001600160401b03808211156119675760008081fd5b908801906040828b03601f19018113156119815760008081fd5b611989611449565b878401516009811061199b5760008081fd5b81529083015190828211156119b05760008081fd5b6119be8c89848701016118c0565b818901528652505050918301918301611947565b509695505050505050565b80516119e8816113c0565b919050565b80516119e881611134565b600060408284031215611a0a57600080fd5b611a12611449565b90508151815260208201516001600160401b03811115611a3157600080fd5b8201601f81018413611a4257600080fd5b611a5184825160208401611890565b60208301525092915050565b600060208284031215611a6f57600080fd5b81516001600160401b0380821115611a8657600080fd5b908301906101008286031215611a9b57600080fd5b611aa3611471565b82518152602083015182811115611ab957600080fd5b611ac5878286016118c0565b602083015250604083015182811115611add57600080fd5b611ae9878286016118c0565b604083015250606083015182811115611b0157600080fd5b611b0d878286016118c0565b606083015250608083015182811115611b2557600080fd5b611b3187828601611903565b608083015250611b4360a084016119dd565b60a0820152611b5460c084016119ed565b60c082015260e083015182811115611b6b57600080fd5b611b77878286016119f8565b60e08301525095945050505050565b6020808252818101527f4f776e61626c653a2063616c6c6572206973206e6f7420746865206f776e6572604082015260600190565b6000808335601e19843603018112611bd257600080fd5b8301803591506001600160401b03821115611bec57600080fd5b6020019150600581901b360382131561112d57600080fd5b634e487b7160e01b600052603260045260246000fd5b60008235605e19833603018112611c3057600080fd5b9190910192915050565b6000808335601e19843603018112611c5157600080fd5b8301803591506001600160401b03821115611c6b57600080fd5b60200191503681900382131561112d57600080fd5b60006020808385031215611c9357600080fd5b82356001600160401b0380821115611caa57600080fd5b818501915085601f830112611cbe57600080fd5b8135611ccc61150a826118e0565b81815260059190911b83018401908481019088831115611ceb57600080fd5b8585015b83811015611d2357803585811115611d075760008081fd5b611d158b89838a01016114eb565b845250918601918601611cef565b5098975050505050505050565b600181811c90821680611d4457607f821691505b60208210811415611d6557634e487b7160e01b600052602260045260246000fd5b50919050565b8183823760009101908152919050565b81835281816020850137506000828201602090810191909152601f909101601f19169091010190565b60208082528181018390526000906040600585901b8401810190840186845b87811015611e3157868403603f190183528135368a9003601e19018112611de957600080fd5b890180356001600160401b03811115611e0157600080fd5b8036038b1315611e1057600080fd5b611e1d8682898501611d7b565b955050509184019190840190600101611dc3565b5091979650505050505050565b600060208083528351608082850152611e5a60a08501826111fe565b905081850151601f196040818785030181880152611e788484611240565b935080880151925060608288860301818901528351818652611e9c828701826111fe565b90508685015186820388880152611eb382826111fe565b9584015187870397850197909752505093518584528051868501819052600581901b850183019591870194908382019060005b81811015611f4e57838903603f1901835287518051868b52611f0a878c01826111fe565b90508b82015160168110611f2057611f2061122a565b8b8d0152908701518a8203888c015290611f3a81836111fe565b9a5050509689019691890191600101611ee6565b505050508801518785039092016080880152509250611f6f905081836112be565b95945050505050565b600060208284031215611f8a57600080fd5b505191905056fea26469706673582212204a20a582dc1b9aa5aff4cc2b8a90a0d5f8175209a6c40998af03bd5cb2772ef964736f6c634300080a0033",
  "immutableReferences": {},
  "source": "// SPDX-License-Identifier: MIT\npragma solidity >=0.8.0 <0.9.0;\n\nimport \"@openzeppelin/contracts/access/Ownable.sol\";\nimport \"./CrossChain/ContractBase.sol\";\n\n// `Greetings` is an example of multi-chain services with necessary implementations in `ContractBase`, without which the user defined contract cannot work.\n// And besides, `registerDestnContract` and `registerPermittedContract` are templete implementations make the management of some user defined informations easier.\ncontract Greetings is ContractBase {\n    // Destination contract info\n    struct DestnContract {\n        string contractAddress; // destination contract address\n        string funcName; // destination contract action name\n        bool used;\n    }\n\n    // greeting\n    struct Greeting {\n        string fromChain;\n        string title;\n        string content;\n        string date;\n    }\n\n    // Cross-chain destination contract map\n    mapping(string => mapping(string => DestnContract)) public destnContractMap;\n\n    // Cross-chain permitted contract map\n    mapping(string => mapping(bytes4 => string)) public permittedContractMap;\n\n    // Store greetings\n    mapping(uint256 => Greeting) public greetings;\n\n    /**\n     * Receive greeting info from other chains\n     * @param _payload - payload which contains greeting message\n     */\n    function receiveGreeting(Payload calldata _payload) public {\n        require(\n            msg.sender == address(crossChainContract),\n            \"Locker: caller is not CrossChain\"\n        );\n\n        // `context` used for verify the operation authority\n        SimplifiedMessage memory context = getContext();\n        // verify sqos\n        // require(context.sqos.reveal == 1, \"SQoS invalid!\");\n\n        (string[] memory _value) = abi.decode(_payload.items[0].value, (string[]));\n        Greeting memory _greeting = Greeting(_value[0], _value[1], _value[2], _value[3]);\n        greetings[context.id] = _greeting;\n    }\n\n    /**\n     * Send greeting info to other chains\n     * @param _toChain - to chain name\n     * @param _greeting - greeting sent to other chain\n     */\n    function sendGreeting(\n        string calldata _toChain,\n        string[] calldata _greeting\n    ) external {\n        mapping(string => DestnContract) storage map = destnContractMap[_toChain];\n        DestnContract storage destnContract = map[\"receiveGreeting\"];\n        require(destnContract.used, \"action not registered\");\n\n        // Construct payload\n        Payload memory data;\n        data.items = new PayloadItem[](1);\n        PayloadItem memory item = data.items[0];\n        item.name = \"greeting\";\n        item.msgType = MsgType.EvmStringArray;\n        item.value = abi.encode(_greeting);\n\n        ISentMessage memory message;\n        message.toChain = _toChain;\n        message.session = Session(0, \"\");\n        message.content = Content(destnContract.contractAddress, destnContract.funcName, data);\n\n        crossChainContract.sendMessage(message);\n    }\n\n    ///////////////////////////////////////////////\n    /////    Send messages to other chains   //////\n    ///////////////////////////////////////////////\n\n    /**\n     * Register destination contract info\n     * @param _funcName - function name to be called\n     * @param _toChain - destination chain name\n     * @param _contractAddress - destination contract address\n     * @param _contractFuncName - contract function name\n     */\n    function registerDestnContract(\n        string calldata _funcName,\n        string calldata _toChain,\n        string calldata _contractAddress,\n        string calldata _contractFuncName\n    ) external onlyOwner {\n        mapping(string => DestnContract) storage map = destnContractMap[_toChain];\n        DestnContract storage destnContract = map[_funcName];\n        destnContract.contractAddress = _contractAddress;\n        destnContract.funcName = _contractFuncName;\n        destnContract.used = true;\n    }\n\n    ///////////////////////////////////////////////\n    ///    Receive messages from other chains   ///\n    ///////////////////////////////////////////////\n\n    /**\n     * Authorize contracts of other chains to call the functions of this contract\n     * @param _chainName - from chain name\n     * @param _sender - sender of cross chain message\n     * @param _funcName - action name which allowed to be invoked\n     */\n    function registerPermittedContract(\n        string calldata _chainName,\n        string calldata _sender,\n        bytes4 _funcName\n    ) external onlyOwner {\n        mapping(bytes4 => string) storage map = permittedContractMap[\n            _chainName\n        ];\n        map[_funcName] = _sender;\n    }\n\n    /**\n     * This verify method will be invoked by the CrossChain contract automatically, ensure that only registered contract(registerSourceContract) calls are allowed\n     * @param _chainName - chain name of cross chain message\n     * @param _funcName - contract action name of cross chain message\n     * @param _sender - cross chain message sender\n     */\n    //  Will be deprecated soon\n    function verify(\n        string calldata _chainName,\n        bytes4 _funcName,\n        string calldata _sender\n    ) public view virtual returns (bool) {\n        // mapping(bytes4 => string) storage map = permittedContractMap[\n        //     _chainName\n        // ];\n        // string storage sender = map[_funcName];\n        // require(\n        //     keccak256(bytes(sender)) == keccak256(bytes(_sender)),\n        //     \"Sender does not match\"\n        // );\n        return true;\n    }\n}\n",
  "sourcePath": "/home/george/program/dante/solidity-contract-template/contracts/Greetings.sol",
  "compiler": {
    "name": "solc",
    "version": "0.8.10+commit.fc410830.Emscripten.clang"
  },
  "schemaVersion": "3.4.6",
  "updatedAt": "2022-07-04T06:56:32.295Z",
  "networkType": "ethereum",
  "devdoc": {
    "kind": "dev",
    "methods": {
      "owner()": {
        "details": "Returns the address of the current owner."
      },
      "receiveGreeting(((string,uint8,bytes)[]))": {
        "params": {
          "_payload": "- payload which contains greeting message"
        }
      },
      "registerDestnContract(string,string,string,string)": {
        "params": {
          "_contractAddress": "- destination contract address",
          "_contractFuncName": "- contract function name",
          "_funcName": "- function name to be called",
          "_toChain": "- destination chain name"
        }
      },
      "registerPermittedContract(string,string,bytes4)": {
        "params": {
          "_chainName": "- from chain name",
          "_funcName": "- action name which allowed to be invoked",
          "_sender": "- sender of cross chain message"
        }
      },
      "renounceOwnership()": {
        "details": "Leaves the contract without owner. It will not be possible to call `onlyOwner` functions anymore. Can only be called by the current owner. NOTE: Renouncing ownership will leave the contract without an owner, thereby removing any functionality that is only available to the owner."
      },
      "sendGreeting(string,string[])": {
        "params": {
          "_greeting": "- greeting sent to other chain",
          "_toChain": "- to chain name"
        }
      },
      "setCrossChainContract(address)": {
        "params": {
          "_address": "- cross chain contract address"
        }
      },
      "transferOwnership(address)": {
        "details": "Transfers ownership of the contract to a new account (`newOwner`). Can only be called by the current owner."
      },
      "verify(string,bytes4,string)": {
        "params": {
          "_chainName": "- chain name of cross chain message",
          "_funcName": "- contract action name of cross chain message",
          "_sender": "- cross chain message sender"
        }
      }
    },
    "version": 1
  },
  "userdoc": {
    "kind": "user",
    "methods": {
      "receiveGreeting(((string,uint8,bytes)[]))": {
        "notice": "Receive greeting info from other chains"
      },
      "registerDestnContract(string,string,string,string)": {
        "notice": "Register destination contract info"
      },
      "registerPermittedContract(string,string,bytes4)": {
        "notice": "Authorize contracts of other chains to call the functions of this contract"
      },
      "sendGreeting(string,string[])": {
        "notice": "Send greeting info to other chains"
      },
      "setCrossChainContract(address)": {
        "notice": "Set cross chain contract"
      },
      "verify(string,bytes4,string)": {
        "notice": "This verify method will be invoked by the CrossChain contract automatically, ensure that only registered contract(registerSourceContract) calls are allowed"
      }
    },
    "version": 1
  }
}