{
  "contractName": "Greetings",
  "abi": [
    {
      "anonymous": false,
      "inputs": [
        {
          "indexed": true,
          "internalType": "address",
          "name": "previousOwner",
          "type": "address"
        },
        {
          "indexed": true,
          "internalType": "address",
          "name": "newOwner",
          "type": "address"
        }
      ],
      "name": "OwnershipTransferred",
      "type": "event"
    },
    {
      "inputs": [],
      "name": "crossChainContract",
      "outputs": [
        {
          "internalType": "contract ICrossChain",
          "name": "",
          "type": "address"
        }
      ],
      "stateMutability": "view",
      "type": "function",
      "constant": true
    },
    {
      "inputs": [
        {
          "internalType": "string",
          "name": "",
          "type": "string"
        },
        {
          "internalType": "string",
          "name": "",
          "type": "string"
        }
      ],
      "name": "destnContractMap",
      "outputs": [
        {
          "internalType": "bytes",
          "name": "contractAddress",
          "type": "bytes"
        },
        {
          "internalType": "bytes",
          "name": "funcName",
          "type": "bytes"
        },
        {
          "internalType": "bool",
          "name": "used",
          "type": "bool"
        }
      ],
      "stateMutability": "view",
      "type": "function",
      "constant": true
    },
    {
      "inputs": [],
      "name": "getContext",
      "outputs": [
        {
          "components": [
            {
              "internalType": "uint256",
              "name": "id",
              "type": "uint256"
            },
            {
              "internalType": "string",
              "name": "fromChain",
              "type": "string"
            },
            {
              "internalType": "bytes",
              "name": "sender",
              "type": "bytes"
            },
            {
              "internalType": "bytes",
              "name": "signer",
              "type": "bytes"
            },
            {
              "components": [
                {
                  "internalType": "enum SQoSType",
                  "name": "t",
                  "type": "uint8"
                },
                {
                  "internalType": "bytes",
                  "name": "v",
                  "type": "bytes"
                }
              ],
              "internalType": "struct SQoS[]",
              "name": "sqos",
              "type": "tuple[]"
            },
            {
              "internalType": "address",
              "name": "contractAddress",
              "type": "address"
            },
            {
              "internalType": "bytes4",
              "name": "action",
              "type": "bytes4"
            },
            {
              "components": [
                {
                  "internalType": "uint256",
                  "name": "id",
                  "type": "uint256"
                },
                {
                  "internalType": "uint8",
                  "name": "sessionType",
                  "type": "uint8"
                },
                {
                  "internalType": "bytes",
                  "name": "callback",
                  "type": "bytes"
                },
                {
                  "internalType": "bytes",
                  "name": "commitment",
                  "type": "bytes"
                },
                {
                  "internalType": "bytes",
                  "name": "answer",
                  "type": "bytes"
                }
              ],
              "internalType": "struct Session",
              "name": "session",
              "type": "tuple"
            }
          ],
          "internalType": "struct SimplifiedMessage",
          "name": "",
          "type": "tuple"
        }
      ],
      "stateMutability": "view",
      "type": "function",
      "constant": true
    },
    {
      "inputs": [
        {
          "internalType": "string",
          "name": "",
          "type": "string"
        },
        {
          "internalType": "uint256",
          "name": "",
          "type": "uint256"
        }
      ],
      "name": "greetings",
      "outputs": [
        {
          "internalType": "string",
          "name": "fromChain",
          "type": "string"
        },
        {
          "internalType": "string",
          "name": "title",
          "type": "string"
        },
        {
          "internalType": "string",
          "name": "content",
          "type": "string"
        },
        {
          "internalType": "string",
          "name": "date",
          "type": "string"
        }
      ],
      "stateMutability": "view",
      "type": "function",
      "constant": true
    },
    {
      "inputs": [],
      "name": "owner",
      "outputs": [
        {
          "internalType": "address",
          "name": "",
          "type": "address"
        }
      ],
      "stateMutability": "view",
      "type": "function",
      "constant": true
    },
    {
      "inputs": [
        {
          "internalType": "string",
          "name": "",
          "type": "string"
        },
        {
          "internalType": "bytes4",
          "name": "",
          "type": "bytes4"
        }
      ],
      "name": "permittedContractMap",
      "outputs": [
        {
          "internalType": "string",
          "name": "",
          "type": "string"
        }
      ],
      "stateMutability": "view",
      "type": "function",
      "constant": true
    },
    {
      "inputs": [],
      "name": "renounceOwnership",
      "outputs": [],
      "stateMutability": "nonpayable",
      "type": "function"
    },
    {
      "inputs": [
        {
          "internalType": "address",
          "name": "_address",
          "type": "address"
        }
      ],
      "name": "setCrossChainContract",
      "outputs": [],
      "stateMutability": "nonpayable",
      "type": "function"
    },
    {
      "inputs": [
        {
          "internalType": "address",
          "name": "newOwner",
          "type": "address"
        }
      ],
      "name": "transferOwnership",
      "outputs": [],
      "stateMutability": "nonpayable",
      "type": "function"
    },
    {
      "inputs": [
        {
          "components": [
            {
              "components": [
                {
                  "internalType": "string",
                  "name": "name",
                  "type": "string"
                },
                {
                  "internalType": "enum MsgType",
                  "name": "msgType",
                  "type": "uint8"
                },
                {
                  "internalType": "bytes",
                  "name": "value",
                  "type": "bytes"
                }
              ],
              "internalType": "struct PayloadItem[]",
              "name": "items",
              "type": "tuple[]"
            }
          ],
          "internalType": "struct Payload",
          "name": "_payload",
          "type": "tuple"
        }
      ],
      "name": "receiveGreeting",
      "outputs": [
        {
          "internalType": "uint256",
          "name": "",
          "type": "uint256"
        }
      ],
      "stateMutability": "nonpayable",
      "type": "function"
    },
    {
      "inputs": [
        {
          "internalType": "string",
          "name": "_toChain",
          "type": "string"
        },
        {
          "internalType": "string[]",
          "name": "_greeting",
          "type": "string[]"
        }
      ],
      "name": "sendGreeting",
      "outputs": [],
      "stateMutability": "nonpayable",
      "type": "function"
    },
    {
      "inputs": [
        {
          "internalType": "string",
          "name": "_funcName",
          "type": "string"
        },
        {
          "internalType": "string",
          "name": "_toChain",
          "type": "string"
        },
        {
          "internalType": "bytes",
          "name": "_contractAddress",
          "type": "bytes"
        },
        {
          "internalType": "bytes",
          "name": "_contractFuncName",
          "type": "bytes"
        }
      ],
      "name": "registerDestnContract",
      "outputs": [],
      "stateMutability": "nonpayable",
      "type": "function"
    },
    {
      "inputs": [
        {
          "internalType": "string",
          "name": "_chainName",
          "type": "string"
        },
        {
          "internalType": "string",
          "name": "_sender",
          "type": "string"
        },
        {
          "internalType": "bytes4",
          "name": "_funcName",
          "type": "bytes4"
        }
      ],
      "name": "registerPermittedContract",
      "outputs": [],
      "stateMutability": "nonpayable",
      "type": "function"
    },
    {
      "inputs": [
        {
          "internalType": "string",
          "name": "_chainName",
          "type": "string"
        },
        {
          "internalType": "bytes4",
          "name": "_funcName",
          "type": "bytes4"
        },
        {
          "internalType": "bytes",
          "name": "_sender",
          "type": "bytes"
        }
      ],
      "name": "verify",
      "outputs": [
        {
          "internalType": "bool",
          "name": "",
          "type": "bool"
        }
      ],
      "stateMutability": "view",
      "type": "function",
      "constant": true
    }
  ],
  "bytecode": "0x608060405234801561001057600080fd5b5061001a3361001f565b61006f565b600080546001600160a01b038381166001600160a01b0319831681178455604051919092169283917f8be0079c531659141344cd1fd0a4f28419497f9722a3daafe3b4186f6b6457e09190a35050565b6120968061007e6000396000f3fe608060405234801561001057600080fd5b50600436106100ea5760003560e01c8063856444151161008c578063c5f200ed11610066578063c5f200ed14610204578063dbc90de114610224578063f2fde38b14610237578063f50db5071461024a57600080fd5b806385644415146101b95780638da5cb5b146101cc578063bd0bbc47146101f157600080fd5b80634944e686116100c85780634944e686146101435780636ec039f41461016c578063715018a61461018f57806380899bba1461019757600080fd5b8063127f0f07146100ef57806318d72b541461010d5780632d43682214610122575b600080fd5b6100f761025d565b604051610104919061125a565b60405180910390f35b61012061011b36600461134a565b6102e5565b005b61013561013036600461136e565b61030f565b604051908152602001610104565b61015c610151366004611406565b600195945050505050565b6040519015158152602001610104565b61017f61017a3660046115ba565b6104b6565b60405161010494939291906115fe565b610120610719565b6101aa6101a5366004611656565b61072d565b604051610104939291906116b9565b6101206101c73660046116f1565b61088a565b6000546001600160a01b03165b6040516001600160a01b039091168152602001610104565b6101206101ff366004611774565b6108e4565b61021761021236600461180d565b610c85565b604051610104919061185e565b6001546101d9906001600160a01b031681565b61012061024536600461134a565b610d3a565b610120610258366004611871565b610db3565b610265610ee1565b600160009054906101000a90046001600160a01b03166001600160a01b0316639af7a48c6040518163ffffffff1660e01b8152600401600060405180830381865afa1580156102b8573d6000803e3d6000fd5b505050506040513d6000823e601f3d908101601f191682016040526102e09190810190611b58565b905090565b6102ed610e37565b600180546001600160a01b0319166001600160a01b0392909216919091179055565b6001546000906001600160a01b0316331461032c57506064919050565b600061033661025d565b905060006103448480611c81565b600081811061035557610355611cca565b90506020028101906103679190611ce0565b610375906040810190611d00565b8101906103829190611d46565b905060006040518060800160405280836000815181106103a4576103a4611cca565b60200260200101518152602001836001815181106103c4576103c4611cca565b60200260200101518152602001836002815181106103e4576103e4611cca565b602002602001015181526020018360038151811061040457610404611cca565b6020026020010151815250905080600484602001516040516104269190611df6565b9081526040805160209281900383019020865160009081529083522082518051919261045792849290910190610f6b565b5060208281015180516104709260018501920190610f6b565b506040820151805161048c916002840191602090910190610f6b565b50606082015180516104a8916003840191602090910190610f6b565b506000979650505050505050565b8151602081840181018051600482529282019482019490942091909352909152600090815260409020805481906104ec90611e08565b80601f016020809104026020016040519081016040528092919081815260200182805461051890611e08565b80156105655780601f1061053a57610100808354040283529160200191610565565b820191906000526020600020905b81548152906001019060200180831161054857829003601f168201915b50505050509080600101805461057a90611e08565b80601f01602080910402602001604051908101604052809291908181526020018280546105a690611e08565b80156105f35780601f106105c8576101008083540402835291602001916105f3565b820191906000526020600020905b8154815290600101906020018083116105d657829003601f168201915b50505050509080600201805461060890611e08565b80601f016020809104026020016040519081016040528092919081815260200182805461063490611e08565b80156106815780601f1061065657610100808354040283529160200191610681565b820191906000526020600020905b81548152906001019060200180831161066457829003601f168201915b50505050509080600301805461069690611e08565b80601f01602080910402602001604051908101604052809291908181526020018280546106c290611e08565b801561070f5780601f106106e45761010080835404028352916020019161070f565b820191906000526020600020905b8154815290600101906020018083116106f257829003601f168201915b5050505050905084565b610721610e37565b61072b6000610e91565b565b8151602081840181018051600282529282019482019490942091909352815180830184018051928152908401929093019190912091528054819061077090611e08565b80601f016020809104026020016040519081016040528092919081815260200182805461079c90611e08565b80156107e95780601f106107be576101008083540402835291602001916107e9565b820191906000526020600020905b8154815290600101906020018083116107cc57829003601f168201915b5050505050908060010180546107fe90611e08565b80601f016020809104026020016040519081016040528092919081815260200182805461082a90611e08565b80156108775780601f1061084c57610100808354040283529160200191610877565b820191906000526020600020905b81548152906001019060200180831161085a57829003601f168201915b5050506002909301549192505060ff1683565b610892610e37565b6000600386866040516108a6929190611e43565b90815260408051602092819003830190206001600160e01b0319851660009081529281905291209091506108db908585610fef565b50505050505050565b6000600285856040516108f8929190611e43565b9081526040519081900360200181206e726563656976654772656574696e6760881b825291506000908290600f01908152604051908190036020019020600281015490915060ff166109895760405162461bcd60e51b81526020600482015260156024820152741858dd1a5bdb881b9bdd081c9959da5cdd195c9959605a1b60448201526064015b60405180910390fd5b6040805160208101825260608152815160018082528184019093529091816020015b604080516060808201835280825260006020830152918101919091528152602001906001900390816109ab57505080825280516000919082906109f0576109f0611cca565b60209081029190910181015160408051808201825260088152676772656574696e6760c01b818501528252600b8284015251909250610a33918891889101611e7c565b60408051601f19818403018152918152820152610a4e611063565b88888080601f016020809104026020016040519081016040528093929190818152602001838380828437600092018290525093855250506040805160a0810182528381526020808201859052825180820184528581528284015282518082018452858152606080840191909152835191820184529481526080820152838501528051928301905250845481908690610ae590611e08565b80601f0160208091040260200160405190810160405280929190818152602001828054610b1190611e08565b8015610b5e5780601f10610b3357610100808354040283529160200191610b5e565b820191906000526020600020905b815481529060010190602001808311610b4157829003601f168201915b50505050508152602001856001018054610b7790611e08565b80601f0160208091040260200160405190810160405280929190818152602001828054610ba390611e08565b8015610bf05780601f10610bc557610100808354040283529160200191610bf0565b820191906000526020600020905b815481529060010190602001808311610bd357829003601f168201915b50505091835250506020018490526040808301919091526001549051632f260fd760e01b81526001600160a01b0390911690632f260fd790610c36908490600401611f16565b6020604051808303816000875af1158015610c55573d6000803e3d6000fd5b505050506040513d601f19601f82011682018060405250810190610c799190612047565b50505050505050505050565b81516020818401810180516003825292820194820194909420919093529091526000908152604090208054610cb990611e08565b80601f0160208091040260200160405190810160405280929190818152602001828054610ce590611e08565b8015610d325780601f10610d0757610100808354040283529160200191610d32565b820191906000526020600020905b815481529060010190602001808311610d1557829003601f168201915b505050505081565b610d42610e37565b6001600160a01b038116610da75760405162461bcd60e51b815260206004820152602660248201527f4f776e61626c653a206e6577206f776e657220697320746865207a65726f206160448201526564647265737360d01b6064820152608401610980565b610db081610e91565b50565b610dbb610e37565b600060028787604051610dcf929190611e43565b908152602001604051809103902090506000818a8a604051610df2929190611e43565b9081526040519081900360200190209050610e0e818787610fef565b50610e1d600182018585610fef565b50600201805460ff19166001179055505050505050505050565b6000546001600160a01b0316331461072b5760405162461bcd60e51b815260206004820181905260248201527f4f776e61626c653a2063616c6c6572206973206e6f7420746865206f776e65726044820152606401610980565b600080546001600160a01b038381166001600160a01b0319831681178455604051919092169283917f8be0079c531659141344cd1fd0a4f28419497f9722a3daafe3b4186f6b6457e09190a35050565b604051806101000160405280600081526020016060815260200160608152602001606081526020016060815260200160006001600160a01b0316815260200160006001600160e01b0319168152602001610f666040518060a0016040528060008152602001600060ff1681526020016060815260200160608152602001606081525090565b905290565b828054610f7790611e08565b90600052602060002090601f016020900481019282610f995760008555610fdf565b82601f10610fb257805160ff1916838001178555610fdf565b82800160010185558215610fdf579182015b82811115610fdf578251825591602001919060010190610fc4565b50610feb9291506110be565b5090565b828054610ffb90611e08565b90600052602060002090601f01602090048101928261101d5760008555610fdf565b82601f106110365782800160ff19823516178555610fdf565b82800160010185558215610fdf579182015b82811115610fdf578235825591602001919060010190611048565b604051806080016040528060608152602001606081526020016110846110d3565b8152602001610f666040518060a0016040528060008152602001600060ff1681526020016060815260200160608152602001606081525090565b5b80821115610feb57600081556001016110bf565b60405180606001604052806060815260200160608152602001610f666040518060200160405280606081525090565b60005b8381101561111d578181015183820152602001611105565b8381111561112c576000848401525b50505050565b6000815180845261114a816020860160208601611102565b601f01601f19169290920160200192915050565b634e487b7160e01b600052602160045260246000fd5b600082825180855260208086019550808260051b84010181860160005b848110156111e557601f19868403018952815160408151600a81106111b8576111b861115e565b855290850151858501829052906111d181860183611132565b9a86019a9450505090830190600101611191565b5090979650505050505050565b8051825260ff60208201511660208301526000604082015160a0604085015261121e60a0850182611132565b9050606083015184820360608601526112378282611132565b915050608083015184820360808601526112518282611132565b95945050505050565b602081528151602082015260006020830151610100806040850152611283610120850183611132565b91506040850151601f19808685030160608701526112a18483611132565b935060608701519150808685030160808701526112be8483611132565b935060808701519150808685030160a08701526112db8483611174565b935060a087015191506112f960c08701836001600160a01b03169052565b60c08701516001600160e01b0319811660e0880152915060e087015191508086850301838701525061132b83826111f2565b9695505050505050565b6001600160a01b0381168114610db057600080fd5b60006020828403121561135c57600080fd5b813561136781611335565b9392505050565b60006020828403121561138057600080fd5b81356001600160401b0381111561139657600080fd5b82016020818503121561136757600080fd5b60008083601f8401126113ba57600080fd5b5081356001600160401b038111156113d157600080fd5b6020830191508360208285010111156113e957600080fd5b9250929050565b6001600160e01b031981168114610db057600080fd5b60008060008060006060868803121561141e57600080fd5b85356001600160401b038082111561143557600080fd5b61144189838a016113a8565b909750955060208801359150611456826113f0565b9093506040870135908082111561146c57600080fd5b50611479888289016113a8565b969995985093965092949392505050565b634e487b7160e01b600052604160045260246000fd5b604080519081016001600160401b03811182821017156114c2576114c261148a565b60405290565b60405160a081016001600160401b03811182821017156114c2576114c261148a565b60405161010081016001600160401b03811182821017156114c2576114c261148a565b604051601f8201601f191681016001600160401b03811182821017156115355761153561148a565b604052919050565b60006001600160401b038211156115565761155661148a565b50601f01601f191660200190565b600082601f83011261157557600080fd5b81356115886115838261153d565b61150d565b81815284602083860101111561159d57600080fd5b816020850160208301376000918101602001919091529392505050565b600080604083850312156115cd57600080fd5b82356001600160401b038111156115e357600080fd5b6115ef85828601611564565b95602094909401359450505050565b6080815260006116116080830187611132565b82810360208401526116238187611132565b905082810360408401526116378186611132565b9050828103606084015261164b8185611132565b979650505050505050565b6000806040838503121561166957600080fd5b82356001600160401b038082111561168057600080fd5b61168c86838701611564565b935060208501359150808211156116a257600080fd5b506116af85828601611564565b9150509250929050565b6060815260006116cc6060830186611132565b82810360208401526116de8186611132565b9150508215156040830152949350505050565b60008060008060006060868803121561170957600080fd5b85356001600160401b038082111561172057600080fd5b61172c89838a016113a8565b9097509550602088013591508082111561174557600080fd5b50611752888289016113a8565b9094509250506040860135611766816113f0565b809150509295509295909350565b6000806000806040858703121561178a57600080fd5b84356001600160401b03808211156117a157600080fd5b6117ad888389016113a8565b909650945060208701359150808211156117c657600080fd5b818701915087601f8301126117da57600080fd5b8135818111156117e957600080fd5b8860208260051b85010111156117fe57600080fd5b95989497505060200194505050565b6000806040838503121561182057600080fd5b82356001600160401b0381111561183657600080fd5b61184285828601611564565b9250506020830135611853816113f0565b809150509250929050565b6020815260006113676020830184611132565b6000806000806000806000806080898b03121561188d57600080fd5b88356001600160401b03808211156118a457600080fd5b6118b08c838d016113a8565b909a50985060208b01359150808211156118c957600080fd5b6118d58c838d016113a8565b909850965060408b01359150808211156118ee57600080fd5b6118fa8c838d016113a8565b909650945060608b013591508082111561191357600080fd5b506119208b828c016113a8565b999c989b5096995094979396929594505050565b600082601f83011261194557600080fd5b81516119536115838261153d565b81815284602083860101111561196857600080fd5b611979826020830160208701611102565b949350505050565b60006001600160401b0382111561199a5761199a61148a565b5060051b60200190565b600082601f8301126119b557600080fd5b815160206119c561158383611981565b82815260059290921b840181019181810190868411156119e457600080fd5b8286015b84811015611a735780516001600160401b0380821115611a085760008081fd5b908801906040828b03601f1901811315611a225760008081fd5b611a2a6114a0565b87840151600a8110611a3c5760008081fd5b8152908301519082821115611a515760008081fd5b611a5f8c8984870101611934565b8189015286525050509183019183016119e8565b509695505050505050565b8051611a8981611335565b919050565b8051611a89816113f0565b805160ff81168114611a8957600080fd5b600060a08284031215611abc57600080fd5b611ac46114c8565b905081518152611ad660208301611a99565b602082015260408201516001600160401b0380821115611af557600080fd5b611b0185838601611934565b60408401526060840151915080821115611b1a57600080fd5b611b2685838601611934565b60608401526080840151915080821115611b3f57600080fd5b50611b4c84828501611934565b60808301525092915050565b600060208284031215611b6a57600080fd5b81516001600160401b0380821115611b8157600080fd5b908301906101008286031215611b9657600080fd5b611b9e6114ea565b82518152602083015182811115611bb457600080fd5b611bc087828601611934565b602083015250604083015182811115611bd857600080fd5b611be487828601611934565b604083015250606083015182811115611bfc57600080fd5b611c0887828601611934565b606083015250608083015182811115611c2057600080fd5b611c2c878286016119a4565b608083015250611c3e60a08401611a7e565b60a0820152611c4f60c08401611a8e565b60c082015260e083015182811115611c6657600080fd5b611c7287828601611aaa565b60e08301525095945050505050565b6000808335601e19843603018112611c9857600080fd5b8301803591506001600160401b03821115611cb257600080fd5b6020019150600581901b36038213156113e957600080fd5b634e487b7160e01b600052603260045260246000fd5b60008235605e19833603018112611cf657600080fd5b9190910192915050565b6000808335601e19843603018112611d1757600080fd5b8301803591506001600160401b03821115611d3157600080fd5b6020019150368190038213156113e957600080fd5b60006020808385031215611d5957600080fd5b82356001600160401b0380821115611d7057600080fd5b818501915085601f830112611d8457600080fd5b8135611d9261158382611981565b81815260059190911b83018401908481019088831115611db157600080fd5b8585015b83811015611de957803585811115611dcd5760008081fd5b611ddb8b89838a0101611564565b845250918601918601611db5565b5098975050505050505050565b60008251611cf6818460208701611102565b600181811c90821680611e1c57607f821691505b60208210811415611e3d57634e487b7160e01b600052602260045260246000fd5b50919050565b8183823760009101908152919050565b81835281816020850137506000828201602090810191909152601f909101601f19169091010190565b60208082528181018390526000906040600585901b8401810190840186845b87811015611f0957868403603f190183528135368a9003601e19018112611ec157600080fd5b890180356001600160401b03811115611ed957600080fd5b8036038b1315611ee857600080fd5b611ef58682898501611e53565b955050509184019190840190600101611e9b565b5091979650505050505050565b600060208083528351608082850152611f3260a0850182611132565b905081850151601f196040818785030181880152611f508484611174565b935080880151925060608288860301818901528351818652611f7482870182611132565b90508685015186820388880152611f8b8282611132565b9584015187870397850197909752505093518584528051868501819052600581901b850183019591870194908382019060005b8181101561202657838903603f1901835287518051868b52611fe2878c0182611132565b90508b82015160178110611ff857611ff861115e565b8b8d0152908701518a8203888c0152906120128183611132565b9a5050509689019691890191600101611fbe565b505050508801518785039092016080880152509250611251905081836111f2565b60006020828403121561205957600080fd5b505191905056fea2646970667358221220cc53aa3e97e5bb858b191b51b6dc953f809911493b03e0a31718e943b66b733b64736f6c634300080a0033",
  "immutableReferences": {},
  "source": "// SPDX-License-Identifier: MIT\npragma solidity >=0.8.0 <0.9.0;\n\nimport \"@openzeppelin/contracts/access/Ownable.sol\";\nimport \"./CrossChain/ContractBase.sol\";\n\nuint256 constant CALLER_NOT_CROSS_CHAIN_CONTRACT = 100;\n\n// `Greetings` is an example of multi-chain services with necessary implementations in `ContractBase`, without which the user defined contract cannot work.\n// And besides, `registerDestnContract` and `registerPermittedContract` are templete implementations make the management of some user defined informations easier.\ncontract Greetings is ContractBase {\n    // Destination contract info\n    struct DestnContract {\n        bytes contractAddress; // destination contract address\n        bytes funcName; // destination contract action name\n        bool used;\n    }\n\n    // greeting\n    struct Greeting {\n        string fromChain;\n        string title;\n        string content;\n        string date;\n    }\n\n    // Cross-chain destination contract map\n    mapping(string => mapping(string => DestnContract)) public destnContractMap;\n\n    // Cross-chain permitted contract map\n    mapping(string => mapping(bytes4 => string)) public permittedContractMap;\n\n    // Store greetings\n    mapping(string => mapping(uint256 => Greeting)) public greetings;\n\n    /**\n     * Receive greeting info from other chains\n     * @param _payload - payload which contains greeting message\n     */\n    function receiveGreeting(Payload calldata _payload) public returns (uint256) {\n        if (msg.sender != address(crossChainContract)) {\n            return CALLER_NOT_CROSS_CHAIN_CONTRACT;\n        }\n\n        // `context` used for verify the operation authority\n        SimplifiedMessage memory context = getContext();\n        // verify sqos\n        // require(context.sqos.reveal == 1, \"SQoS invalid!\");\n\n        (string[] memory _value) = abi.decode(_payload.items[0].value, (string[]));\n        Greeting memory _greeting = Greeting(_value[0], _value[1], _value[2], _value[3]);\n        greetings[context.fromChain][context.id] = _greeting;\n\n        return 0;\n    }\n\n    /**\n     * Send greeting info to other chains\n     * @param _toChain - to chain name\n     * @param _greeting - greeting sent to other chain\n     */\n    function sendGreeting(\n        string calldata _toChain,\n        string[] calldata _greeting\n    ) external {\n        mapping(string => DestnContract) storage map = destnContractMap[_toChain];\n        DestnContract storage destnContract = map[\"receiveGreeting\"];\n        require(destnContract.used, \"action not registered\");\n\n        // Construct payload\n        Payload memory data;\n        data.items = new PayloadItem[](1);\n        PayloadItem memory item = data.items[0];\n        item.name = \"greeting\";\n        item.msgType = MsgType.EvmStringArray;\n        item.value = abi.encode(_greeting);\n\n        ISentMessage memory message;\n        message.toChain = _toChain;\n        message.session = Session(0, 0, \"\", \"\", \"\");\n        message.content = Content(destnContract.contractAddress, destnContract.funcName, data);\n\n        crossChainContract.sendMessage(message);\n    }\n\n    ///////////////////////////////////////////////\n    /////    Send messages to other chains   //////\n    ///////////////////////////////////////////////\n\n    /**\n     * Register destination contract info\n     * @param _funcName - function name to be called\n     * @param _toChain - destination chain name\n     * @param _contractAddress - destination contract address\n     * @param _contractFuncName - contract function name\n     */\n    function registerDestnContract(\n        string calldata _funcName,\n        string calldata _toChain,\n        bytes calldata _contractAddress,\n        bytes calldata _contractFuncName\n    ) external onlyOwner {\n        mapping(string => DestnContract) storage map = destnContractMap[_toChain];\n        DestnContract storage destnContract = map[_funcName];\n        destnContract.contractAddress = _contractAddress;\n        destnContract.funcName = _contractFuncName;\n        destnContract.used = true;\n    }\n\n    ///////////////////////////////////////////////\n    ///    Receive messages from other chains   ///\n    ///////////////////////////////////////////////\n\n    /**\n     * Authorize contracts of other chains to call the functions of this contract\n     * @param _chainName - from chain name\n     * @param _sender - sender of cross chain message\n     * @param _funcName - action name which allowed to be invoked\n     */\n    function registerPermittedContract(\n        string calldata _chainName,\n        string calldata _sender,\n        bytes4 _funcName\n    ) external onlyOwner {\n        mapping(bytes4 => string) storage map = permittedContractMap[\n            _chainName\n        ];\n        map[_funcName] = _sender;\n    }\n\n    /**\n     * This verify method will be invoked by the CrossChain contract automatically, ensure that only registered contract(registerSourceContract) calls are allowed\n     * @param _chainName - chain name of cross chain message\n     * @param _funcName - contract action name of cross chain message\n     * @param _sender - cross chain message sender\n     */\n    //  Will be deprecated soon\n    function verify(\n        string calldata _chainName,\n        bytes4 _funcName,\n        bytes calldata _sender\n    ) public view virtual returns (bool) {\n        // mapping(bytes4 => string) storage map = permittedContractMap[\n        //     _chainName\n        // ];\n        // string storage sender = map[_funcName];\n        // require(\n        //     keccak256(bytes(sender)) == keccak256(bytes(_sender)),\n        //     \"Sender does not match\"\n        // );\n        return true;\n    }\n}\n",
  "sourcePath": "/home/george/program/dante/solidity-contract-template/contracts/Greetings.sol",
  "compiler": {
    "name": "solc",
    "version": "0.8.10+commit.fc410830.Emscripten.clang"
  },
  "schemaVersion": "3.4.6",
  "updatedAt": "2022-09-08T14:45:58.884Z",
  "networkType": "ethereum",
  "devdoc": {
    "kind": "dev",
    "methods": {
      "owner()": {
        "details": "Returns the address of the current owner."
      },
      "receiveGreeting(((string,uint8,bytes)[]))": {
        "params": {
          "_payload": "- payload which contains greeting message"
        }
      },
      "registerDestnContract(string,string,bytes,bytes)": {
        "params": {
          "_contractAddress": "- destination contract address",
          "_contractFuncName": "- contract function name",
          "_funcName": "- function name to be called",
          "_toChain": "- destination chain name"
        }
      },
      "registerPermittedContract(string,string,bytes4)": {
        "params": {
          "_chainName": "- from chain name",
          "_funcName": "- action name which allowed to be invoked",
          "_sender": "- sender of cross chain message"
        }
      },
      "renounceOwnership()": {
        "details": "Leaves the contract without owner. It will not be possible to call `onlyOwner` functions anymore. Can only be called by the current owner. NOTE: Renouncing ownership will leave the contract without an owner, thereby removing any functionality that is only available to the owner."
      },
      "sendGreeting(string,string[])": {
        "params": {
          "_greeting": "- greeting sent to other chain",
          "_toChain": "- to chain name"
        }
      },
      "setCrossChainContract(address)": {
        "params": {
          "_address": "- cross chain contract address"
        }
      },
      "transferOwnership(address)": {
        "details": "Transfers ownership of the contract to a new account (`newOwner`). Can only be called by the current owner."
      },
      "verify(string,bytes4,bytes)": {
        "params": {
          "_chainName": "- chain name of cross chain message",
          "_funcName": "- contract action name of cross chain message",
          "_sender": "- cross chain message sender"
        }
      }
    },
    "version": 1
  },
  "userdoc": {
    "kind": "user",
    "methods": {
      "receiveGreeting(((string,uint8,bytes)[]))": {
        "notice": "Receive greeting info from other chains"
      },
      "registerDestnContract(string,string,bytes,bytes)": {
        "notice": "Register destination contract info"
      },
      "registerPermittedContract(string,string,bytes4)": {
        "notice": "Authorize contracts of other chains to call the functions of this contract"
      },
      "sendGreeting(string,string[])": {
        "notice": "Send greeting info to other chains"
      },
      "setCrossChainContract(address)": {
        "notice": "Set cross chain contract"
      },
      "verify(string,bytes4,bytes)": {
        "notice": "This verify method will be invoked by the CrossChain contract automatically, ensure that only registered contract(registerSourceContract) calls are allowed"
      }
    },
    "version": 1
  }
}