{
  "contractName": "Greetings",
  "abi": [
    {
      "anonymous": false,
      "inputs": [
        {
          "indexed": true,
          "internalType": "address",
          "name": "previousOwner",
          "type": "address"
        },
        {
          "indexed": true,
          "internalType": "address",
          "name": "newOwner",
          "type": "address"
        }
      ],
      "name": "OwnershipTransferred",
      "type": "event"
    },
    {
      "inputs": [],
      "name": "crossChainContract",
      "outputs": [
        {
          "internalType": "contract ICrossChain",
          "name": "",
          "type": "address"
        }
      ],
      "stateMutability": "view",
      "type": "function",
      "constant": true
    },
    {
      "inputs": [
        {
          "internalType": "string",
          "name": "",
          "type": "string"
        },
        {
          "internalType": "string",
          "name": "",
          "type": "string"
        }
      ],
      "name": "destnContractMap",
      "outputs": [
        {
          "internalType": "bytes",
          "name": "contractAddress",
          "type": "bytes"
        },
        {
          "internalType": "bytes",
          "name": "funcName",
          "type": "bytes"
        },
        {
          "internalType": "bool",
          "name": "used",
          "type": "bool"
        }
      ],
      "stateMutability": "view",
      "type": "function",
      "constant": true
    },
    {
      "inputs": [],
      "name": "getContext",
      "outputs": [
        {
          "components": [
            {
              "internalType": "uint256",
              "name": "id",
              "type": "uint256"
            },
            {
              "internalType": "string",
              "name": "fromChain",
              "type": "string"
            },
            {
              "internalType": "bytes",
              "name": "sender",
              "type": "bytes"
            },
            {
              "internalType": "bytes",
              "name": "signer",
              "type": "bytes"
            },
            {
              "components": [
                {
                  "internalType": "enum SQoSType",
                  "name": "t",
                  "type": "uint8"
                },
                {
                  "internalType": "bytes",
                  "name": "v",
                  "type": "bytes"
                }
              ],
              "internalType": "struct SQoS[]",
              "name": "sqos",
              "type": "tuple[]"
            },
            {
              "internalType": "address",
              "name": "contractAddress",
              "type": "address"
            },
            {
              "internalType": "bytes4",
              "name": "action",
              "type": "bytes4"
            },
            {
              "components": [
                {
                  "internalType": "uint256",
                  "name": "id",
                  "type": "uint256"
                },
                {
                  "internalType": "bytes",
                  "name": "callback",
                  "type": "bytes"
                }
              ],
              "internalType": "struct Session",
              "name": "session",
              "type": "tuple"
            }
          ],
          "internalType": "struct SimplifiedMessage",
          "name": "",
          "type": "tuple"
        }
      ],
      "stateMutability": "view",
      "type": "function",
      "constant": true
    },
    {
      "inputs": [
        {
          "internalType": "string",
          "name": "",
          "type": "string"
        },
        {
          "internalType": "uint256",
          "name": "",
          "type": "uint256"
        }
      ],
      "name": "greetings",
      "outputs": [
        {
          "internalType": "string",
          "name": "fromChain",
          "type": "string"
        },
        {
          "internalType": "string",
          "name": "title",
          "type": "string"
        },
        {
          "internalType": "string",
          "name": "content",
          "type": "string"
        },
        {
          "internalType": "string",
          "name": "date",
          "type": "string"
        }
      ],
      "stateMutability": "view",
      "type": "function",
      "constant": true
    },
    {
      "inputs": [],
      "name": "owner",
      "outputs": [
        {
          "internalType": "address",
          "name": "",
          "type": "address"
        }
      ],
      "stateMutability": "view",
      "type": "function",
      "constant": true
    },
    {
      "inputs": [
        {
          "internalType": "string",
          "name": "",
          "type": "string"
        },
        {
          "internalType": "bytes4",
          "name": "",
          "type": "bytes4"
        }
      ],
      "name": "permittedContractMap",
      "outputs": [
        {
          "internalType": "string",
          "name": "",
          "type": "string"
        }
      ],
      "stateMutability": "view",
      "type": "function",
      "constant": true
    },
    {
      "inputs": [],
      "name": "renounceOwnership",
      "outputs": [],
      "stateMutability": "nonpayable",
      "type": "function"
    },
    {
      "inputs": [
        {
          "internalType": "address",
          "name": "_address",
          "type": "address"
        }
      ],
      "name": "setCrossChainContract",
      "outputs": [],
      "stateMutability": "nonpayable",
      "type": "function"
    },
    {
      "inputs": [
        {
          "internalType": "address",
          "name": "newOwner",
          "type": "address"
        }
      ],
      "name": "transferOwnership",
      "outputs": [],
      "stateMutability": "nonpayable",
      "type": "function"
    },
    {
      "inputs": [
        {
          "components": [
            {
              "components": [
                {
                  "internalType": "string",
                  "name": "name",
                  "type": "string"
                },
                {
                  "internalType": "enum MsgType",
                  "name": "msgType",
                  "type": "uint8"
                },
                {
                  "internalType": "bytes",
                  "name": "value",
                  "type": "bytes"
                }
              ],
              "internalType": "struct PayloadItem[]",
              "name": "items",
              "type": "tuple[]"
            }
          ],
          "internalType": "struct Payload",
          "name": "_payload",
          "type": "tuple"
        }
      ],
      "name": "receiveGreeting",
      "outputs": [
        {
          "internalType": "uint256",
          "name": "",
          "type": "uint256"
        }
      ],
      "stateMutability": "nonpayable",
      "type": "function"
    },
    {
      "inputs": [
        {
          "internalType": "string",
          "name": "_toChain",
          "type": "string"
        },
        {
          "internalType": "string[]",
          "name": "_greeting",
          "type": "string[]"
        }
      ],
      "name": "sendGreeting",
      "outputs": [],
      "stateMutability": "nonpayable",
      "type": "function"
    },
    {
      "inputs": [
        {
          "internalType": "string",
          "name": "_funcName",
          "type": "string"
        },
        {
          "internalType": "string",
          "name": "_toChain",
          "type": "string"
        },
        {
          "internalType": "bytes",
          "name": "_contractAddress",
          "type": "bytes"
        },
        {
          "internalType": "bytes",
          "name": "_contractFuncName",
          "type": "bytes"
        }
      ],
      "name": "registerDestnContract",
      "outputs": [],
      "stateMutability": "nonpayable",
      "type": "function"
    },
    {
      "inputs": [
        {
          "internalType": "string",
          "name": "_chainName",
          "type": "string"
        },
        {
          "internalType": "string",
          "name": "_sender",
          "type": "string"
        },
        {
          "internalType": "bytes4",
          "name": "_funcName",
          "type": "bytes4"
        }
      ],
      "name": "registerPermittedContract",
      "outputs": [],
      "stateMutability": "nonpayable",
      "type": "function"
    },
    {
      "inputs": [
        {
          "internalType": "string",
          "name": "_chainName",
          "type": "string"
        },
        {
          "internalType": "bytes4",
          "name": "_funcName",
          "type": "bytes4"
        },
        {
          "internalType": "bytes",
          "name": "_sender",
          "type": "bytes"
        }
      ],
      "name": "verify",
      "outputs": [
        {
          "internalType": "bool",
          "name": "",
          "type": "bool"
        }
      ],
      "stateMutability": "view",
      "type": "function",
      "constant": true
    }
  ],
  "bytecode": "0x608060405234801561001057600080fd5b5061001a3361001f565b61006f565b600080546001600160a01b038381166001600160a01b0319831681178455604051919092169283917f8be0079c531659141344cd1fd0a4f28419497f9722a3daafe3b4186f6b6457e09190a35050565b611ffe8061007e6000396000f3fe608060405234801561001057600080fd5b50600436106100ea5760003560e01c8063856444151161008c578063c5f200ed11610066578063c5f200ed14610204578063dbc90de114610224578063f2fde38b14610237578063f50db5071461024a57600080fd5b806385644415146101b95780638da5cb5b146101cc578063bd0bbc47146101f157600080fd5b80634944e686116100c85780634944e686146101435780636ec039f41461016c578063715018a61461018f57806380899bba1461019757600080fd5b8063127f0f07146100ef57806318d72b541461010d5780632d43682214610122575b600080fd5b6100f761025d565b604051610104919061121c565b60405180910390f35b61012061011b36600461130c565b6102e5565b005b610135610130366004611330565b61033a565b604051908152602001610104565b61015c6101513660046113c8565b600195945050505050565b6040519015158152602001610104565b61017f61017a36600461155a565b6104e1565b604051610104949392919061159e565b610120610744565b6101aa6101a53660046115f6565b61077a565b60405161010493929190611659565b6101206101c7366004611691565b6108d7565b6000546001600160a01b03165b6040516001600160a01b039091168152602001610104565b6101206101ff366004611714565b610953565b6102176102123660046117ad565b610cce565b60405161010491906117fe565b6001546101d9906001600160a01b031681565b61012061024536600461130c565b610d83565b610120610258366004611811565b610e1e565b610265610f14565b600160009054906101000a90046001600160a01b03166001600160a01b0316639af7a48c6040518163ffffffff1660e01b8152600401600060405180830381865afa1580156102b8573d6000803e3d6000fd5b505050506040513d6000823e601f3d908101601f191682016040526102e09190810190611a82565b905090565b6000546001600160a01b031633146103185760405162461bcd60e51b815260040161030f90611bab565b60405180910390fd5b600180546001600160a01b0319166001600160a01b0392909216919091179055565b6001546000906001600160a01b0316331461035757506064919050565b600061036161025d565b9050600061036f8480611be0565b600081811061038057610380611c29565b90506020028101906103929190611c3f565b6103a0906040810190611c5f565b8101906103ad9190611ca5565b905060006040518060800160405280836000815181106103cf576103cf611c29565b60200260200101518152602001836001815181106103ef576103ef611c29565b602002602001015181526020018360028151811061040f5761040f611c29565b602002602001015181526020018360038151811061042f5761042f611c29565b6020026020010151815250905080600484602001516040516104519190611d55565b9081526040805160209281900383019020865160009081529083522082518051919261048292849290910190610f86565b50602082810151805161049b9260018501920190610f86565b50604082015180516104b7916002840191602090910190610f86565b50606082015180516104d3916003840191602090910190610f86565b506000979650505050505050565b81516020818401810180516004825292820194820194909420919093529091526000908152604090208054819061051790611d67565b80601f016020809104026020016040519081016040528092919081815260200182805461054390611d67565b80156105905780601f1061056557610100808354040283529160200191610590565b820191906000526020600020905b81548152906001019060200180831161057357829003601f168201915b5050505050908060010180546105a590611d67565b80601f01602080910402602001604051908101604052809291908181526020018280546105d190611d67565b801561061e5780601f106105f35761010080835404028352916020019161061e565b820191906000526020600020905b81548152906001019060200180831161060157829003601f168201915b50505050509080600201805461063390611d67565b80601f016020809104026020016040519081016040528092919081815260200182805461065f90611d67565b80156106ac5780601f10610681576101008083540402835291602001916106ac565b820191906000526020600020905b81548152906001019060200180831161068f57829003601f168201915b5050505050908060030180546106c190611d67565b80601f01602080910402602001604051908101604052809291908181526020018280546106ed90611d67565b801561073a5780601f1061070f5761010080835404028352916020019161073a565b820191906000526020600020905b81548152906001019060200180831161071d57829003601f168201915b5050505050905084565b6000546001600160a01b0316331461076e5760405162461bcd60e51b815260040161030f90611bab565b6107786000610ec4565b565b815160208184018101805160028252928201948201949094209190935281518083018401805192815290840192909301919091209152805481906107bd90611d67565b80601f01602080910402602001604051908101604052809291908181526020018280546107e990611d67565b80156108365780601f1061080b57610100808354040283529160200191610836565b820191906000526020600020905b81548152906001019060200180831161081957829003601f168201915b50505050509080600101805461084b90611d67565b80601f016020809104026020016040519081016040528092919081815260200182805461087790611d67565b80156108c45780601f10610899576101008083540402835291602001916108c4565b820191906000526020600020905b8154815290600101906020018083116108a757829003601f168201915b5050506002909301549192505060ff1683565b6000546001600160a01b031633146109015760405162461bcd60e51b815260040161030f90611bab565b600060038686604051610915929190611da2565b90815260408051602092819003830190206001600160e01b03198516600090815292819052912090915061094a90858561100a565b50505050505050565b600060028585604051610967929190611da2565b9081526040519081900360200181206e726563656976654772656574696e6760881b825291506000908290600f01908152604051908190036020019020600281015490915060ff166109f35760405162461bcd60e51b81526020600482015260156024820152741858dd1a5bdb881b9bdd081c9959da5cdd195c9959605a1b604482015260640161030f565b6040805160208101825260608152815160018082528184019093529091816020015b60408051606080820183528082526000602083015291810191909152815260200190600190039081610a155750508082528051600091908290610a5a57610a5a611c29565b60209081029190910181015160408051808201825260088152676772656574696e6760c01b818501528252600b8284015251909250610a9d918891889101611ddb565b60408051601f19818403018152918152820152610ab861107e565b88888080601f01602080910402602001604051908101604052809392919081815260200183838082843760009201829052509385525050604080518082018252838152815160208181018452948152938101939093526060808501939093528051928301905250845481908690610b2e90611d67565b80601f0160208091040260200160405190810160405280929190818152602001828054610b5a90611d67565b8015610ba75780601f10610b7c57610100808354040283529160200191610ba7565b820191906000526020600020905b815481529060010190602001808311610b8a57829003601f168201915b50505050508152602001856001018054610bc090611d67565b80601f0160208091040260200160405190810160405280929190818152602001828054610bec90611d67565b8015610c395780601f10610c0e57610100808354040283529160200191610c39565b820191906000526020600020905b815481529060010190602001808311610c1c57829003601f168201915b50505091835250506020018490526040808301919091526001549051633ee690e560e21b81526001600160a01b039091169063fb9a439490610c7f908490600401611e75565b6020604051808303816000875af1158015610c9e573d6000803e3d6000fd5b505050506040513d601f19601f82011682018060405250810190610cc29190611faf565b50505050505050505050565b81516020818401810180516003825292820194820194909420919093529091526000908152604090208054610d0290611d67565b80601f0160208091040260200160405190810160405280929190818152602001828054610d2e90611d67565b8015610d7b5780601f10610d5057610100808354040283529160200191610d7b565b820191906000526020600020905b815481529060010190602001808311610d5e57829003601f168201915b505050505081565b6000546001600160a01b03163314610dad5760405162461bcd60e51b815260040161030f90611bab565b6001600160a01b038116610e125760405162461bcd60e51b815260206004820152602660248201527f4f776e61626c653a206e6577206f776e657220697320746865207a65726f206160448201526564647265737360d01b606482015260840161030f565b610e1b81610ec4565b50565b6000546001600160a01b03163314610e485760405162461bcd60e51b815260040161030f90611bab565b600060028787604051610e5c929190611da2565b908152602001604051809103902090506000818a8a604051610e7f929190611da2565b9081526040519081900360200190209050610e9b81878761100a565b50610eaa60018201858561100a565b50600201805460ff19166001179055505050505050505050565b600080546001600160a01b038381166001600160a01b0319831681178455604051919092169283917f8be0079c531659141344cd1fd0a4f28419497f9722a3daafe3b4186f6b6457e09190a35050565b604051806101000160405280600081526020016060815260200160608152602001606081526020016060815260200160006001600160a01b0316815260200160006001600160e01b0319168152602001610f81604051806040016040528060008152602001606081525090565b905290565b828054610f9290611d67565b90600052602060002090601f016020900481019282610fb45760008555610ffa565b82601f10610fcd57805160ff1916838001178555610ffa565b82800160010185558215610ffa579182015b82811115610ffa578251825591602001919060010190610fdf565b506110069291506110c1565b5090565b82805461101690611d67565b90600052602060002090601f0160209004810192826110385760008555610ffa565b82601f106110515782800160ff19823516178555610ffa565b82800160010185558215610ffa579182015b82811115610ffa578235825591602001919060010190611063565b6040518060800160405280606081526020016060815260200161109f6110d6565b8152602001610f81604051806040016040528060008152602001606081525090565b5b8082111561100657600081556001016110c2565b60405180606001604052806060815260200160608152602001610f816040518060200160405280606081525090565b60005b83811015611120578181015183820152602001611108565b8381111561112f576000848401525b50505050565b6000815180845261114d816020860160208601611105565b601f01601f19169290920160200192915050565b634e487b7160e01b600052602160045260246000fd5b600082825180855260208086019550808260051b84010181860160005b848110156111e857601f19868403018952815160408151600981106111bb576111bb611161565b855290850151858501829052906111d481860183611135565b9a86019a9450505090830190600101611194565b5090979650505050505050565b8051825260006020820151604060208501526112146040850182611135565b949350505050565b602081528151602082015260006020830151610100806040850152611245610120850183611135565b91506040850151601f19808685030160608701526112638483611135565b935060608701519150808685030160808701526112808483611135565b935060808701519150808685030160a087015261129d8483611177565b935060a087015191506112bb60c08701836001600160a01b03169052565b60c08701516001600160e01b0319811660e0880152915060e08701519150808685030183870152506112ed83826111f5565b9695505050505050565b6001600160a01b0381168114610e1b57600080fd5b60006020828403121561131e57600080fd5b8135611329816112f7565b9392505050565b60006020828403121561134257600080fd5b81356001600160401b0381111561135857600080fd5b82016020818503121561132957600080fd5b60008083601f84011261137c57600080fd5b5081356001600160401b0381111561139357600080fd5b6020830191508360208285010111156113ab57600080fd5b9250929050565b6001600160e01b031981168114610e1b57600080fd5b6000806000806000606086880312156113e057600080fd5b85356001600160401b03808211156113f757600080fd5b61140389838a0161136a565b909750955060208801359150611418826113b2565b9093506040870135908082111561142e57600080fd5b5061143b8882890161136a565b969995985093965092949392505050565b634e487b7160e01b600052604160045260246000fd5b604080519081016001600160401b03811182821017156114845761148461144c565b60405290565b60405161010081016001600160401b03811182821017156114845761148461144c565b604051601f8201601f191681016001600160401b03811182821017156114d5576114d561144c565b604052919050565b60006001600160401b038211156114f6576114f661144c565b50601f01601f191660200190565b600082601f83011261151557600080fd5b8135611528611523826114dd565b6114ad565b81815284602083860101111561153d57600080fd5b816020850160208301376000918101602001919091529392505050565b6000806040838503121561156d57600080fd5b82356001600160401b0381111561158357600080fd5b61158f85828601611504565b95602094909401359450505050565b6080815260006115b16080830187611135565b82810360208401526115c38187611135565b905082810360408401526115d78186611135565b905082810360608401526115eb8185611135565b979650505050505050565b6000806040838503121561160957600080fd5b82356001600160401b038082111561162057600080fd5b61162c86838701611504565b9350602085013591508082111561164257600080fd5b5061164f85828601611504565b9150509250929050565b60608152600061166c6060830186611135565b828103602084015261167e8186611135565b9150508215156040830152949350505050565b6000806000806000606086880312156116a957600080fd5b85356001600160401b03808211156116c057600080fd5b6116cc89838a0161136a565b909750955060208801359150808211156116e557600080fd5b506116f28882890161136a565b9094509250506040860135611706816113b2565b809150509295509295909350565b6000806000806040858703121561172a57600080fd5b84356001600160401b038082111561174157600080fd5b61174d8883890161136a565b9096509450602087013591508082111561176657600080fd5b818701915087601f83011261177a57600080fd5b81358181111561178957600080fd5b8860208260051b850101111561179e57600080fd5b95989497505060200194505050565b600080604083850312156117c057600080fd5b82356001600160401b038111156117d657600080fd5b6117e285828601611504565b92505060208301356117f3816113b2565b809150509250929050565b6020815260006113296020830184611135565b6000806000806000806000806080898b03121561182d57600080fd5b88356001600160401b038082111561184457600080fd5b6118508c838d0161136a565b909a50985060208b013591508082111561186957600080fd5b6118758c838d0161136a565b909850965060408b013591508082111561188e57600080fd5b61189a8c838d0161136a565b909650945060608b01359150808211156118b357600080fd5b506118c08b828c0161136a565b999c989b5096995094979396929594505050565b600082601f8301126118e557600080fd5b81516118f3611523826114dd565b81815284602083860101111561190857600080fd5b611214826020830160208701611105565b60006001600160401b038211156119325761193261144c565b5060051b60200190565b600082601f83011261194d57600080fd5b8151602061195d61152383611919565b82815260059290921b8401810191818101908684111561197c57600080fd5b8286015b84811015611a0b5780516001600160401b03808211156119a05760008081fd5b908801906040828b03601f19018113156119ba5760008081fd5b6119c2611462565b87840151600981106119d45760008081fd5b81529083015190828211156119e95760008081fd5b6119f78c89848701016118d4565b818901528652505050918301918301611980565b509695505050505050565b8051611a21816112f7565b919050565b8051611a21816113b2565b600060408284031215611a4357600080fd5b611a4b611462565b90508151815260208201516001600160401b03811115611a6a57600080fd5b611a76848285016118d4565b60208301525092915050565b600060208284031215611a9457600080fd5b81516001600160401b0380821115611aab57600080fd5b908301906101008286031215611ac057600080fd5b611ac861148a565b82518152602083015182811115611ade57600080fd5b611aea878286016118d4565b602083015250604083015182811115611b0257600080fd5b611b0e878286016118d4565b604083015250606083015182811115611b2657600080fd5b611b32878286016118d4565b606083015250608083015182811115611b4a57600080fd5b611b568782860161193c565b608083015250611b6860a08401611a16565b60a0820152611b7960c08401611a26565b60c082015260e083015182811115611b9057600080fd5b611b9c87828601611a31565b60e08301525095945050505050565b6020808252818101527f4f776e61626c653a2063616c6c6572206973206e6f7420746865206f776e6572604082015260600190565b6000808335601e19843603018112611bf757600080fd5b8301803591506001600160401b03821115611c1157600080fd5b6020019150600581901b36038213156113ab57600080fd5b634e487b7160e01b600052603260045260246000fd5b60008235605e19833603018112611c5557600080fd5b9190910192915050565b6000808335601e19843603018112611c7657600080fd5b8301803591506001600160401b03821115611c9057600080fd5b6020019150368190038213156113ab57600080fd5b60006020808385031215611cb857600080fd5b82356001600160401b0380821115611ccf57600080fd5b818501915085601f830112611ce357600080fd5b8135611cf161152382611919565b81815260059190911b83018401908481019088831115611d1057600080fd5b8585015b83811015611d4857803585811115611d2c5760008081fd5b611d3a8b89838a0101611504565b845250918601918601611d14565b5098975050505050505050565b60008251611c55818460208701611105565b600181811c90821680611d7b57607f821691505b60208210811415611d9c57634e487b7160e01b600052602260045260246000fd5b50919050565b8183823760009101908152919050565b81835281816020850137506000828201602090810191909152601f909101601f19169091010190565b60208082528181018390526000906040600585901b8401810190840186845b87811015611e6857868403603f190183528135368a9003601e19018112611e2057600080fd5b890180356001600160401b03811115611e3857600080fd5b8036038b1315611e4757600080fd5b611e548682898501611db2565b955050509184019190840190600101611dfa565b5091979650505050505050565b600060208083528351608082850152611e9160a0850182611135565b905081850151601f196040818785030181880152611eaf8484611177565b935080880151925060608288860301818901528351818652611ed382870182611135565b90508685015186820388880152611eea8282611135565b9584015187870397850197909752505093518584528051868501819052600581901b850183019591870194908382019060005b81811015611f8557838903603f1901835287518051868b52611f41878c0182611135565b90508b82015160178110611f5757611f57611161565b8b8d0152908701518a8203888c015290611f718183611135565b9a5050509689019691890191600101611f1d565b505050508801518785039092016080880152509250611fa6905081836111f5565b95945050505050565b600060208284031215611fc157600080fd5b505191905056fea264697066735822122000b1c4f773e91764f2d7a851cea32fedf6954b1b8dc8099a76e36c30504f311964736f6c634300080a0033",
  "immutableReferences": {},
  "source": "// SPDX-License-Identifier: MIT\npragma solidity >=0.8.0 <0.9.0;\n\nimport \"@openzeppelin/contracts/access/Ownable.sol\";\nimport \"./CrossChain/ContractBase.sol\";\n\nuint256 constant CALLER_NOT_CROSS_CHAIN_CONTRACT = 100;\n\n// `Greetings` is an example of multi-chain services with necessary implementations in `ContractBase`, without which the user defined contract cannot work.\n// And besides, `registerDestnContract` and `registerPermittedContract` are templete implementations make the management of some user defined informations easier.\ncontract Greetings is ContractBase {\n    // Destination contract info\n    struct DestnContract {\n        bytes contractAddress; // destination contract address\n        bytes funcName; // destination contract action name\n        bool used;\n    }\n\n    // greeting\n    struct Greeting {\n        string fromChain;\n        string title;\n        string content;\n        string date;\n    }\n\n    // Cross-chain destination contract map\n    mapping(string => mapping(string => DestnContract)) public destnContractMap;\n\n    // Cross-chain permitted contract map\n    mapping(string => mapping(bytes4 => string)) public permittedContractMap;\n\n    // Store greetings\n    mapping(string => mapping(uint256 => Greeting)) public greetings;\n\n    /**\n     * Receive greeting info from other chains\n     * @param _payload - payload which contains greeting message\n     */\n    function receiveGreeting(Payload calldata _payload) public returns (uint256) {\n        if (msg.sender != address(crossChainContract)) {\n            return CALLER_NOT_CROSS_CHAIN_CONTRACT;\n        }\n\n        // `context` used for verify the operation authority\n        SimplifiedMessage memory context = getContext();\n        // verify sqos\n        // require(context.sqos.reveal == 1, \"SQoS invalid!\");\n\n        (string[] memory _value) = abi.decode(_payload.items[0].value, (string[]));\n        Greeting memory _greeting = Greeting(_value[0], _value[1], _value[2], _value[3]);\n        greetings[context.fromChain][context.id] = _greeting;\n\n        return 0;\n    }\n\n    /**\n     * Send greeting info to other chains\n     * @param _toChain - to chain name\n     * @param _greeting - greeting sent to other chain\n     */\n    function sendGreeting(\n        string calldata _toChain,\n        string[] calldata _greeting\n    ) external {\n        mapping(string => DestnContract) storage map = destnContractMap[_toChain];\n        DestnContract storage destnContract = map[\"receiveGreeting\"];\n        require(destnContract.used, \"action not registered\");\n\n        // Construct payload\n        Payload memory data;\n        data.items = new PayloadItem[](1);\n        PayloadItem memory item = data.items[0];\n        item.name = \"greeting\";\n        item.msgType = MsgType.EvmStringArray;\n        item.value = abi.encode(_greeting);\n\n        ISentMessage memory message;\n        message.toChain = _toChain;\n        message.session = Session(0, \"\");\n        message.content = Content(destnContract.contractAddress, destnContract.funcName, data);\n\n        crossChainContract.sendMessage(message);\n    }\n\n    ///////////////////////////////////////////////\n    /////    Send messages to other chains   //////\n    ///////////////////////////////////////////////\n\n    /**\n     * Register destination contract info\n     * @param _funcName - function name to be called\n     * @param _toChain - destination chain name\n     * @param _contractAddress - destination contract address\n     * @param _contractFuncName - contract function name\n     */\n    function registerDestnContract(\n        string calldata _funcName,\n        string calldata _toChain,\n        bytes calldata _contractAddress,\n        bytes calldata _contractFuncName\n    ) external onlyOwner {\n        mapping(string => DestnContract) storage map = destnContractMap[_toChain];\n        DestnContract storage destnContract = map[_funcName];\n        destnContract.contractAddress = _contractAddress;\n        destnContract.funcName = _contractFuncName;\n        destnContract.used = true;\n    }\n\n    ///////////////////////////////////////////////\n    ///    Receive messages from other chains   ///\n    ///////////////////////////////////////////////\n\n    /**\n     * Authorize contracts of other chains to call the functions of this contract\n     * @param _chainName - from chain name\n     * @param _sender - sender of cross chain message\n     * @param _funcName - action name which allowed to be invoked\n     */\n    function registerPermittedContract(\n        string calldata _chainName,\n        string calldata _sender,\n        bytes4 _funcName\n    ) external onlyOwner {\n        mapping(bytes4 => string) storage map = permittedContractMap[\n            _chainName\n        ];\n        map[_funcName] = _sender;\n    }\n\n    /**\n     * This verify method will be invoked by the CrossChain contract automatically, ensure that only registered contract(registerSourceContract) calls are allowed\n     * @param _chainName - chain name of cross chain message\n     * @param _funcName - contract action name of cross chain message\n     * @param _sender - cross chain message sender\n     */\n    //  Will be deprecated soon\n    function verify(\n        string calldata _chainName,\n        bytes4 _funcName,\n        bytes calldata _sender\n    ) public view virtual returns (bool) {\n        // mapping(bytes4 => string) storage map = permittedContractMap[\n        //     _chainName\n        // ];\n        // string storage sender = map[_funcName];\n        // require(\n        //     keccak256(bytes(sender)) == keccak256(bytes(_sender)),\n        //     \"Sender does not match\"\n        // );\n        return true;\n    }\n}\n",
  "sourcePath": "/home/george/program/dante/solidity-contract-template/contracts/Greetings.sol",
  "compiler": {
    "name": "solc",
    "version": "0.8.10+commit.fc410830.Emscripten.clang"
  },
  "schemaVersion": "3.4.6",
  "updatedAt": "2022-08-18T06:24:47.650Z",
  "networkType": "ethereum",
  "devdoc": {
    "kind": "dev",
    "methods": {
      "owner()": {
        "details": "Returns the address of the current owner."
      },
      "receiveGreeting(((string,uint8,bytes)[]))": {
        "params": {
          "_payload": "- payload which contains greeting message"
        }
      },
      "registerDestnContract(string,string,bytes,bytes)": {
        "params": {
          "_contractAddress": "- destination contract address",
          "_contractFuncName": "- contract function name",
          "_funcName": "- function name to be called",
          "_toChain": "- destination chain name"
        }
      },
      "registerPermittedContract(string,string,bytes4)": {
        "params": {
          "_chainName": "- from chain name",
          "_funcName": "- action name which allowed to be invoked",
          "_sender": "- sender of cross chain message"
        }
      },
      "renounceOwnership()": {
        "details": "Leaves the contract without owner. It will not be possible to call `onlyOwner` functions anymore. Can only be called by the current owner. NOTE: Renouncing ownership will leave the contract without an owner, thereby removing any functionality that is only available to the owner."
      },
      "sendGreeting(string,string[])": {
        "params": {
          "_greeting": "- greeting sent to other chain",
          "_toChain": "- to chain name"
        }
      },
      "setCrossChainContract(address)": {
        "params": {
          "_address": "- cross chain contract address"
        }
      },
      "transferOwnership(address)": {
        "details": "Transfers ownership of the contract to a new account (`newOwner`). Can only be called by the current owner."
      },
      "verify(string,bytes4,bytes)": {
        "params": {
          "_chainName": "- chain name of cross chain message",
          "_funcName": "- contract action name of cross chain message",
          "_sender": "- cross chain message sender"
        }
      }
    },
    "version": 1
  },
  "userdoc": {
    "kind": "user",
    "methods": {
      "receiveGreeting(((string,uint8,bytes)[]))": {
        "notice": "Receive greeting info from other chains"
      },
      "registerDestnContract(string,string,bytes,bytes)": {
        "notice": "Register destination contract info"
      },
      "registerPermittedContract(string,string,bytes4)": {
        "notice": "Authorize contracts of other chains to call the functions of this contract"
      },
      "sendGreeting(string,string[])": {
        "notice": "Send greeting info to other chains"
      },
      "setCrossChainContract(address)": {
        "notice": "Set cross chain contract"
      },
      "verify(string,bytes4,bytes)": {
        "notice": "This verify method will be invoked by the CrossChain contract automatically, ensure that only registered contract(registerSourceContract) calls are allowed"
      }
    },
    "version": 1
  }
}