{
  "contractName": "OCComputing",
  "abi": [
    {
      "anonymous": false,
      "inputs": [
        {
          "indexed": true,
          "internalType": "address",
          "name": "previousOwner",
          "type": "address"
        },
        {
          "indexed": true,
          "internalType": "address",
          "name": "newOwner",
          "type": "address"
        }
      ],
      "name": "OwnershipTransferred",
      "type": "event"
    },
    {
      "inputs": [
        {
          "internalType": "bytes32",
          "name": "",
          "type": "bytes32"
        }
      ],
      "name": "callbackAbis",
      "outputs": [
        {
          "internalType": "string",
          "name": "",
          "type": "string"
        }
      ],
      "stateMutability": "view",
      "type": "function",
      "constant": true
    },
    {
      "inputs": [],
      "name": "crossChainContract",
      "outputs": [
        {
          "internalType": "contract ICrossChain",
          "name": "",
          "type": "address"
        }
      ],
      "stateMutability": "view",
      "type": "function",
      "constant": true
    },
    {
      "inputs": [
        {
          "internalType": "string",
          "name": "",
          "type": "string"
        },
        {
          "internalType": "string",
          "name": "",
          "type": "string"
        }
      ],
      "name": "destnContractMap",
      "outputs": [
        {
          "internalType": "bytes",
          "name": "contractAddress",
          "type": "bytes"
        },
        {
          "internalType": "bytes",
          "name": "funcName",
          "type": "bytes"
        },
        {
          "internalType": "bool",
          "name": "used",
          "type": "bool"
        }
      ],
      "stateMutability": "view",
      "type": "function",
      "constant": true
    },
    {
      "inputs": [],
      "name": "getContext",
      "outputs": [
        {
          "components": [
            {
              "internalType": "uint256",
              "name": "id",
              "type": "uint256"
            },
            {
              "internalType": "string",
              "name": "fromChain",
              "type": "string"
            },
            {
              "internalType": "bytes",
              "name": "sender",
              "type": "bytes"
            },
            {
              "internalType": "bytes",
              "name": "signer",
              "type": "bytes"
            },
            {
              "components": [
                {
                  "internalType": "enum SQoSType",
                  "name": "t",
                  "type": "uint8"
                },
                {
                  "internalType": "bytes",
                  "name": "v",
                  "type": "bytes"
                }
              ],
              "internalType": "struct SQoS[]",
              "name": "sqos",
              "type": "tuple[]"
            },
            {
              "internalType": "address",
              "name": "contractAddress",
              "type": "address"
            },
            {
              "internalType": "bytes4",
              "name": "action",
              "type": "bytes4"
            },
            {
              "components": [
                {
                  "internalType": "uint256",
                  "name": "id",
                  "type": "uint256"
                },
                {
                  "internalType": "uint8",
                  "name": "sessionType",
                  "type": "uint8"
                },
                {
                  "internalType": "bytes",
                  "name": "callback",
                  "type": "bytes"
                },
                {
                  "internalType": "bytes",
                  "name": "commitment",
                  "type": "bytes"
                },
                {
                  "internalType": "bytes",
                  "name": "answer",
                  "type": "bytes"
                }
              ],
              "internalType": "struct Session",
              "name": "session",
              "type": "tuple"
            }
          ],
          "internalType": "struct SimplifiedMessage",
          "name": "",
          "type": "tuple"
        }
      ],
      "stateMutability": "view",
      "type": "function",
      "constant": true
    },
    {
      "inputs": [
        {
          "internalType": "string",
          "name": "",
          "type": "string"
        },
        {
          "internalType": "uint256",
          "name": "",
          "type": "uint256"
        }
      ],
      "name": "ocResult",
      "outputs": [
        {
          "internalType": "bool",
          "name": "used",
          "type": "bool"
        },
        {
          "internalType": "uint256",
          "name": "result",
          "type": "uint256"
        }
      ],
      "stateMutability": "view",
      "type": "function",
      "constant": true
    },
    {
      "inputs": [],
      "name": "owner",
      "outputs": [
        {
          "internalType": "address",
          "name": "",
          "type": "address"
        }
      ],
      "stateMutability": "view",
      "type": "function",
      "constant": true
    },
    {
      "inputs": [
        {
          "internalType": "string",
          "name": "",
          "type": "string"
        },
        {
          "internalType": "string",
          "name": "",
          "type": "string"
        }
      ],
      "name": "permittedContractMap",
      "outputs": [
        {
          "internalType": "string",
          "name": "",
          "type": "string"
        }
      ],
      "stateMutability": "view",
      "type": "function",
      "constant": true
    },
    {
      "inputs": [],
      "name": "renounceOwnership",
      "outputs": [],
      "stateMutability": "nonpayable",
      "type": "function"
    },
    {
      "inputs": [
        {
          "internalType": "address",
          "name": "_address",
          "type": "address"
        }
      ],
      "name": "setCrossChainContract",
      "outputs": [],
      "stateMutability": "nonpayable",
      "type": "function"
    },
    {
      "inputs": [
        {
          "internalType": "address",
          "name": "newOwner",
          "type": "address"
        }
      ],
      "name": "transferOwnership",
      "outputs": [],
      "stateMutability": "nonpayable",
      "type": "function"
    },
    {
      "inputs": [
        {
          "internalType": "string",
          "name": "_toChain",
          "type": "string"
        },
        {
          "internalType": "uint8[]",
          "name": "_nums",
          "type": "uint8[]"
        }
      ],
      "name": "sendComputeTask",
      "outputs": [],
      "stateMutability": "nonpayable",
      "type": "function"
    },
    {
      "inputs": [
        {
          "components": [
            {
              "components": [
                {
                  "internalType": "string",
                  "name": "name",
                  "type": "string"
                },
                {
                  "internalType": "enum MsgType",
                  "name": "msgType",
                  "type": "uint8"
                },
                {
                  "internalType": "bytes",
                  "name": "value",
                  "type": "bytes"
                }
              ],
              "internalType": "struct PayloadItem[]",
              "name": "items",
              "type": "tuple[]"
            }
          ],
          "internalType": "struct Payload",
          "name": "_payload",
          "type": "tuple"
        }
      ],
      "name": "receiveComputeTask",
      "outputs": [
        {
          "internalType": "uint256",
          "name": "",
          "type": "uint256"
        }
      ],
      "stateMutability": "nonpayable",
      "type": "function"
    },
    {
      "inputs": [
        {
          "components": [
            {
              "components": [
                {
                  "internalType": "string",
                  "name": "name",
                  "type": "string"
                },
                {
                  "internalType": "enum MsgType",
                  "name": "msgType",
                  "type": "uint8"
                },
                {
                  "internalType": "bytes",
                  "name": "value",
                  "type": "bytes"
                }
              ],
              "internalType": "struct PayloadItem[]",
              "name": "items",
              "type": "tuple[]"
            }
          ],
          "internalType": "struct Payload",
          "name": "_payload",
          "type": "tuple"
        }
      ],
      "name": "receiveComputeTaskCallback",
      "outputs": [
        {
          "internalType": "uint256",
          "name": "",
          "type": "uint256"
        }
      ],
      "stateMutability": "nonpayable",
      "type": "function"
    },
    {
      "inputs": [
        {
          "internalType": "string",
          "name": "_funcName",
          "type": "string"
        },
        {
          "internalType": "string",
          "name": "_toChain",
          "type": "string"
        },
        {
          "internalType": "bytes",
          "name": "_contractAddress",
          "type": "bytes"
        },
        {
          "internalType": "bytes",
          "name": "_contractFuncName",
          "type": "bytes"
        }
      ],
      "name": "registerDestnContract",
      "outputs": [],
      "stateMutability": "nonpayable",
      "type": "function"
    },
    {
      "inputs": [
        {
          "internalType": "string",
          "name": "_chainName",
          "type": "string"
        },
        {
          "internalType": "string",
          "name": "_sender",
          "type": "string"
        },
        {
          "internalType": "string",
          "name": "_funcName",
          "type": "string"
        }
      ],
      "name": "registerPermittedContract",
      "outputs": [],
      "stateMutability": "nonpayable",
      "type": "function"
    },
    {
      "inputs": [
        {
          "internalType": "string",
          "name": "_chainName",
          "type": "string"
        },
        {
          "internalType": "bytes4",
          "name": "_funcName",
          "type": "bytes4"
        },
        {
          "internalType": "bytes",
          "name": "_sender",
          "type": "bytes"
        }
      ],
      "name": "verify",
      "outputs": [
        {
          "internalType": "bool",
          "name": "",
          "type": "bool"
        }
      ],
      "stateMutability": "view",
      "type": "function",
      "constant": true
    }
  ],
  "bytecode": "0x608060405234801561001057600080fd5b5061001a3361001f565b61006f565b600080546001600160a01b038381166001600160a01b0319831681178455604051919092169283917f8be0079c531659141344cd1fd0a4f28419497f9722a3daafe3b4186f6b6457e09190a35050565b61206c8061007e6000396000f3fe608060405234801561001057600080fd5b50600436106101005760003560e01c80638da5cb5b11610097578063d9a7d5db11610066578063d9a7d5db14610289578063dbc90de11461029c578063f2fde38b146102af578063f50db507146102c257600080fd5b80638da5cb5b146101d2578063955a5ba4146101f7578063bb45acd914610217578063d64bf05a1461022a57600080fd5b8063715018a6116100d3578063715018a61461018257806379f6793c1461018a5780637fac11271461019d57806380899bba146101b057600080fd5b8063127f0f071461010557806318d72b541461012357806347e50a42146101385780634944e68614610159575b600080fd5b61010d6102d5565b60405161011a9190611328565b60405180910390f35b610136610131366004611418565b61035d565b005b61014b61014636600461143c565b610387565b60405190815260200161011a565b6101726101673660046114d4565b600195945050505050565b604051901515815260200161011a565b610136610504565b610136610198366004611558565b610518565b61014b6101ab36600461143c565b61057b565b6101c36101be366004611729565b61064d565b60405161011a9392919061178c565b6000546001600160a01b03165b6040516001600160a01b03909116815260200161011a565b61020a6102053660046117c4565b6107aa565b60405161011a91906117dd565b61020a610225366004611729565b610844565b6102726102383660046117f0565b8151602081840181018051600682529282019482019490942091909352909152600090815260409020805460019091015460ff9091169082565b60408051921515835260208301919091520161011a565b610136610297366004611834565b610885565b6001546101df906001600160a01b031681565b6101366102bd366004611418565b610c18565b6101366102d03660046118cd565b610c91565b6102dd610fec565b600160009054906101000a90046001600160a01b03166001600160a01b0316639af7a48c6040518163ffffffff1660e01b8152600401600060405180830381865afa158015610330573d6000803e3d6000fd5b505050506040513d6000823e601f3d908101601f191682016040526103589190810190611b9e565b905090565b610365610d15565b600180546001600160a01b0319166001600160a01b0392909216919091179055565b6001546000906001600160a01b031633146103a457506064919050565b60006103b08380611cc7565b60008181106103c1576103c1611d10565b90506020028101906103d39190611d26565b6103e1906040810190611d46565b8101906103ee9190611d8c565b90506000805b82518110156104355782818151811061040f5761040f611d10565b01602001516104219060f81c83611dea565b91508061042d81611e02565b9150506103f4565b506040805160208101825260608152815160018082528184019093529091816020015b60408051606080820183528082526000602083015291810191909152815260200190600190039081610458575050808252805160009190829061049d5761049d611d10565b60209081029190910181015160408051808201825260068152651c995cdd5b1d60d21b81850152825260038284015280518084018790528151808203909401845281018152810191909152905060606104f68184610d6f565b506000979650505050505050565b61050c610d15565b6105166000610e86565b565b610520610d15565b600060048787604051610534929190611e1d565b908152602001604051809103902090508484828585604051610557929190611e1d565b908152604051908190036020019020610571929091611076565b5050505050505050565b6001546000906001600160a01b0316331461059857506064919050565b60006105a48380611cc7565b60008181106105b5576105b5611d10565b90506020028101906105c79190611d26565b6105d5906040810190611d46565b8101906105e29190611e2d565b905060006105ee6102d5565b90506000600682602001516040516106069190611e53565b9081526040805191829003602090810190922060e090940151516000908152939091528220805460ff19166001908117825563ffffffff9094169301929092559392505050565b8151602081840181018051600382529282019482019490942091909352815180830184018051928152908401929093019190912091528054819061069090611e65565b80601f01602080910402602001604051908101604052809291908181526020018280546106bc90611e65565b80156107095780601f106106de57610100808354040283529160200191610709565b820191906000526020600020905b8154815290600101906020018083116106ec57829003601f168201915b50505050509080600101805461071e90611e65565b80601f016020809104026020016040519081016040528092919081815260200182805461074a90611e65565b80156107975780601f1061076c57610100808354040283529160200191610797565b820191906000526020600020905b81548152906001019060200180831161077a57829003601f168201915b5050506002909301549192505060ff1683565b600260205260009081526040902080546107c390611e65565b80601f01602080910402602001604051908101604052809291908181526020018280546107ef90611e65565b801561083c5780601f106108115761010080835404028352916020019161083c565b820191906000526020600020905b81548152906001019060200180831161081f57829003601f168201915b505050505081565b81516020818401810180516004825292820194820194909420919093528151808301840180519281529084019290930191909120915280546107c390611e65565b600060038585604051610899929190611e1d565b9081526040519081900360200181207172656365697665436f6d707574655461736b60701b825291506000908290601201908152604051908190036020019020600281015490915060ff1661092d5760405162461bcd60e51b81526020600482015260156024820152741858dd1a5bdb881b9bdd081c9959da5cdd195c9959605a1b60448201526064015b60405180910390fd5b6040805160208101825260608152815160018082528184019093529091816020015b6040805160608082018352808252600060208301529181019190915281526020019060019003908161094f575050808252805160009190829061099457610994611d10565b6020908102919091018101516040805180820190915260048152636e756d7360e01b8184015281529150600c90820181905250606060005b86811015610a6157818888838181106109e7576109e7611d10565b90506020020160208101906109fc9190611ea0565b604051602001610a1f919060f89190911b6001600160f81b031916815260010190565b60408051601f1981840301815290829052610a3d9291602001611ebd565b60405160208183030381529060405291508080610a5990611e02565b9150506109cc565b5080604051602001610a7391906117dd565b604051602081830303815290604052826040018190525060606000610bee8b8b8080601f0160208091040260200160405190810160405280939291908181526020018383808284376000920191909152505089548a9250610ad49150611e65565b80601f0160208091040260200160405190810160405280929190818152602001828054610b0090611e65565b8015610b4d5780601f10610b2257610100808354040283529160200191610b4d565b820191906000526020600020905b815481529060010190602001808311610b3057829003601f168201915b5050505050886001018054610b6190611e65565b80601f0160208091040260200160405190810160405280929190818152602001828054610b8d90611e65565b8015610bda5780601f10610baf57610100808354040283529160200191610bda565b820191906000526020600020905b815481529060010190602001808311610bbd57829003601f168201915b50505050508589637fac112760e01b610ed6565b6000818152600560205260409020909150610c0a908a8a6110fa565b505050505050505050505050565b610c20610d15565b6001600160a01b038116610c855760405162461bcd60e51b815260206004820152602660248201527f4f776e61626c653a206e6577206f776e657220697320746865207a65726f206160448201526564647265737360d01b6064820152608401610924565b610c8e81610e86565b50565b610c99610d15565b600060038787604051610cad929190611e1d565b908152602001604051809103902090506000818a8a604051610cd0929190611e1d565b9081526040519081900360200190209050610cec818787611076565b50610cfb600182018585611076565b50600201805460ff19166001179055505050505050505050565b6000546001600160a01b031633146105165760405162461bcd60e51b815260206004820181905260248201527f4f776e61626c653a2063616c6c6572206973206e6f7420746865206f776e65726044820152606401610924565b600080610d7a6102d5565b9050610d8461113a565b60208083015182528181018690526040805160a081018252845181526000818401819052825180850184528181528284015282518085018452818152606080840191909152835180860185529182526080830191909152808501919091528151908101825281850151815260e085015182015192810192909252818101869052808301919091526001549051632f260fd760e01b81526001600160a01b0390911690632f260fd790610e3a908490600401611eec565b6020604051808303816000875af1158015610e59573d6000803e3d6000fd5b505050506040513d601f19601f82011682018060405250810190610e7d919061201d565b95945050505050565b600080546001600160a01b038381166001600160a01b0319831681178455604051919092169283917f8be0079c531659141344cd1fd0a4f28419497f9722a3daafe3b4186f6b6457e09190a35050565b6000610ee061113a565b87815260208082018690526040805160a081018252600080825281840181905282516001600160e01b0319881681860152835160048183038101825260249092018552838501528351808601855282815260608085019190915284518087018652928352608084019290925281860192909252825190810183528a8152928301899052828201879052818401929092526001549051632f260fd760e01b81526001600160a01b0390911691632f260fd791610f9d91859101611eec565b6020604051808303816000875af1158015610fbc573d6000803e3d6000fd5b505050506040513d601f19601f82011682018060405250810190610fe0919061201d565b98975050505050505050565b604051806101000160405280600081526020016060815260200160608152602001606081526020016060815260200160006001600160a01b0316815260200160006001600160e01b03191681526020016110716040518060a0016040528060008152602001600060ff1681526020016060815260200160608152602001606081525090565b905290565b82805461108290611e65565b90600052602060002090601f0160209004810192826110a457600085556110ea565b82601f106110bd5782800160ff198235161785556110ea565b828001600101855582156110ea579182015b828111156110ea5782358255916020019190600101906110cf565b506110f6929150611195565b5090565b8280548282559060005260206000209081019282156110ea579160200282015b828111156110ea5760ff833516825560209092019160019091019061111a565b6040518060800160405280606081526020016060815260200161115b6111aa565b81526020016110716040518060a0016040528060008152602001600060ff1681526020016060815260200160608152602001606081525090565b5b808211156110f65760008155600101611196565b604051806060016040528060608152602001606081526020016110716040518060200160405280606081525090565b60005b838110156111f45781810151838201526020016111dc565b83811115611203576000848401525b50505050565b600081518084526112218160208601602086016111d9565b601f01601f19169290920160200192915050565b634e487b7160e01b600052602160045260246000fd5b600082825180855260208086019550808260051b84010181860160005b848110156112bc57601f19868403018952815160408151600a811061128f5761128f611235565b855290850151858501829052906112a881860183611209565b9a86019a9450505090830190600101611268565b5090979650505050505050565b8051825260ff60208201511660208301526000604082015160a060408501526112f560a0850182611209565b90506060830151848203606086015261130e8282611209565b91505060808301518482036080860152610e7d8282611209565b602081528151602082015260006020830151610100806040850152611351610120850183611209565b91506040850151601f198086850301606087015261136f8483611209565b9350606087015191508086850301608087015261138c8483611209565b935060808701519150808685030160a08701526113a9848361124b565b935060a087015191506113c760c08701836001600160a01b03169052565b60c08701516001600160e01b0319811660e0880152915060e08701519150808685030183870152506113f983826112c9565b9695505050505050565b6001600160a01b0381168114610c8e57600080fd5b60006020828403121561142a57600080fd5b813561143581611403565b9392505050565b60006020828403121561144e57600080fd5b81356001600160401b0381111561146457600080fd5b82016020818503121561143557600080fd5b60008083601f84011261148857600080fd5b5081356001600160401b0381111561149f57600080fd5b6020830191508360208285010111156114b757600080fd5b9250929050565b6001600160e01b031981168114610c8e57600080fd5b6000806000806000606086880312156114ec57600080fd5b85356001600160401b038082111561150357600080fd5b61150f89838a01611476565b909750955060208801359150611524826114be565b9093506040870135908082111561153a57600080fd5b5061154788828901611476565b969995985093965092949392505050565b6000806000806000806060878903121561157157600080fd5b86356001600160401b038082111561158857600080fd5b6115948a838b01611476565b909850965060208901359150808211156115ad57600080fd5b6115b98a838b01611476565b909650945060408901359150808211156115d257600080fd5b506115df89828a01611476565b979a9699509497509295939492505050565b634e487b7160e01b600052604160045260246000fd5b604080519081016001600160401b0381118282101715611629576116296115f1565b60405290565b60405160a081016001600160401b0381118282101715611629576116296115f1565b60405161010081016001600160401b0381118282101715611629576116296115f1565b604051601f8201601f191681016001600160401b038111828210171561169c5761169c6115f1565b604052919050565b60006001600160401b038211156116bd576116bd6115f1565b50601f01601f191660200190565b60006116de6116d9846116a4565b611674565b90508281528383830111156116f257600080fd5b828260208301376000602084830101529392505050565b600082601f83011261171a57600080fd5b611435838335602085016116cb565b6000806040838503121561173c57600080fd5b82356001600160401b038082111561175357600080fd5b61175f86838701611709565b9350602085013591508082111561177557600080fd5b5061178285828601611709565b9150509250929050565b60608152600061179f6060830186611209565b82810360208401526117b18186611209565b9150508215156040830152949350505050565b6000602082840312156117d657600080fd5b5035919050565b6020815260006114356020830184611209565b6000806040838503121561180357600080fd5b82356001600160401b0381111561181957600080fd5b61182585828601611709565b95602094909401359450505050565b6000806000806040858703121561184a57600080fd5b84356001600160401b038082111561186157600080fd5b61186d88838901611476565b9096509450602087013591508082111561188657600080fd5b818701915087601f83011261189a57600080fd5b8135818111156118a957600080fd5b8860208260051b85010111156118be57600080fd5b95989497505060200194505050565b6000806000806000806000806080898b0312156118e957600080fd5b88356001600160401b038082111561190057600080fd5b61190c8c838d01611476565b909a50985060208b013591508082111561192557600080fd5b6119318c838d01611476565b909850965060408b013591508082111561194a57600080fd5b6119568c838d01611476565b909650945060608b013591508082111561196f57600080fd5b5061197c8b828c01611476565b999c989b5096995094979396929594505050565b600082601f8301126119a157600080fd5b81516119af6116d9826116a4565b8181528460208386010111156119c457600080fd5b6119d58260208301602087016111d9565b949350505050565b600082601f8301126119ee57600080fd5b815160206001600160401b0380831115611a0a57611a0a6115f1565b8260051b611a19838201611674565b9384528581018301938381019088861115611a3357600080fd5b84880192505b85831015610fe057825184811115611a515760008081fd5b88016040818b03601f1901811315611a695760008081fd5b611a71611607565b87830151600a8110611a835760008081fd5b8152908201519086821115611a985760008081fd5b611aa68c8984860101611990565b81890152845250509184019190840190611a39565b8051611ac681611403565b919050565b8051611ac6816114be565b60ff81168114610c8e57600080fd5b8051611ac681611ad6565b600060a08284031215611b0257600080fd5b611b0a61162f565b905081518152611b1c60208301611ae5565b602082015260408201516001600160401b0380821115611b3b57600080fd5b611b4785838601611990565b60408401526060840151915080821115611b6057600080fd5b611b6c85838601611990565b60608401526080840151915080821115611b8557600080fd5b50611b9284828501611990565b60808301525092915050565b600060208284031215611bb057600080fd5b81516001600160401b0380821115611bc757600080fd5b908301906101008286031215611bdc57600080fd5b611be4611651565b82518152602083015182811115611bfa57600080fd5b611c0687828601611990565b602083015250604083015182811115611c1e57600080fd5b611c2a87828601611990565b604083015250606083015182811115611c4257600080fd5b611c4e87828601611990565b606083015250608083015182811115611c6657600080fd5b611c72878286016119dd565b608083015250611c8460a08401611abb565b60a0820152611c9560c08401611acb565b60c082015260e083015182811115611cac57600080fd5b611cb887828601611af0565b60e08301525095945050505050565b6000808335601e19843603018112611cde57600080fd5b8301803591506001600160401b03821115611cf857600080fd5b6020019150600581901b36038213156114b757600080fd5b634e487b7160e01b600052603260045260246000fd5b60008235605e19833603018112611d3c57600080fd5b9190910192915050565b6000808335601e19843603018112611d5d57600080fd5b8301803591506001600160401b03821115611d7757600080fd5b6020019150368190038213156114b757600080fd5b600060208284031215611d9e57600080fd5b81356001600160401b03811115611db457600080fd5b8201601f81018413611dc557600080fd5b6119d5848235602084016116cb565b634e487b7160e01b600052601160045260246000fd5b60008219821115611dfd57611dfd611dd4565b500190565b6000600019821415611e1657611e16611dd4565b5060010190565b8183823760009101908152919050565b600060208284031215611e3f57600080fd5b813563ffffffff8116811461143557600080fd5b60008251611d3c8184602087016111d9565b600181811c90821680611e7957607f821691505b60208210811415611e9a57634e487b7160e01b600052602260045260246000fd5b50919050565b600060208284031215611eb257600080fd5b813561143581611ad6565b60008351611ecf8184602088016111d9565b835190830190611ee38183602088016111d9565b01949350505050565b600060208083528351608082850152611f0860a0850182611209565b905081850151601f196040818785030181880152611f26848461124b565b935080880151925060608288860301818901528351818652611f4a82870182611209565b90508685015186820388880152611f618282611209565b9584015187870397850197909752505093518584528051868501819052600581901b850183019591870194908382019060005b81811015611ffc57838903603f1901835287518051868b52611fb8878c0182611209565b90508b82015160178110611fce57611fce611235565b8b8d0152908701518a8203888c015290611fe88183611209565b9a5050509689019691890191600101611f94565b505050508801518785039092016080880152509250610e7d905081836112c9565b60006020828403121561202f57600080fd5b505191905056fea264697066735822122049557d41555142134f39c1e46c84a6f810d2aea6c0cc8d946a8d72f8370ad8c064736f6c634300080a0033",
  "immutableReferences": {},
  "source": "// SPDX-License-Identifier: MIT\npragma solidity >=0.8.0 <0.9.0;\n\nimport \"@openzeppelin/contracts/access/Ownable.sol\";\nimport \"./CrossChain/ContractAdvanced.sol\";\n\nuint256 constant CALLER_NOT_CROSS_CHAIN_CONTRACT = 100;\n\n// `OCComputing` is an example of multi-chain services with necessary implementations in `ContractAdvanced`, which provides basic cross-chain call interfaces.\ncontract OCComputing is ContractAdvanced {\n    // Destination contract info\n    struct DestnContract {\n        bytes contractAddress; // destination contract address\n        bytes funcName; // destination contract action name\n        bool used;\n    }\n\n    struct OCResult {\n        bool used;\n        uint256 result;\n    }\n\n    // Cross-chain destination contract map\n    mapping(string => mapping(string => DestnContract)) public destnContractMap;\n\n    // Cross-chain permitted contract map\n    mapping(string => mapping(string => string)) public permittedContractMap;\n\n    // Outsourcing computing data cache\n    mapping(uint256 => uint256[]) cachedData;\n    // Outsourcing computing result\n    mapping(string => mapping(uint256 => OCResult)) public ocResult;\n    \n    /**\n     * Send outsourcing computing task to other chain\n     * @param _toChain - to chain name\n     * @param _nums - nums to be accumulated\n     */\n    function sendComputeTask(string calldata _toChain, uint8[] calldata _nums) external {\n        mapping(string => DestnContract) storage map = destnContractMap[_toChain];\n        DestnContract storage destnContract = map[\"receiveComputeTask\"];\n        require(destnContract.used, \"action not registered\");\n\n        // Construct payload\n        Payload memory data;\n        data.items = new PayloadItem[](1);\n        PayloadItem memory item = data.items[0];\n        item.name = \"nums\";\n        item.msgType = MsgType.Bytes;\n        bytes memory b;\n        for (uint256 i = 0; i < _nums.length; i++) {\n            b = bytes.concat(b, abi.encodePacked(_nums[i]));\n        }\n        item.value = abi.encode(b);\n\n        SQoS[] memory sqos;\n        uint id = crossChainCall(\n            _toChain,\n            destnContract.contractAddress,\n            destnContract.funcName,\n            sqos,\n            data,\n            OCComputing.receiveComputeTaskCallback.selector\n        );\n        cachedData[id] = _nums;\n    }\n\n    /**\n     * Receives outsourcing computing task from other chain\n     * @param _payload - payload which contains nums to be accumulated\n     */\n    function receiveComputeTask(Payload calldata _payload) external returns (uint256) {\n        if (msg.sender != address(crossChainContract)) {\n            return CALLER_NOT_CROSS_CHAIN_CONTRACT;\n        }\n\n        // decode\n        (bytes memory _nums) = abi.decode(_payload.items[0].value, (bytes));\n        \n        // compute\n        uint ret = 0;\n        for (uint i = 0; i < _nums.length; i++) {\n            ret += uint8(_nums[i]);\n        }\n\n        // Construct payload\n        Payload memory data;\n        data.items = new PayloadItem[](1);\n        PayloadItem memory item = data.items[0];\n        item.name = \"result\";\n        item.msgType = MsgType.EvmU32;\n        item.value = abi.encode(ret);\n        SQoS[] memory sqos;\n        crossChainRespond(sqos, data);\n\n        return 0;\n    }\n\n    /**\n     * See IOCComputing\n     */\n    function receiveComputeTaskCallback(Payload calldata _payload) external returns (uint256) {\n        if (msg.sender != address(crossChainContract)) {\n            return CALLER_NOT_CROSS_CHAIN_CONTRACT;\n        }\n\n        (uint32 _result) = abi.decode(_payload.items[0].value, (uint32));\n        SimplifiedMessage memory context = getContext();\n        OCResult storage result = ocResult[context.fromChain][context.session.id];\n        result.used = true;\n        result.result = _result;\n\n        return 0;\n    }\n\n    ///////////////////////////////////////////////\n    /////    Send messages to other chains   //////\n    ///////////////////////////////////////////////\n\n    /**\n     * Register destination contract info\n     * @param _funcName - function name to be called\n     * @param _toChain - destination chain name\n     * @param _contractAddress - destination contract address\n     * @param _contractFuncName - contract function name\n     */\n    function registerDestnContract(\n        string calldata _funcName,\n        string calldata _toChain,\n        bytes calldata _contractAddress,\n        bytes calldata _contractFuncName\n    ) external onlyOwner {\n        mapping(string => DestnContract) storage map = destnContractMap[_toChain];\n        DestnContract storage destnContract = map[_funcName];\n        destnContract.contractAddress = _contractAddress;\n        destnContract.funcName = _contractFuncName;\n        destnContract.used = true;\n    }\n\n    ///////////////////////////////////////////////\n    ///    Receive messages from other chains   ///\n    ///////////////////////////////////////////////\n\n    /**\n     * Authorize contracts of other chains to call the functions of this contract\n     * @param _chainName - from chain name\n     * @param _sender - sender of cross chain message\n     * @param _funcName - action name which allowed to be invoked\n     */\n    function registerPermittedContract(\n        string calldata _chainName,\n        string calldata _sender,\n        string calldata _funcName\n    ) external onlyOwner {\n        mapping(string => string) storage map = permittedContractMap[\n            _chainName\n        ];\n        map[_funcName] = _sender;\n    }\n\n    /**\n     * This verify method will be invoked by the CrossChain contract automatically, ensure that only registered contract(registerSourceContract) calls are allowed\n     * @param _chainName - chain name of cross chain message\n     * @param _funcName - contract action name of cross chain message\n     * @param _sender - cross chain message sender\n     */\n    //  Will be deprecated soon\n    function verify(\n        string calldata _chainName,\n        bytes4 _funcName,\n        bytes calldata _sender\n    ) public view virtual returns (bool) {\n        // mapping(string => string) storage map = permittedContractMap[\n        //     _chainName\n        // ];\n        // string storage sender = map[_funcName];\n        // require(\n        //     keccak256(bytes(sender)) == keccak256(bytes(_sender)),\n        //     \"Sender does not match\"\n        // );\n        return true;\n    }\n}\n",
  "sourcePath": "/home/george/program/dante/solidity-contract-template/contracts/OCComputing.sol",
  "compiler": {
    "name": "solc",
    "version": "0.8.10+commit.fc410830.Emscripten.clang"
  },
  "schemaVersion": "3.4.6",
  "updatedAt": "2022-09-08T14:46:13.767Z",
  "networkType": "ethereum",
  "devdoc": {
    "kind": "dev",
    "methods": {
      "owner()": {
        "details": "Returns the address of the current owner."
      },
      "receiveComputeTask(((string,uint8,bytes)[]))": {
        "params": {
          "_payload": "- payload which contains nums to be accumulated"
        }
      },
      "registerDestnContract(string,string,bytes,bytes)": {
        "params": {
          "_contractAddress": "- destination contract address",
          "_contractFuncName": "- contract function name",
          "_funcName": "- function name to be called",
          "_toChain": "- destination chain name"
        }
      },
      "registerPermittedContract(string,string,string)": {
        "params": {
          "_chainName": "- from chain name",
          "_funcName": "- action name which allowed to be invoked",
          "_sender": "- sender of cross chain message"
        }
      },
      "renounceOwnership()": {
        "details": "Leaves the contract without owner. It will not be possible to call `onlyOwner` functions anymore. Can only be called by the current owner. NOTE: Renouncing ownership will leave the contract without an owner, thereby removing any functionality that is only available to the owner."
      },
      "sendComputeTask(string,uint8[])": {
        "params": {
          "_nums": "- nums to be accumulated",
          "_toChain": "- to chain name"
        }
      },
      "setCrossChainContract(address)": {
        "params": {
          "_address": "- cross chain contract address"
        }
      },
      "transferOwnership(address)": {
        "details": "Transfers ownership of the contract to a new account (`newOwner`). Can only be called by the current owner."
      },
      "verify(string,bytes4,bytes)": {
        "params": {
          "_chainName": "- chain name of cross chain message",
          "_funcName": "- contract action name of cross chain message",
          "_sender": "- cross chain message sender"
        }
      }
    },
    "version": 1
  },
  "userdoc": {
    "kind": "user",
    "methods": {
      "receiveComputeTask(((string,uint8,bytes)[]))": {
        "notice": "Receives outsourcing computing task from other chain"
      },
      "receiveComputeTaskCallback(((string,uint8,bytes)[]))": {
        "notice": "See IOCComputing"
      },
      "registerDestnContract(string,string,bytes,bytes)": {
        "notice": "Register destination contract info"
      },
      "registerPermittedContract(string,string,string)": {
        "notice": "Authorize contracts of other chains to call the functions of this contract"
      },
      "sendComputeTask(string,uint8[])": {
        "notice": "Send outsourcing computing task to other chain"
      },
      "setCrossChainContract(address)": {
        "notice": "Set cross chain contract"
      },
      "verify(string,bytes4,bytes)": {
        "notice": "This verify method will be invoked by the CrossChain contract automatically, ensure that only registered contract(registerSourceContract) calls are allowed"
      }
    },
    "version": 1
  }
}