{
  "contractName": "OCComputing",
  "abi": [
    {
      "anonymous": false,
      "inputs": [
        {
          "indexed": true,
          "internalType": "address",
          "name": "previousOwner",
          "type": "address"
        },
        {
          "indexed": true,
          "internalType": "address",
          "name": "newOwner",
          "type": "address"
        }
      ],
      "name": "OwnershipTransferred",
      "type": "event"
    },
    {
      "inputs": [
        {
          "internalType": "bytes32",
          "name": "",
          "type": "bytes32"
        }
      ],
      "name": "callbackAbis",
      "outputs": [
        {
          "internalType": "string",
          "name": "",
          "type": "string"
        }
      ],
      "stateMutability": "view",
      "type": "function"
    },
    {
      "inputs": [],
      "name": "crossChainContract",
      "outputs": [
        {
          "internalType": "contract ICrossChain",
          "name": "",
          "type": "address"
        }
      ],
      "stateMutability": "view",
      "type": "function"
    },
    {
      "inputs": [
        {
          "internalType": "string",
          "name": "",
          "type": "string"
        },
        {
          "internalType": "string",
          "name": "",
          "type": "string"
        }
      ],
      "name": "destnContractMap",
      "outputs": [
        {
          "internalType": "bytes",
          "name": "contractAddress",
          "type": "bytes"
        },
        {
          "internalType": "bytes",
          "name": "funcName",
          "type": "bytes"
        },
        {
          "internalType": "bool",
          "name": "used",
          "type": "bool"
        }
      ],
      "stateMutability": "view",
      "type": "function"
    },
    {
      "inputs": [],
      "name": "getContext",
      "outputs": [
        {
          "components": [
            {
              "internalType": "uint256",
              "name": "id",
              "type": "uint256"
            },
            {
              "internalType": "string",
              "name": "fromChain",
              "type": "string"
            },
            {
              "internalType": "bytes",
              "name": "sender",
              "type": "bytes"
            },
            {
              "internalType": "bytes",
              "name": "signer",
              "type": "bytes"
            },
            {
              "components": [
                {
                  "internalType": "enum SQoSType",
                  "name": "t",
                  "type": "uint8"
                },
                {
                  "internalType": "bytes",
                  "name": "v",
                  "type": "bytes"
                }
              ],
              "internalType": "struct SQoS[]",
              "name": "sqos",
              "type": "tuple[]"
            },
            {
              "internalType": "address",
              "name": "contractAddress",
              "type": "address"
            },
            {
              "internalType": "bytes4",
              "name": "action",
              "type": "bytes4"
            },
            {
              "components": [
                {
                  "internalType": "uint256",
                  "name": "id",
                  "type": "uint256"
                },
                {
                  "internalType": "uint8",
                  "name": "sessionType",
                  "type": "uint8"
                },
                {
                  "internalType": "bytes",
                  "name": "callback",
                  "type": "bytes"
                },
                {
                  "internalType": "bytes",
                  "name": "commitment",
                  "type": "bytes"
                },
                {
                  "internalType": "bytes",
                  "name": "answer",
                  "type": "bytes"
                }
              ],
              "internalType": "struct Session",
              "name": "session",
              "type": "tuple"
            }
          ],
          "internalType": "struct SimplifiedMessage",
          "name": "",
          "type": "tuple"
        }
      ],
      "stateMutability": "view",
      "type": "function"
    },
    {
      "inputs": [
        {
          "internalType": "string",
          "name": "",
          "type": "string"
        },
        {
          "internalType": "uint256",
          "name": "",
          "type": "uint256"
        }
      ],
      "name": "ocResult",
      "outputs": [
        {
          "internalType": "bool",
          "name": "used",
          "type": "bool"
        },
        {
          "internalType": "uint32",
          "name": "result",
          "type": "uint32"
        },
        {
          "internalType": "uint32",
          "name": "expected",
          "type": "uint32"
        },
        {
          "internalType": "uint256",
          "name": "session",
          "type": "uint256"
        }
      ],
      "stateMutability": "view",
      "type": "function"
    },
    {
      "inputs": [],
      "name": "owner",
      "outputs": [
        {
          "internalType": "address",
          "name": "",
          "type": "address"
        }
      ],
      "stateMutability": "view",
      "type": "function"
    },
    {
      "inputs": [
        {
          "internalType": "string",
          "name": "",
          "type": "string"
        },
        {
          "internalType": "string",
          "name": "",
          "type": "string"
        }
      ],
      "name": "permittedContractMap",
      "outputs": [
        {
          "internalType": "string",
          "name": "",
          "type": "string"
        }
      ],
      "stateMutability": "view",
      "type": "function"
    },
    {
      "inputs": [],
      "name": "renounceOwnership",
      "outputs": [],
      "stateMutability": "nonpayable",
      "type": "function"
    },
    {
      "inputs": [
        {
          "internalType": "address",
          "name": "_address",
          "type": "address"
        }
      ],
      "name": "setCrossChainContract",
      "outputs": [],
      "stateMutability": "nonpayable",
      "type": "function"
    },
    {
      "inputs": [
        {
          "internalType": "address",
          "name": "newOwner",
          "type": "address"
        }
      ],
      "name": "transferOwnership",
      "outputs": [],
      "stateMutability": "nonpayable",
      "type": "function"
    },
    {
      "inputs": [
        {
          "internalType": "string",
          "name": "_toChain",
          "type": "string"
        },
        {
          "internalType": "uint32[]",
          "name": "_nums",
          "type": "uint32[]"
        }
      ],
      "name": "sendComputeTask",
      "outputs": [],
      "stateMutability": "nonpayable",
      "type": "function"
    },
    {
      "inputs": [
        {
          "components": [
            {
              "components": [
                {
                  "internalType": "string",
                  "name": "name",
                  "type": "string"
                },
                {
                  "internalType": "enum MsgType",
                  "name": "msgType",
                  "type": "uint8"
                },
                {
                  "internalType": "bytes",
                  "name": "value",
                  "type": "bytes"
                }
              ],
              "internalType": "struct PayloadItem[]",
              "name": "items",
              "type": "tuple[]"
            }
          ],
          "internalType": "struct Payload",
          "name": "_payload",
          "type": "tuple"
        }
      ],
      "name": "receiveComputeTask",
      "outputs": [
        {
          "internalType": "uint256",
          "name": "",
          "type": "uint256"
        }
      ],
      "stateMutability": "nonpayable",
      "type": "function"
    },
    {
      "inputs": [
        {
          "internalType": "string",
          "name": "_chainName",
          "type": "string"
        }
      ],
      "name": "clear",
      "outputs": [],
      "stateMutability": "nonpayable",
      "type": "function"
    },
    {
      "inputs": [
        {
          "internalType": "string",
          "name": "_chainName",
          "type": "string"
        }
      ],
      "name": "getResults",
      "outputs": [
        {
          "components": [
            {
              "internalType": "bool",
              "name": "used",
              "type": "bool"
            },
            {
              "internalType": "uint32",
              "name": "result",
              "type": "uint32"
            },
            {
              "internalType": "uint32",
              "name": "expected",
              "type": "uint32"
            },
            {
              "internalType": "uint256",
              "name": "session",
              "type": "uint256"
            }
          ],
          "internalType": "struct OCComputing.OCResult[]",
          "name": "",
          "type": "tuple[]"
        }
      ],
      "stateMutability": "view",
      "type": "function"
    },
    {
      "inputs": [
        {
          "components": [
            {
              "components": [
                {
                  "internalType": "string",
                  "name": "name",
                  "type": "string"
                },
                {
                  "internalType": "enum MsgType",
                  "name": "msgType",
                  "type": "uint8"
                },
                {
                  "internalType": "bytes",
                  "name": "value",
                  "type": "bytes"
                }
              ],
              "internalType": "struct PayloadItem[]",
              "name": "items",
              "type": "tuple[]"
            }
          ],
          "internalType": "struct Payload",
          "name": "_payload",
          "type": "tuple"
        }
      ],
      "name": "receiveComputeTaskCallback",
      "outputs": [
        {
          "internalType": "uint256",
          "name": "",
          "type": "uint256"
        }
      ],
      "stateMutability": "nonpayable",
      "type": "function"
    },
    {
      "inputs": [
        {
          "internalType": "string",
          "name": "_funcName",
          "type": "string"
        },
        {
          "internalType": "string",
          "name": "_toChain",
          "type": "string"
        },
        {
          "internalType": "bytes",
          "name": "_contractAddress",
          "type": "bytes"
        },
        {
          "internalType": "bytes",
          "name": "_contractFuncName",
          "type": "bytes"
        }
      ],
      "name": "registerDestnContract",
      "outputs": [],
      "stateMutability": "nonpayable",
      "type": "function"
    },
    {
      "inputs": [
        {
          "internalType": "string",
          "name": "_chainName",
          "type": "string"
        },
        {
          "internalType": "string",
          "name": "_sender",
          "type": "string"
        },
        {
          "internalType": "string",
          "name": "_funcName",
          "type": "string"
        }
      ],
      "name": "registerPermittedContract",
      "outputs": [],
      "stateMutability": "nonpayable",
      "type": "function"
    },
    {
      "inputs": [
        {
          "internalType": "string",
          "name": "_chainName",
          "type": "string"
        },
        {
          "internalType": "bytes4",
          "name": "_funcName",
          "type": "bytes4"
        },
        {
          "internalType": "bytes",
          "name": "_sender",
          "type": "bytes"
        }
      ],
      "name": "verify",
      "outputs": [
        {
          "internalType": "bool",
          "name": "",
          "type": "bool"
        }
      ],
      "stateMutability": "view",
      "type": "function"
    }
  ],
  "bytecode": "0x608060405234801561001057600080fd5b5061001a3361001f565b61006f565b600080546001600160a01b038381166001600160a01b0319831681178455604051919092169283917f8be0079c531659141344cd1fd0a4f28419497f9722a3daafe3b4186f6b6457e09190a35050565b6124868061007e6000396000f3fe608060405234801561001057600080fd5b50600436106101165760003560e01c806380899bba116100a2578063d64bf05a11610071578063d64bf05a14610273578063dbc90de1146102b5578063f2fde38b146102c8578063f50db507146102db578063fab1564e146102ee57600080fd5b806380899bba146101f95780638da5cb5b1461021b578063955a5ba414610240578063bb45acd91461026057600080fd5b806347e50a42116100e957806347e50a42146101815780634944e686146101a2578063715018a6146101cb57806379f6793c146101d35780637fac1127146101e657600080fd5b8063127f0f071461011b57806316cf503e1461013957806318d72b541461014e5780632ff20f0114610161575b600080fd5b610123610301565b6040516101309190611612565b60405180910390f35b61014c610147366004611735565b610389565b005b61014c61015c36600461178b565b6103c1565b61017461016f366004611735565b6103eb565b60405161013091906117af565b61019461018f36600461181e565b6104a1565b604051908152602001610130565b6101bb6101b036600461186e565b600195945050505050565b6040519015158152602001610130565b61014c610625565b61014c6101e13660046118f2565b610639565b6101946101f436600461181e565b61069c565b61020c610207366004611abb565b610834565b60405161013093929190611b1e565b6000546001600160a01b03165b6040516001600160a01b039091168152602001610130565b61025361024e366004611b56565b610991565b6040516101309190611b6f565b61025361026e366004611abb565b610a2b565b610286610281366004611b82565b610a6c565b6040516101309493929190931515845263ffffffff928316602085015291166040830152606082015260800190565b600154610228906001600160a01b031681565b61014c6102d636600461178b565b610ad4565b61014c6102e9366004611bc6565b610b52565b61014c6102fc366004611c89565b610bd6565b6103096112cd565b600160009054906101000a90046001600160a01b03166001600160a01b0316639af7a48c6040518163ffffffff1660e01b8152600401600060405180830381865afa15801561035c573d6000803e3d6000fd5b505050506040513d6000823e601f3d908101601f191682016040526103849190810190611f46565b905090565b610391610f62565b600582826040516103a392919061206f565b908152602001604051809103902060006103bd9190611357565b5050565b6103c9610f62565b600180546001600160a01b0319166001600160a01b0392909216919091179055565b6060600583836040516103ff92919061206f565b9081526020016040518091039020805480602002602001604051908101604052809291908181526020016000905b828210156104955760008481526020908190206040805160808101825260028602909201805460ff81161515845263ffffffff61010082048116858701526501000000000090910416918301919091526001908101546060830152908352909201910161042d565b50505050905092915050565b6001546000906001600160a01b031633146104be57506064919050565b60006104ca838061207f565b60008181106104db576104db6120c8565b90506020028101906104ed91906120de565b6104fb9060408101906120fe565b8101906105089190612158565b90506000805b825181101561055657828181518110610529576105296120c8565b602002602001015163ffffffff16826105429190612205565b91508061054e8161221d565b91505061050e565b506040805160208101825260608152815160018082528184019093529091816020015b6040805160608082018352808252600060208301529181019190915281526020019060019003908161057957505080825280516000919082906105be576105be6120c8565b60209081029190910181015160408051808201825260068152651c995cdd5b1d60d21b81850152825260038284015280518084018790528151808203909401845281018152810191909152905060606106178184610fbc565b506000979650505050505050565b61062d610f62565b61063760006110d3565b565b610641610f62565b60006004878760405161065592919061206f565b90815260200160405180910390209050848482858560405161067892919061206f565b908152604051908190036020019020610692929091611378565b5050505050505050565b6001546000906001600160a01b031633146106b957506064919050565b60006106c5838061207f565b60008181106106d6576106d66120c8565b90506020028101906106e891906120de565b6106f69060408101906120fe565b8101906107039190612238565b9050600061070f610301565b905060008060005b6005846020015160405161072b9190612253565b908152604051908190036020019020548110156107b15760e084015151602085015160405160059161075c91612253565b9081526020016040518091039020828154811061077b5761077b6120c8565b906000526020600020906002020160010154141561079f57600191508092506107b1565b806107a98161221d565b915050610717565b50806107c35750606595945050505050565b6000600584602001516040516107d99190612253565b908152602001604051809103902083815481106107f8576107f86120c8565b600091825260208220600290910201805463ffffffff9097166101000264ffffffffff1990971696909617600117909555509295945050505050565b8151602081840181018051600382529282019482019490942091909352815180830184018051928152908401929093019190912091528054819061087790612265565b80601f01602080910402602001604051908101604052809291908181526020018280546108a390612265565b80156108f05780601f106108c5576101008083540402835291602001916108f0565b820191906000526020600020905b8154815290600101906020018083116108d357829003601f168201915b50505050509080600101805461090590612265565b80601f016020809104026020016040519081016040528092919081815260200182805461093190612265565b801561097e5780601f106109535761010080835404028352916020019161097e565b820191906000526020600020905b81548152906001019060200180831161096157829003601f168201915b5050506002909301549192505060ff1683565b600260205260009081526040902080546109aa90612265565b80601f01602080910402602001604051908101604052809291908181526020018280546109d690612265565b8015610a235780601f106109f857610100808354040283529160200191610a23565b820191906000526020600020905b815481529060010190602001808311610a0657829003601f168201915b505050505081565b81516020818401810180516004825292820194820194909420919093528151808301840180519281529084019290930191909120915280546109aa90612265565b81516020818401810180516005825292820191850191909120919052805482908110610a9757600080fd5b60009182526020909120600290910201805460019091015460ff8216935063ffffffff610100830481169350650100000000009092049091169084565b610adc610f62565b6001600160a01b038116610b465760405162461bcd60e51b815260206004820152602660248201527f4f776e61626c653a206e6577206f776e657220697320746865207a65726f206160448201526564647265737360d01b60648201526084015b60405180910390fd5b610b4f816110d3565b50565b610b5a610f62565b600060038787604051610b6e92919061206f565b908152602001604051809103902090506000818a8a604051610b9192919061206f565b9081526040519081900360200190209050610bad818787611378565b50610bbc600182018585611378565b50600201805460ff19166001179055505050505050505050565b600060038585604051610bea92919061206f565b9081526040519081900360200181207172656365697665436f6d707574655461736b60701b825291506000908290601201908152604051908190036020019020600281015490915060ff16610c795760405162461bcd60e51b81526020600482015260156024820152741858dd1a5bdb881b9bdd081c9959da5cdd195c9959605a1b6044820152606401610b3d565b6040805160208101825260608152815160018082528184019093529091816020015b60408051606080820183528082526000602083015291810191909152815260200190600190039081610c9b5750508082528051600091908290610ce057610ce06120c8565b60209081029190910181015160408051808201825260048152636e756d7360e01b818501528252600e8284015251909250610d1f9188918891016122a0565b604051602081830303815290604052816040018190525060606000610e9a8a8a8080601f016020809104026020016040519081016040528093929190818152602001838380828437600092019190915250508854899250610d809150612265565b80601f0160208091040260200160405190810160405280929190818152602001828054610dac90612265565b8015610df95780601f10610dce57610100808354040283529160200191610df9565b820191906000526020600020905b815481529060010190602001808311610ddc57829003601f168201915b5050505050876001018054610e0d90612265565b80601f0160208091040260200160405190810160405280929190818152602001828054610e3990612265565b8015610e865780601f10610e5b57610100808354040283529160200191610e86565b820191906000526020600020905b815481529060010190602001808311610e6957829003601f168201915b50505050508588637fac112760e01b611123565b9050600060058b8b604051610eb092919061206f565b908152602001604051809103902060018160018154018082558091505003906000526020600020906002020190506000805b89811015610f2f578a8a82818110610efc57610efc6120c8565b9050602002016020810190610f119190612238565b610f1b90836122de565b915080610f278161221d565b915050610ee2565b50815463ffffffff909116650100000000000268ffffffff00000000001990911617815560010155505050505050505050565b6000546001600160a01b031633146106375760405162461bcd60e51b815260206004820181905260248201527f4f776e61626c653a2063616c6c6572206973206e6f7420746865206f776e65726044820152606401610b3d565b600080610fc7610301565b9050610fd16113fc565b60208083015182528181018690526040805160a081018252845181526000818401819052825180850184528181528284015282518085018452818152606080840191909152835180860185529182526080830191909152808501919091528151908101825281850151815260e085015182015192810192909252818101869052808301919091526001549051632f260fd760e01b81526001600160a01b0390911690632f260fd790611087908490600401612306565b6020604051808303816000875af11580156110a6573d6000803e3d6000fd5b505050506040513d601f19601f820116820180604052508101906110ca9190612437565b95945050505050565b600080546001600160a01b038381166001600160a01b0319831681178455604051919092169283917f8be0079c531659141344cd1fd0a4f28419497f9722a3daafe3b4186f6b6457e09190a35050565b600061112d6113fc565b878152602081018590526001546040516304330ae160e11b81526000916001600160a01b03169063086615c290611168908c90600401611b6f565b602060405180830381865afa158015611185573d6000803e3d6000fd5b505050506040513d601f19601f820116820180604052508101906111a99190612437565b6111b4906001612205565b90506040518060a00160405280828152602001600060ff168152602001856040516020016111f291906001600160e01b031991909116815260040190565b60408051601f198184030181529181529082528051602081810183526000808352848201929092528251808201845291825292820152606080860193909352805192830181528a8352908201899052818101879052838101919091526001549051632f260fd760e01b81526001600160a01b0390911690632f260fd79061127d908590600401612306565b6020604051808303816000875af115801561129c573d6000803e3d6000fd5b505050506040513d601f19601f820116820180604052508101906112c09190612437565b9998505050505050505050565b604051806101000160405280600081526020016060815260200160608152602001606081526020016060815260200160006001600160a01b0316815260200160006001600160e01b03191681526020016113526040518060a0016040528060008152602001600060ff1681526020016060815260200160608152602001606081525090565b905290565b5080546000825560020290600052602060002090810190610b4f9190611457565b82805461138490612265565b90600052602060002090601f0160209004810192826113a657600085556113ec565b82601f106113bf5782800160ff198235161785556113ec565b828001600101855582156113ec579182015b828111156113ec5782358255916020019190600101906113d1565b506113f892915061147f565b5090565b6040518060800160405280606081526020016060815260200161141d611494565b81526020016113526040518060a0016040528060008152602001600060ff1681526020016060815260200160608152602001606081525090565b5b808211156113f857805468ffffffffffffffffff1916815560006001820155600201611458565b5b808211156113f85760008155600101611480565b604051806060016040528060608152602001606081526020016113526040518060200160405280606081525090565b60005b838110156114de5781810151838201526020016114c6565b838111156114ed576000848401525b50505050565b6000815180845261150b8160208601602086016114c3565b601f01601f19169290920160200192915050565b634e487b7160e01b600052602160045260246000fd5b600082825180855260208086019550808260051b84010181860160005b848110156115a657601f19868403018952815160408151600a81106115795761157961151f565b85529085015185850182905290611592818601836114f3565b9a86019a9450505090830190600101611552565b5090979650505050505050565b8051825260ff60208201511660208301526000604082015160a060408501526115df60a08501826114f3565b9050606083015184820360608601526115f882826114f3565b915050608083015184820360808601526110ca82826114f3565b60208152815160208201526000602083015161010080604085015261163b6101208501836114f3565b91506040850151601f198086850301606087015261165984836114f3565b9350606087015191508086850301608087015261167684836114f3565b935060808701519150808685030160a08701526116938483611535565b935060a087015191506116b160c08701836001600160a01b03169052565b60c08701516001600160e01b0319811660e0880152915060e08701519150808685030183870152506116e383826115b3565b9695505050505050565b60008083601f8401126116ff57600080fd5b5081356001600160401b0381111561171657600080fd5b60208301915083602082850101111561172e57600080fd5b9250929050565b6000806020838503121561174857600080fd5b82356001600160401b0381111561175e57600080fd5b61176a858286016116ed565b90969095509350505050565b6001600160a01b0381168114610b4f57600080fd5b60006020828403121561179d57600080fd5b81356117a881611776565b9392505050565b602080825282518282018190526000919060409081850190868401855b828110156118115781518051151585528681015163ffffffff9081168887015286820151168686015260609081015190850152608090930192908501906001016117cc565b5091979650505050505050565b60006020828403121561183057600080fd5b81356001600160401b0381111561184657600080fd5b8201602081850312156117a857600080fd5b6001600160e01b031981168114610b4f57600080fd5b60008060008060006060868803121561188657600080fd5b85356001600160401b038082111561189d57600080fd5b6118a989838a016116ed565b9097509550602088013591506118be82611858565b909350604087013590808211156118d457600080fd5b506118e1888289016116ed565b969995985093965092949392505050565b6000806000806000806060878903121561190b57600080fd5b86356001600160401b038082111561192257600080fd5b61192e8a838b016116ed565b9098509650602089013591508082111561194757600080fd5b6119538a838b016116ed565b9096509450604089013591508082111561196c57600080fd5b5061197989828a016116ed565b979a9699509497509295939492505050565b634e487b7160e01b600052604160045260246000fd5b604080519081016001600160401b03811182821017156119c3576119c361198b565b60405290565b60405160a081016001600160401b03811182821017156119c3576119c361198b565b60405161010081016001600160401b03811182821017156119c3576119c361198b565b604051601f8201601f191681016001600160401b0381118282101715611a3657611a3661198b565b604052919050565b60006001600160401b03821115611a5757611a5761198b565b50601f01601f191660200190565b600082601f830112611a7657600080fd5b8135611a89611a8482611a3e565b611a0e565b818152846020838601011115611a9e57600080fd5b816020850160208301376000918101602001919091529392505050565b60008060408385031215611ace57600080fd5b82356001600160401b0380821115611ae557600080fd5b611af186838701611a65565b93506020850135915080821115611b0757600080fd5b50611b1485828601611a65565b9150509250929050565b606081526000611b3160608301866114f3565b8281036020840152611b4381866114f3565b9150508215156040830152949350505050565b600060208284031215611b6857600080fd5b5035919050565b6020815260006117a860208301846114f3565b60008060408385031215611b9557600080fd5b82356001600160401b03811115611bab57600080fd5b611bb785828601611a65565b95602094909401359450505050565b6000806000806000806000806080898b031215611be257600080fd5b88356001600160401b0380821115611bf957600080fd5b611c058c838d016116ed565b909a50985060208b0135915080821115611c1e57600080fd5b611c2a8c838d016116ed565b909850965060408b0135915080821115611c4357600080fd5b611c4f8c838d016116ed565b909650945060608b0135915080821115611c6857600080fd5b50611c758b828c016116ed565b999c989b5096995094979396929594505050565b60008060008060408587031215611c9f57600080fd5b84356001600160401b0380821115611cb657600080fd5b611cc2888389016116ed565b90965094506020870135915080821115611cdb57600080fd5b818701915087601f830112611cef57600080fd5b813581811115611cfe57600080fd5b8860208260051b8501011115611d1357600080fd5b95989497505060200194505050565b600082601f830112611d3357600080fd5b8151611d41611a8482611a3e565b818152846020838601011115611d5657600080fd5b611d678260208301602087016114c3565b949350505050565b60006001600160401b03821115611d8857611d8861198b565b5060051b60200190565b600082601f830112611da357600080fd5b81516020611db3611a8483611d6f565b82815260059290921b84018101918181019086841115611dd257600080fd5b8286015b84811015611e615780516001600160401b0380821115611df65760008081fd5b908801906040828b03601f1901811315611e105760008081fd5b611e186119a1565b87840151600a8110611e2a5760008081fd5b8152908301519082821115611e3f5760008081fd5b611e4d8c8984870101611d22565b818901528652505050918301918301611dd6565b509695505050505050565b8051611e7781611776565b919050565b8051611e7781611858565b805160ff81168114611e7757600080fd5b600060a08284031215611eaa57600080fd5b611eb26119c9565b905081518152611ec460208301611e87565b602082015260408201516001600160401b0380821115611ee357600080fd5b611eef85838601611d22565b60408401526060840151915080821115611f0857600080fd5b611f1485838601611d22565b60608401526080840151915080821115611f2d57600080fd5b50611f3a84828501611d22565b60808301525092915050565b600060208284031215611f5857600080fd5b81516001600160401b0380821115611f6f57600080fd5b908301906101008286031215611f8457600080fd5b611f8c6119eb565b82518152602083015182811115611fa257600080fd5b611fae87828601611d22565b602083015250604083015182811115611fc657600080fd5b611fd287828601611d22565b604083015250606083015182811115611fea57600080fd5b611ff687828601611d22565b60608301525060808301518281111561200e57600080fd5b61201a87828601611d92565b60808301525061202c60a08401611e6c565b60a082015261203d60c08401611e7c565b60c082015260e08301518281111561205457600080fd5b61206087828601611e98565b60e08301525095945050505050565b8183823760009101908152919050565b6000808335601e1984360301811261209657600080fd5b8301803591506001600160401b038211156120b057600080fd5b6020019150600581901b360382131561172e57600080fd5b634e487b7160e01b600052603260045260246000fd5b60008235605e198336030181126120f457600080fd5b9190910192915050565b6000808335601e1984360301811261211557600080fd5b8301803591506001600160401b0382111561212f57600080fd5b60200191503681900382131561172e57600080fd5b803563ffffffff81168114611e7757600080fd5b6000602080838503121561216b57600080fd5b82356001600160401b0381111561218157600080fd5b8301601f8101851361219257600080fd5b80356121a0611a8482611d6f565b81815260059190911b820183019083810190878311156121bf57600080fd5b928401925b828410156121e4576121d584612144565b825292840192908401906121c4565b979650505050505050565b634e487b7160e01b600052601160045260246000fd5b60008219821115612218576122186121ef565b500190565b6000600019821415612231576122316121ef565b5060010190565b60006020828403121561224a57600080fd5b6117a882612144565b600082516120f48184602087016114c3565b600181811c9082168061227957607f821691505b6020821081141561229a57634e487b7160e01b600052602260045260246000fd5b50919050565b60208082528181018390526000908460408401835b86811015611e615763ffffffff6122cb84612144565b16825291830191908301906001016122b5565b600063ffffffff8083168185168083038211156122fd576122fd6121ef565b01949350505050565b60006020808352835160808285015261232260a08501826114f3565b905081850151601f1960408187850301818801526123408484611535565b935080880151925060608288860301818901528351818652612364828701826114f3565b9050868501518682038888015261237b82826114f3565b9584015187870397850197909752505093518584528051868501819052600581901b850183019591870194908382019060005b8181101561241657838903603f1901835287518051868b526123d2878c01826114f3565b90508b820151601781106123e8576123e861151f565b8b8d0152908701518a8203888c01529061240281836114f3565b9a50505096890196918901916001016123ae565b5050505088015187850390920160808801525092506110ca905081836115b3565b60006020828403121561244957600080fd5b505191905056fea26469706673582212206a6b40968c36168c84183d9a4e5aab2363cc1b164dcf826052a14406005036fb64736f6c634300080a0033",
  "immutableReferences": {},
  "source": "// SPDX-License-Identifier: MIT\npragma solidity >=0.8.0 <0.9.0;\n\nimport \"@openzeppelin/contracts/access/Ownable.sol\";\nimport \"./CrossChain/ContractAdvanced.sol\";\n\nuint256 constant CALLER_NOT_CROSS_CHAIN_CONTRACT = 100;\nuint256 constant RECORDS_NOT_FOUND = 101;\n\n// `OCComputing` is an example of multi-chain services with necessary implementations in `ContractAdvanced`, which provides basic cross-chain call interfaces.\ncontract OCComputing is ContractAdvanced {\n    // Destination contract info\n    struct DestnContract {\n        bytes contractAddress; // destination contract address\n        bytes funcName; // destination contract action name\n        bool used;\n    }\n\n    struct OCResult {\n        bool used;\n        uint32 result;\n        uint32 expected;\n        uint256 session;\n    }\n\n    // Cross-chain destination contract map\n    mapping(string => mapping(string => DestnContract)) public destnContractMap;\n\n    // Cross-chain permitted contract map\n    mapping(string => mapping(string => string)) public permittedContractMap;\n\n    // Outsourcing computing result\n    mapping(string => OCResult[]) public ocResult;\n    \n    /**\n     * Send outsourcing computing task to other chain\n     * @param _toChain - to chain name\n     * @param _nums - nums to be accumulated\n     */\n    function sendComputeTask(string calldata _toChain, uint32[] calldata _nums) external {\n        mapping(string => DestnContract) storage map = destnContractMap[_toChain];\n        DestnContract storage destnContract = map[\"receiveComputeTask\"];\n        require(destnContract.used, \"action not registered\");\n\n        // Construct payload\n        Payload memory data;\n        data.items = new PayloadItem[](1);\n        PayloadItem memory item = data.items[0];\n        item.name = \"nums\";\n        item.msgType = MsgType.EvmU32Array;\n        item.value = abi.encode(_nums);\n\n        SQoS[] memory sqos;\n        uint256 id = crossChainCall(\n            _toChain,\n            destnContract.contractAddress,\n            destnContract.funcName,\n            sqos,\n            data,\n            OCComputing.receiveComputeTaskCallback.selector\n        );\n        OCResult storage result = ocResult[_toChain].push();\n\n        uint32 sum = 0;\n        for (uint256 i = 0; i < _nums.length; i++) {\n            sum += _nums[i];\n        }\n        result.expected = sum;\n        result.session = id;\n    }\n\n    /**\n     * Receives outsourcing computing task from other chain\n     * @param _payload - payload which contains nums to be accumulated\n     */\n    function receiveComputeTask(Payload calldata _payload) external returns (uint256) {\n        if (msg.sender != address(crossChainContract)) {\n            return CALLER_NOT_CROSS_CHAIN_CONTRACT;\n        }\n\n        // decode\n        (uint32[] memory _nums) = abi.decode(_payload.items[0].value, (uint32[]));\n        \n        // compute\n        uint ret = 0;\n        for (uint i = 0; i < _nums.length; i++) {\n            ret += _nums[i];\n        }\n\n        // Construct payload\n        Payload memory data;\n        data.items = new PayloadItem[](1);\n        PayloadItem memory item = data.items[0];\n        item.name = \"result\";\n        item.msgType = MsgType.EvmU32;\n        item.value = abi.encode(ret);\n        SQoS[] memory sqos;\n        crossChainRespond(sqos, data);\n\n        return 0;\n    }\n\n    /**\n     * Clear historical messages\n     * @param _chainName - The chain which messages come from\n     */\n    function clear(string calldata _chainName) external onlyOwner {\n        delete ocResult[_chainName];\n    }\n\n    /**\n     * Returns all tasks\n     * @param _chainName - The chain which messages come from\n     */\n    function getResults(string calldata _chainName) external view returns (OCResult[] memory) {\n        return ocResult[_chainName];\n    }\n\n    /**\n     * See IOCComputing\n     */\n    function receiveComputeTaskCallback(Payload calldata _payload) external returns (uint256) {\n        if (msg.sender != address(crossChainContract)) {\n            return CALLER_NOT_CROSS_CHAIN_CONTRACT;\n        }\n\n        (uint32 _result) = abi.decode(_payload.items[0].value, (uint32));\n        SimplifiedMessage memory context = getContext();\n        uint256 index = 0;\n        bool found = false;\n        for (uint256 i = 0; i < ocResult[context.fromChain].length; i++) {\n            if (ocResult[context.fromChain][i].session == context.session.id) {\n                found = true;\n                index = i;\n                break;\n            }\n        }\n\n        if (!found) {\n            return RECORDS_NOT_FOUND;\n        }\n\n        OCResult storage result = ocResult[context.fromChain][index];\n        result.used = true;\n        result.result = _result;\n\n        return 0;\n    }\n\n    ///////////////////////////////////////////////\n    /////    Send messages to other chains   //////\n    ///////////////////////////////////////////////\n\n    /**\n     * Register destination contract info\n     * @param _funcName - function name to be called\n     * @param _toChain - destination chain name\n     * @param _contractAddress - destination contract address\n     * @param _contractFuncName - contract function name\n     */\n    function registerDestnContract(\n        string calldata _funcName,\n        string calldata _toChain,\n        bytes calldata _contractAddress,\n        bytes calldata _contractFuncName\n    ) external onlyOwner {\n        mapping(string => DestnContract) storage map = destnContractMap[_toChain];\n        DestnContract storage destnContract = map[_funcName];\n        destnContract.contractAddress = _contractAddress;\n        destnContract.funcName = _contractFuncName;\n        destnContract.used = true;\n    }\n\n    ///////////////////////////////////////////////\n    ///    Receive messages from other chains   ///\n    ///////////////////////////////////////////////\n\n    /**\n     * Authorize contracts of other chains to call the functions of this contract\n     * @param _chainName - from chain name\n     * @param _sender - sender of cross chain message\n     * @param _funcName - action name which allowed to be invoked\n     */\n    function registerPermittedContract(\n        string calldata _chainName,\n        string calldata _sender,\n        string calldata _funcName\n    ) external onlyOwner {\n        mapping(string => string) storage map = permittedContractMap[\n            _chainName\n        ];\n        map[_funcName] = _sender;\n    }\n\n    /**\n     * This verify method will be invoked by the CrossChain contract automatically, ensure that only registered contract(registerSourceContract) calls are allowed\n     * @param _chainName - chain name of cross chain message\n     * @param _funcName - contract action name of cross chain message\n     * @param _sender - cross chain message sender\n     */\n    //  Will be deprecated soon\n    function verify(\n        string calldata _chainName,\n        bytes4 _funcName,\n        bytes calldata _sender\n    ) public view override returns (bool) {\n        // mapping(string => string) storage map = permittedContractMap[\n        //     _chainName\n        // ];\n        // string storage sender = map[_funcName];\n        // require(\n        //     keccak256(bytes(sender)) == keccak256(bytes(_sender)),\n        //     \"Sender does not match\"\n        // );\n        return true;\n    }\n}\n",
  "sourcePath": "/home/george/program/dante/solidity-contract-template/contracts/OCComputing.sol",
  "compiler": {
    "name": "solc",
    "version": "0.8.10+commit.fc410830.Emscripten.clang"
  },
  "schemaVersion": "3.4.6",
  "updatedAt": "2022-10-18T09:53:06.582Z",
  "devdoc": {
    "kind": "dev",
    "methods": {
      "clear(string)": {
        "params": {
          "_chainName": "- The chain which messages come from"
        }
      },
      "getResults(string)": {
        "params": {
          "_chainName": "- The chain which messages come from"
        }
      },
      "owner()": {
        "details": "Returns the address of the current owner."
      },
      "receiveComputeTask(((string,uint8,bytes)[]))": {
        "params": {
          "_payload": "- payload which contains nums to be accumulated"
        }
      },
      "registerDestnContract(string,string,bytes,bytes)": {
        "params": {
          "_contractAddress": "- destination contract address",
          "_contractFuncName": "- contract function name",
          "_funcName": "- function name to be called",
          "_toChain": "- destination chain name"
        }
      },
      "registerPermittedContract(string,string,string)": {
        "params": {
          "_chainName": "- from chain name",
          "_funcName": "- action name which allowed to be invoked",
          "_sender": "- sender of cross chain message"
        }
      },
      "renounceOwnership()": {
        "details": "Leaves the contract without owner. It will not be possible to call `onlyOwner` functions anymore. Can only be called by the current owner. NOTE: Renouncing ownership will leave the contract without an owner, thereby removing any functionality that is only available to the owner."
      },
      "sendComputeTask(string,uint32[])": {
        "params": {
          "_nums": "- nums to be accumulated",
          "_toChain": "- to chain name"
        }
      },
      "setCrossChainContract(address)": {
        "params": {
          "_address": "- cross chain contract address"
        }
      },
      "transferOwnership(address)": {
        "details": "Transfers ownership of the contract to a new account (`newOwner`). Can only be called by the current owner."
      },
      "verify(string,bytes4,bytes)": {
        "params": {
          "_chainName": "- chain name of cross chain message",
          "_funcName": "- contract action name of cross chain message",
          "_sender": "- cross chain message sender"
        }
      }
    },
    "version": 1
  },
  "userdoc": {
    "kind": "user",
    "methods": {
      "clear(string)": {
        "notice": "Clear historical messages"
      },
      "getResults(string)": {
        "notice": "Returns all tasks"
      },
      "receiveComputeTask(((string,uint8,bytes)[]))": {
        "notice": "Receives outsourcing computing task from other chain"
      },
      "receiveComputeTaskCallback(((string,uint8,bytes)[]))": {
        "notice": "See IOCComputing"
      },
      "registerDestnContract(string,string,bytes,bytes)": {
        "notice": "Register destination contract info"
      },
      "registerPermittedContract(string,string,string)": {
        "notice": "Authorize contracts of other chains to call the functions of this contract"
      },
      "sendComputeTask(string,uint32[])": {
        "notice": "Send outsourcing computing task to other chain"
      },
      "setCrossChainContract(address)": {
        "notice": "Set cross chain contract"
      },
      "verify(string,bytes4,bytes)": {
        "notice": "This verify method will be invoked by the CrossChain contract automatically, ensure that only registered contract(registerSourceContract) calls are allowed"
      }
    },
    "version": 1
  }
}