{
  "contractName": "OCComputing",
  "abi": [
    {
      "anonymous": false,
      "inputs": [
        {
          "indexed": true,
          "internalType": "address",
          "name": "previousOwner",
          "type": "address"
        },
        {
          "indexed": true,
          "internalType": "address",
          "name": "newOwner",
          "type": "address"
        }
      ],
      "name": "OwnershipTransferred",
      "type": "event"
    },
    {
      "inputs": [
        {
          "internalType": "bytes32",
          "name": "",
          "type": "bytes32"
        }
      ],
      "name": "callbackAbis",
      "outputs": [
        {
          "internalType": "string",
          "name": "",
          "type": "string"
        }
      ],
      "stateMutability": "view",
      "type": "function",
      "constant": true
    },
    {
      "inputs": [],
      "name": "crossChainContract",
      "outputs": [
        {
          "internalType": "contract ICrossChain",
          "name": "",
          "type": "address"
        }
      ],
      "stateMutability": "view",
      "type": "function",
      "constant": true
    },
    {
      "inputs": [
        {
          "internalType": "string",
          "name": "",
          "type": "string"
        },
        {
          "internalType": "string",
          "name": "",
          "type": "string"
        }
      ],
      "name": "destnContractMap",
      "outputs": [
        {
          "internalType": "string",
          "name": "contractAddress",
          "type": "string"
        },
        {
          "internalType": "string",
          "name": "funcName",
          "type": "string"
        },
        {
          "internalType": "bool",
          "name": "used",
          "type": "bool"
        }
      ],
      "stateMutability": "view",
      "type": "function",
      "constant": true
    },
    {
      "inputs": [],
      "name": "getContext",
      "outputs": [
        {
          "components": [
            {
              "internalType": "uint256",
              "name": "id",
              "type": "uint256"
            },
            {
              "internalType": "string",
              "name": "fromChain",
              "type": "string"
            },
            {
              "internalType": "string",
              "name": "sender",
              "type": "string"
            },
            {
              "internalType": "string",
              "name": "signer",
              "type": "string"
            },
            {
              "components": [
                {
                  "internalType": "enum SQoSType",
                  "name": "t",
                  "type": "uint8"
                },
                {
                  "internalType": "string",
                  "name": "v",
                  "type": "string"
                }
              ],
              "internalType": "struct SQoS[]",
              "name": "sqos",
              "type": "tuple[]"
            },
            {
              "internalType": "address",
              "name": "contractAddress",
              "type": "address"
            },
            {
              "internalType": "bytes4",
              "name": "action",
              "type": "bytes4"
            },
            {
              "components": [
                {
                  "internalType": "uint256",
                  "name": "id",
                  "type": "uint256"
                },
                {
                  "internalType": "bytes",
                  "name": "callback",
                  "type": "bytes"
                }
              ],
              "internalType": "struct Session",
              "name": "session",
              "type": "tuple"
            }
          ],
          "internalType": "struct SimplifiedMessage",
          "name": "",
          "type": "tuple"
        }
      ],
      "stateMutability": "view",
      "type": "function",
      "constant": true
    },
    {
      "inputs": [
        {
          "internalType": "uint256",
          "name": "",
          "type": "uint256"
        }
      ],
      "name": "ocResult",
      "outputs": [
        {
          "internalType": "bool",
          "name": "used",
          "type": "bool"
        },
        {
          "internalType": "uint256",
          "name": "result",
          "type": "uint256"
        }
      ],
      "stateMutability": "view",
      "type": "function",
      "constant": true
    },
    {
      "inputs": [],
      "name": "owner",
      "outputs": [
        {
          "internalType": "address",
          "name": "",
          "type": "address"
        }
      ],
      "stateMutability": "view",
      "type": "function",
      "constant": true
    },
    {
      "inputs": [
        {
          "internalType": "string",
          "name": "",
          "type": "string"
        },
        {
          "internalType": "string",
          "name": "",
          "type": "string"
        }
      ],
      "name": "permittedContractMap",
      "outputs": [
        {
          "internalType": "string",
          "name": "",
          "type": "string"
        }
      ],
      "stateMutability": "view",
      "type": "function",
      "constant": true
    },
    {
      "inputs": [],
      "name": "renounceOwnership",
      "outputs": [],
      "stateMutability": "nonpayable",
      "type": "function"
    },
    {
      "inputs": [
        {
          "internalType": "address",
          "name": "_address",
          "type": "address"
        }
      ],
      "name": "setCrossChainContract",
      "outputs": [],
      "stateMutability": "nonpayable",
      "type": "function"
    },
    {
      "inputs": [
        {
          "internalType": "address",
          "name": "newOwner",
          "type": "address"
        }
      ],
      "name": "transferOwnership",
      "outputs": [],
      "stateMutability": "nonpayable",
      "type": "function"
    },
    {
      "inputs": [
        {
          "internalType": "string",
          "name": "_toChain",
          "type": "string"
        },
        {
          "internalType": "uint32[]",
          "name": "_nums",
          "type": "uint32[]"
        }
      ],
      "name": "sendComputeTask",
      "outputs": [],
      "stateMutability": "nonpayable",
      "type": "function"
    },
    {
      "inputs": [
        {
          "components": [
            {
              "components": [
                {
                  "internalType": "string",
                  "name": "name",
                  "type": "string"
                },
                {
                  "internalType": "enum MsgType",
                  "name": "msgType",
                  "type": "uint8"
                },
                {
                  "internalType": "bytes",
                  "name": "value",
                  "type": "bytes"
                }
              ],
              "internalType": "struct PayloadItem[]",
              "name": "items",
              "type": "tuple[]"
            }
          ],
          "internalType": "struct Payload",
          "name": "_payload",
          "type": "tuple"
        }
      ],
      "name": "receiveComputeTask",
      "outputs": [],
      "stateMutability": "nonpayable",
      "type": "function"
    },
    {
      "inputs": [
        {
          "components": [
            {
              "components": [
                {
                  "internalType": "string",
                  "name": "name",
                  "type": "string"
                },
                {
                  "internalType": "enum MsgType",
                  "name": "msgType",
                  "type": "uint8"
                },
                {
                  "internalType": "bytes",
                  "name": "value",
                  "type": "bytes"
                }
              ],
              "internalType": "struct PayloadItem[]",
              "name": "items",
              "type": "tuple[]"
            }
          ],
          "internalType": "struct Payload",
          "name": "_payload",
          "type": "tuple"
        }
      ],
      "name": "receiveComputeTaskCallback",
      "outputs": [],
      "stateMutability": "nonpayable",
      "type": "function"
    },
    {
      "inputs": [
        {
          "internalType": "string",
          "name": "_funcName",
          "type": "string"
        },
        {
          "internalType": "string",
          "name": "_toChain",
          "type": "string"
        },
        {
          "internalType": "string",
          "name": "_contractAddress",
          "type": "string"
        },
        {
          "internalType": "string",
          "name": "_contractFuncName",
          "type": "string"
        }
      ],
      "name": "registerDestnContract",
      "outputs": [],
      "stateMutability": "nonpayable",
      "type": "function"
    },
    {
      "inputs": [
        {
          "internalType": "string",
          "name": "_chainName",
          "type": "string"
        },
        {
          "internalType": "string",
          "name": "_sender",
          "type": "string"
        },
        {
          "internalType": "string",
          "name": "_funcName",
          "type": "string"
        }
      ],
      "name": "registerPermittedContract",
      "outputs": [],
      "stateMutability": "nonpayable",
      "type": "function"
    },
    {
      "inputs": [
        {
          "internalType": "string",
          "name": "_chainName",
          "type": "string"
        },
        {
          "internalType": "bytes4",
          "name": "_funcName",
          "type": "bytes4"
        },
        {
          "internalType": "string",
          "name": "_sender",
          "type": "string"
        }
      ],
      "name": "verify",
      "outputs": [
        {
          "internalType": "bool",
          "name": "",
          "type": "bool"
        }
      ],
      "stateMutability": "view",
      "type": "function",
      "constant": true
    }
  ],
  "bytecode": "0x608060405234801561001057600080fd5b5061001a3361001f565b61006f565b600080546001600160a01b038381166001600160a01b0319831681178455604051919092169283917f8be0079c531659141344cd1fd0a4f28419497f9722a3daafe3b4186f6b6457e09190a35050565b611f418061007e6000396000f3fe608060405234801561001057600080fd5b50600436106101005760003560e01c806380899bba11610097578063bb45acd911610066578063bb45acd91461025c578063dbc90de11461026f578063f2fde38b14610282578063fab1564e1461029557600080fd5b806380899bba146101e25780638da5cb5b14610204578063955a5ba414610229578063babe5dd61461024957600080fd5b806347e50a42116100d357806347e50a42146101a1578063715018a6146101b457806379f6793c146101bc5780637fac1127146101cf57600080fd5b80630c5ae33514610105578063127f0f07146101335780631479a73f1461014857806318d72b541461018c575b600080fd5b61011e610113366004611186565b600195945050505050565b60405190151581526020015b60405180910390f35b61013b6102a8565b60405161012a9190611321565b6101756101563660046113fc565b6006602052600090815260409020805460019091015460ff9091169082565b60408051921515835260208301919091520161012a565b61019f61019a36600461142a565b610330565b005b61019f6101af36600461144e565b610385565b61019f610541565b61019f6101ca366004611488565b610577565b61019f6101dd36600461144e565b6105fc565b6101f56101f036600461162f565b6106de565b60405161012a93929190611692565b6000546001600160a01b03165b6040516001600160a01b03909116815260200161012a565b61023c6102373660046113fc565b61083b565b60405161012a91906116ca565b61019f6102573660046116dd565b6108d5565b61023c61026a36600461162f565b61097b565b600154610211906001600160a01b031681565b61019f61029036600461142a565b6109bc565b61019f6102a33660046117a0565b610a57565b6102b0610f68565b600160009054906101000a90046001600160a01b03166001600160a01b0316639af7a48c6040518163ffffffff1660e01b8152600401600060405180830381865afa158015610303573d6000803e3d6000fd5b505050506040513d6000823e601f3d908101601f1916820160405261032b9190810190611a06565b905090565b6000546001600160a01b031633146103635760405162461bcd60e51b815260040161035a90611b2f565b60405180910390fd5b600180546001600160a01b0319166001600160a01b0392909216919091179055565b6001546001600160a01b031633146103df5760405162461bcd60e51b815260206004820181905260248201527f4c6f636b65723a2063616c6c6572206973206e6f742043726f7373436861696e604482015260640161035a565b60006103eb8280611b64565b60008181106103fc576103fc611bad565b905060200281019061040e9190611bc3565b61041c906040810190611be3565b8101906104299190611c3d565b90506000805b82518110156104775782818151811061044a5761044a611bad565b602002602001015163ffffffff16826104639190611cea565b91508061046f81611d02565b91505061042f565b506040805160208101825260608152815160018082528184019093529091816020015b6040805160608082018352808252600060208301529181019190915281526020019060019003908161049a57505080825280516000919082906104df576104df611bad565b60209081029190910181015160408051808201825260068152651c995cdd5b1d60d21b81850152825260038284015280518084018790528151808203909401845281018152810191909152905060606105388184610d44565b50505050505050565b6000546001600160a01b0316331461056b5760405162461bcd60e51b815260040161035a90611b2f565b6105756000610e30565b565b6000546001600160a01b031633146105a15760405162461bcd60e51b815260040161035a90611b2f565b6000600487876040516105b5929190611d1d565b9081526020016040518091039020905084848285856040516105d8929190611d1d565b9081526040519081900360200190206105f2929091610fda565b5050505050505050565b6001546001600160a01b031633146106565760405162461bcd60e51b815260206004820181905260248201527f4c6f636b65723a2063616c6c6572206973206e6f742043726f7373436861696e604482015260640161035a565b60006106628280611b64565b600081811061067357610673611bad565b90506020028101906106859190611bc3565b610693906040810190611be3565b8101906106a09190611d2d565b905060006106ac6102a8565b60e00151516000908152600660205260409020805460ff19166001908117825563ffffffff9093169201919091555050565b8151602081840181018051600382529282019482019490942091909352815180830184018051928152908401929093019190912091528054819061072190611d48565b80601f016020809104026020016040519081016040528092919081815260200182805461074d90611d48565b801561079a5780601f1061076f5761010080835404028352916020019161079a565b820191906000526020600020905b81548152906001019060200180831161077d57829003601f168201915b5050505050908060010180546107af90611d48565b80601f01602080910402602001604051908101604052809291908181526020018280546107db90611d48565b80156108285780601f106107fd57610100808354040283529160200191610828565b820191906000526020600020905b81548152906001019060200180831161080b57829003601f168201915b5050506002909301549192505060ff1683565b6002602052600090815260409020805461085490611d48565b80601f016020809104026020016040519081016040528092919081815260200182805461088090611d48565b80156108cd5780601f106108a2576101008083540402835291602001916108cd565b820191906000526020600020905b8154815290600101906020018083116108b057829003601f168201915b505050505081565b6000546001600160a01b031633146108ff5760405162461bcd60e51b815260040161035a90611b2f565b600060038787604051610913929190611d1d565b908152602001604051809103902090506000818a8a604051610936929190611d1d565b9081526040519081900360200190209050610952818787610fda565b50610961600182018585610fda565b50600201805460ff19166001179055505050505050505050565b815160208184018101805160048252928201948201949094209190935281518083018401805192815290840192909301919091209152805461085490611d48565b6000546001600160a01b031633146109e65760405162461bcd60e51b815260040161035a90611b2f565b6001600160a01b038116610a4b5760405162461bcd60e51b815260206004820152602660248201527f4f776e61626c653a206e6577206f776e657220697320746865207a65726f206160448201526564647265737360d01b606482015260840161035a565b610a5481610e30565b50565b600060038585604051610a6b929190611d1d565b9081526040519081900360200181207172656365697665436f6d707574655461736b60701b825291506000908290601201908152604051908190036020019020600281015490915060ff16610afa5760405162461bcd60e51b81526020600482015260156024820152741858dd1a5bdb881b9bdd081c9959da5cdd195c9959605a1b604482015260640161035a565b6040805160208101825260608152815160018082528184019093529091816020015b60408051606080820183528082526000602083015291810191909152815260200190600190039081610b1c5750508082528051600091908290610b6157610b61611bad565b60209081029190910181015160408051808201825260048152636e756d7360e01b818501528252600e8284015251909250610ba0918891889101611d83565b604051602081830303815290604052816040018190525060606000610d1b8a8a8080601f016020809104026020016040519081016040528093929190818152602001838380828437600092019190915250508854899250610c019150611d48565b80601f0160208091040260200160405190810160405280929190818152602001828054610c2d90611d48565b8015610c7a5780601f10610c4f57610100808354040283529160200191610c7a565b820191906000526020600020905b815481529060010190602001808311610c5d57829003601f168201915b5050505050876001018054610c8e90611d48565b80601f0160208091040260200160405190810160405280929190818152602001828054610cba90611d48565b8015610d075780601f10610cdc57610100808354040283529160200191610d07565b820191906000526020600020905b815481529060010190602001808311610cea57829003601f168201915b50505050508588637fac112760e01b610e80565b6000818152600560205260409020909150610d3790898961105e565b5050505050505050505050565b600080610d4f6102a8565b9050610d596110a1565b6020808301518252818101869052604080518082018252845181528151808401835260008152818401526060808501919091528151908101825281850151815260e085015183015192810192909252818101869052808301919091526001549051636e0520a160e01b81526001600160a01b0390911690636e0520a190610de4908490600401611dc1565b6020604051808303816000875af1158015610e03573d6000803e3d6000fd5b505050506040513d601f19601f82011682018060405250810190610e279190611ef2565b95945050505050565b600080546001600160a01b038381166001600160a01b0319831681178455604051919092169283917f8be0079c531659141344cd1fd0a4f28419497f9722a3daafe3b4186f6b6457e09190a35050565b6000610e8a6110a1565b87815260208082018690526040805180820182526000815281516001600160e01b031987168185015282516004818303810182526024909201845282850152606080860192909252825191820183528a8252928101899052808201879052818401526001549051636e0520a160e01b81526001600160a01b0390911691636e0520a191610f1991859101611dc1565b6020604051808303816000875af1158015610f38573d6000803e3d6000fd5b505050506040513d601f19601f82011682018060405250810190610f5c9190611ef2565b98975050505050505050565b604051806101000160405280600081526020016060815260200160608152602001606081526020016060815260200160006001600160a01b0316815260200160006001600160e01b0319168152602001610fd5604051806040016040528060008152602001606081525090565b905290565b828054610fe690611d48565b90600052602060002090601f016020900481019282611008576000855561104e565b82601f106110215782800160ff1982351617855561104e565b8280016001018555821561104e579182015b8281111561104e578235825591602001919060010190611033565b5061105a9291506110e4565b5090565b82805482825590600052602060002090810192821561104e579160200282015b8281111561104e5763ffffffff833516825560209092019160019091019061107e565b604051806080016040528060608152602001606081526020016110c26110f9565b8152602001610fd5604051806040016040528060008152602001606081525090565b5b8082111561105a57600081556001016110e5565b60405180606001604052806060815260200160608152602001610fd56040518060200160405280606081525090565b60008083601f84011261113a57600080fd5b5081356001600160401b0381111561115157600080fd5b60208301915083602082850101111561116957600080fd5b9250929050565b6001600160e01b031981168114610a5457600080fd5b60008060008060006060868803121561119e57600080fd5b85356001600160401b03808211156111b557600080fd5b6111c189838a01611128565b9097509550602088013591506111d682611170565b909350604087013590808211156111ec57600080fd5b506111f988828901611128565b969995985093965092949392505050565b60005b8381101561122557818101518382015260200161120d565b83811115611234576000848401525b50505050565b6000815180845261125281602086016020860161120a565b601f01601f19169290920160200192915050565b634e487b7160e01b600052602160045260246000fd5b600082825180855260208086019550808260051b84010181860160005b848110156112ed57601f19868403018952815160408151600981106112c0576112c0611266565b855290850151858501829052906112d98186018361123a565b9a86019a9450505090830190600101611299565b5090979650505050505050565b805182526000602082015160406020850152611319604085018261123a565b949350505050565b60208152815160208201526000602083015161010080604085015261134a61012085018361123a565b91506040850151601f1980868503016060870152611368848361123a565b93506060870151915080868503016080870152611385848361123a565b935060808701519150808685030160a08701526113a2848361127c565b935060a087015191506113c060c08701836001600160a01b03169052565b60c08701516001600160e01b0319811660e0880152915060e08701519150808685030183870152506113f283826112fa565b9695505050505050565b60006020828403121561140e57600080fd5b5035919050565b6001600160a01b0381168114610a5457600080fd5b60006020828403121561143c57600080fd5b813561144781611415565b9392505050565b60006020828403121561146057600080fd5b81356001600160401b0381111561147657600080fd5b82016020818503121561144757600080fd5b600080600080600080606087890312156114a157600080fd5b86356001600160401b03808211156114b857600080fd5b6114c48a838b01611128565b909850965060208901359150808211156114dd57600080fd5b6114e98a838b01611128565b9096509450604089013591508082111561150257600080fd5b5061150f89828a01611128565b979a9699509497509295939492505050565b634e487b7160e01b600052604160045260246000fd5b604080519081016001600160401b038111828210171561155957611559611521565b60405290565b60405161010081016001600160401b038111828210171561155957611559611521565b604051601f8201601f191681016001600160401b03811182821017156115aa576115aa611521565b604052919050565b60006001600160401b038211156115cb576115cb611521565b50601f01601f191660200190565b600082601f8301126115ea57600080fd5b81356115fd6115f8826115b2565b611582565b81815284602083860101111561161257600080fd5b816020850160208301376000918101602001919091529392505050565b6000806040838503121561164257600080fd5b82356001600160401b038082111561165957600080fd5b611665868387016115d9565b9350602085013591508082111561167b57600080fd5b50611688858286016115d9565b9150509250929050565b6060815260006116a5606083018661123a565b82810360208401526116b7818661123a565b9150508215156040830152949350505050565b602081526000611447602083018461123a565b6000806000806000806000806080898b0312156116f957600080fd5b88356001600160401b038082111561171057600080fd5b61171c8c838d01611128565b909a50985060208b013591508082111561173557600080fd5b6117418c838d01611128565b909850965060408b013591508082111561175a57600080fd5b6117668c838d01611128565b909650945060608b013591508082111561177f57600080fd5b5061178c8b828c01611128565b999c989b5096995094979396929594505050565b600080600080604085870312156117b657600080fd5b84356001600160401b03808211156117cd57600080fd5b6117d988838901611128565b909650945060208701359150808211156117f257600080fd5b818701915087601f83011261180657600080fd5b81358181111561181557600080fd5b8860208260051b850101111561182a57600080fd5b95989497505060200194505050565b60006118476115f8846115b2565b905082815283838301111561185b57600080fd5b61144783602083018461120a565b600082601f83011261187a57600080fd5b61144783835160208501611839565b60006001600160401b038211156118a2576118a2611521565b5060051b60200190565b600082601f8301126118bd57600080fd5b815160206118cd6115f883611889565b82815260059290921b840181019181810190868411156118ec57600080fd5b8286015b8481101561197b5780516001600160401b03808211156119105760008081fd5b908801906040828b03601f190181131561192a5760008081fd5b611932611537565b87840151600981106119445760008081fd5b81529083015190828211156119595760008081fd5b6119678c8984870101611869565b8189015286525050509183019183016118f0565b509695505050505050565b805161199181611415565b919050565b805161199181611170565b6000604082840312156119b357600080fd5b6119bb611537565b90508151815260208201516001600160401b038111156119da57600080fd5b8201601f810184136119eb57600080fd5b6119fa84825160208401611839565b60208301525092915050565b600060208284031215611a1857600080fd5b81516001600160401b0380821115611a2f57600080fd5b908301906101008286031215611a4457600080fd5b611a4c61155f565b82518152602083015182811115611a6257600080fd5b611a6e87828601611869565b602083015250604083015182811115611a8657600080fd5b611a9287828601611869565b604083015250606083015182811115611aaa57600080fd5b611ab687828601611869565b606083015250608083015182811115611ace57600080fd5b611ada878286016118ac565b608083015250611aec60a08401611986565b60a0820152611afd60c08401611996565b60c082015260e083015182811115611b1457600080fd5b611b20878286016119a1565b60e08301525095945050505050565b6020808252818101527f4f776e61626c653a2063616c6c6572206973206e6f7420746865206f776e6572604082015260600190565b6000808335601e19843603018112611b7b57600080fd5b8301803591506001600160401b03821115611b9557600080fd5b6020019150600581901b360382131561116957600080fd5b634e487b7160e01b600052603260045260246000fd5b60008235605e19833603018112611bd957600080fd5b9190910192915050565b6000808335601e19843603018112611bfa57600080fd5b8301803591506001600160401b03821115611c1457600080fd5b60200191503681900382131561116957600080fd5b803563ffffffff8116811461199157600080fd5b60006020808385031215611c5057600080fd5b82356001600160401b03811115611c6657600080fd5b8301601f81018513611c7757600080fd5b8035611c856115f882611889565b81815260059190911b82018301908381019087831115611ca457600080fd5b928401925b82841015611cc957611cba84611c29565b82529284019290840190611ca9565b979650505050505050565b634e487b7160e01b600052601160045260246000fd5b60008219821115611cfd57611cfd611cd4565b500190565b6000600019821415611d1657611d16611cd4565b5060010190565b8183823760009101908152919050565b600060208284031215611d3f57600080fd5b61144782611c29565b600181811c90821680611d5c57607f821691505b60208210811415611d7d57634e487b7160e01b600052602260045260246000fd5b50919050565b60208082528181018390526000908460408401835b8681101561197b5763ffffffff611dae84611c29565b1682529183019190830190600101611d98565b600060208083528351608082850152611ddd60a085018261123a565b905081850151601f196040818785030181880152611dfb848461127c565b935080880151925060608288860301818901528351818652611e1f8287018261123a565b90508685015186820388880152611e36828261123a565b9584015187870397850197909752505093518584528051868501819052600581901b850183019591870194908382019060005b81811015611ed157838903603f1901835287518051868b52611e8d878c018261123a565b90508b82015160168110611ea357611ea3611266565b8b8d0152908701518a8203888c015290611ebd818361123a565b9a5050509689019691890191600101611e69565b505050508801518785039092016080880152509250610e27905081836112fa565b600060208284031215611f0457600080fd5b505191905056fea264697066735822122042f1e585feaff99895baad159106995b15e88b73d4d4d87b96de8a059af4e3a264736f6c634300080a0033",
  "immutableReferences": {},
  "source": "// SPDX-License-Identifier: MIT\npragma solidity >=0.8.0 <0.9.0;\n\nimport \"@openzeppelin/contracts/access/Ownable.sol\";\nimport \"./CrossChain/ContractAdvanced.sol\";\n\n// `OCComputing` is an example of multi-chain services with necessary implementations in `ContractAdvanced`, which provides basic cross-chain call interfaces.\ncontract OCComputing is ContractAdvanced {\n    // Destination contract info\n    struct DestnContract {\n        string contractAddress; // destination contract address\n        string funcName; // destination contract action name\n        bool used;\n    }\n\n    struct OCResult {\n        bool used;\n        uint256 result;\n    }\n\n    // Cross-chain destination contract map\n    mapping(string => mapping(string => DestnContract)) public destnContractMap;\n\n    // Cross-chain permitted contract map\n    mapping(string => mapping(string => string)) public permittedContractMap;\n\n    // Outsourcing computing data cache\n    mapping(uint256 => uint256[]) cachedData;\n    // Outsourcing computing result\n    mapping(uint256 => OCResult) public ocResult;\n    \n    /**\n     * Send outsourcing computing task to other chain\n     * @param _toChain - to chain name\n     * @param _nums - nums to be accumulated\n     */\n    function sendComputeTask(string calldata _toChain, uint32[] calldata _nums) external {\n        mapping(string => DestnContract) storage map = destnContractMap[_toChain];\n        DestnContract storage destnContract = map[\"receiveComputeTask\"];\n        require(destnContract.used, \"action not registered\");\n\n        // Construct payload\n        Payload memory data;\n        data.items = new PayloadItem[](1);\n        PayloadItem memory item = data.items[0];\n        item.name = \"nums\";\n        item.msgType = MsgType.EvmU32Array;\n        item.value = abi.encode(_nums);\n\n        SQoS[] memory sqos;\n        uint id = crossChainCall(\n            _toChain,\n            destnContract.contractAddress,\n            destnContract.funcName,\n            sqos,\n            data,\n            OCComputing.receiveComputeTaskCallback.selector\n        );\n        cachedData[id] = _nums;\n    }\n\n    /**\n     * Receives outsourcing computing task from other chain\n     * @param _payload - payload which contains nums to be accumulated\n     */\n    function receiveComputeTask(Payload calldata _payload) external {\n        require(\n            msg.sender == address(crossChainContract),\n            \"Locker: caller is not CrossChain\"\n        );\n\n        // decode\n        (uint32[] memory _nums) = abi.decode(_payload.items[0].value, (uint32[]));\n        \n        // compute\n        uint ret = 0;\n        for (uint i = 0; i < _nums.length; i++) {\n            ret += _nums[i];\n        }\n\n        // Construct payload\n        Payload memory data;\n        data.items = new PayloadItem[](1);\n        PayloadItem memory item = data.items[0];\n        item.name = \"result\";\n        item.msgType = MsgType.EvmU32;\n        item.value = abi.encode(ret);\n        SQoS[] memory sqos;\n        crossChainRespond(sqos, data);\n    }\n\n    /**\n     * See IOCComputing\n     */\n    function receiveComputeTaskCallback(Payload calldata _payload) external {\n        require(\n            msg.sender == address(crossChainContract),\n            \"Locker: caller is not CrossChain\"\n        );\n\n        (uint32 _result) = abi.decode(_payload.items[0].value, (uint32));\n        SimplifiedMessage memory context = getContext();\n        OCResult storage result = ocResult[context.session.id];\n        result.used = true;\n        result.result = _result;\n    }\n\n    ///////////////////////////////////////////////\n    /////    Send messages to other chains   //////\n    ///////////////////////////////////////////////\n\n    /**\n     * Register destination contract info\n     * @param _funcName - function name to be called\n     * @param _toChain - destination chain name\n     * @param _contractAddress - destination contract address\n     * @param _contractFuncName - contract function name\n     */\n    function registerDestnContract(\n        string calldata _funcName,\n        string calldata _toChain,\n        string calldata _contractAddress,\n        string calldata _contractFuncName\n    ) external onlyOwner {\n        mapping(string => DestnContract) storage map = destnContractMap[_toChain];\n        DestnContract storage destnContract = map[_funcName];\n        destnContract.contractAddress = _contractAddress;\n        destnContract.funcName = _contractFuncName;\n        destnContract.used = true;\n    }\n\n    ///////////////////////////////////////////////\n    ///    Receive messages from other chains   ///\n    ///////////////////////////////////////////////\n\n    /**\n     * Authorize contracts of other chains to call the functions of this contract\n     * @param _chainName - from chain name\n     * @param _sender - sender of cross chain message\n     * @param _funcName - action name which allowed to be invoked\n     */\n    function registerPermittedContract(\n        string calldata _chainName,\n        string calldata _sender,\n        string calldata _funcName\n    ) external onlyOwner {\n        mapping(string => string) storage map = permittedContractMap[\n            _chainName\n        ];\n        map[_funcName] = _sender;\n    }\n\n    /**\n     * This verify method will be invoked by the CrossChain contract automatically, ensure that only registered contract(registerSourceContract) calls are allowed\n     * @param _chainName - chain name of cross chain message\n     * @param _funcName - contract action name of cross chain message\n     * @param _sender - cross chain message sender\n     */\n    //  Will be deprecated soon\n    function verify(\n        string calldata _chainName,\n        bytes4 _funcName,\n        string calldata _sender\n    ) public view virtual returns (bool) {\n        // mapping(string => string) storage map = permittedContractMap[\n        //     _chainName\n        // ];\n        // string storage sender = map[_funcName];\n        // require(\n        //     keccak256(bytes(sender)) == keccak256(bytes(_sender)),\n        //     \"Sender does not match\"\n        // );\n        return true;\n    }\n}\n",
  "sourcePath": "/home/george/program/dante/solidity-contract-template/contracts/OCComputing.sol",
  "compiler": {
    "name": "solc",
    "version": "0.8.10+commit.fc410830.Emscripten.clang"
  },
  "schemaVersion": "3.4.6",
  "updatedAt": "2022-07-04T06:56:44.107Z",
  "networkType": "ethereum",
  "devdoc": {
    "kind": "dev",
    "methods": {
      "owner()": {
        "details": "Returns the address of the current owner."
      },
      "receiveComputeTask(((string,uint8,bytes)[]))": {
        "params": {
          "_payload": "- payload which contains nums to be accumulated"
        }
      },
      "registerDestnContract(string,string,string,string)": {
        "params": {
          "_contractAddress": "- destination contract address",
          "_contractFuncName": "- contract function name",
          "_funcName": "- function name to be called",
          "_toChain": "- destination chain name"
        }
      },
      "registerPermittedContract(string,string,string)": {
        "params": {
          "_chainName": "- from chain name",
          "_funcName": "- action name which allowed to be invoked",
          "_sender": "- sender of cross chain message"
        }
      },
      "renounceOwnership()": {
        "details": "Leaves the contract without owner. It will not be possible to call `onlyOwner` functions anymore. Can only be called by the current owner. NOTE: Renouncing ownership will leave the contract without an owner, thereby removing any functionality that is only available to the owner."
      },
      "sendComputeTask(string,uint32[])": {
        "params": {
          "_nums": "- nums to be accumulated",
          "_toChain": "- to chain name"
        }
      },
      "setCrossChainContract(address)": {
        "params": {
          "_address": "- cross chain contract address"
        }
      },
      "transferOwnership(address)": {
        "details": "Transfers ownership of the contract to a new account (`newOwner`). Can only be called by the current owner."
      },
      "verify(string,bytes4,string)": {
        "params": {
          "_chainName": "- chain name of cross chain message",
          "_funcName": "- contract action name of cross chain message",
          "_sender": "- cross chain message sender"
        }
      }
    },
    "version": 1
  },
  "userdoc": {
    "kind": "user",
    "methods": {
      "receiveComputeTask(((string,uint8,bytes)[]))": {
        "notice": "Receives outsourcing computing task from other chain"
      },
      "receiveComputeTaskCallback(((string,uint8,bytes)[]))": {
        "notice": "See IOCComputing"
      },
      "registerDestnContract(string,string,string,string)": {
        "notice": "Register destination contract info"
      },
      "registerPermittedContract(string,string,string)": {
        "notice": "Authorize contracts of other chains to call the functions of this contract"
      },
      "sendComputeTask(string,uint32[])": {
        "notice": "Send outsourcing computing task to other chain"
      },
      "setCrossChainContract(address)": {
        "notice": "Set cross chain contract"
      },
      "verify(string,bytes4,string)": {
        "notice": "This verify method will be invoked by the CrossChain contract automatically, ensure that only registered contract(registerSourceContract) calls are allowed"
      }
    },
    "version": 1
  }
}