{
  "contractName": "OCComputing",
  "abi": [
    {
      "anonymous": false,
      "inputs": [
        {
          "indexed": true,
          "internalType": "address",
          "name": "previousOwner",
          "type": "address"
        },
        {
          "indexed": true,
          "internalType": "address",
          "name": "newOwner",
          "type": "address"
        }
      ],
      "name": "OwnershipTransferred",
      "type": "event"
    },
    {
      "inputs": [
        {
          "internalType": "bytes32",
          "name": "",
          "type": "bytes32"
        }
      ],
      "name": "callbackAbis",
      "outputs": [
        {
          "internalType": "string",
          "name": "",
          "type": "string"
        }
      ],
      "stateMutability": "view",
      "type": "function",
      "constant": true
    },
    {
      "inputs": [],
      "name": "crossChainContract",
      "outputs": [
        {
          "internalType": "contract ICrossChain",
          "name": "",
          "type": "address"
        }
      ],
      "stateMutability": "view",
      "type": "function",
      "constant": true
    },
    {
      "inputs": [
        {
          "internalType": "string",
          "name": "",
          "type": "string"
        },
        {
          "internalType": "string",
          "name": "",
          "type": "string"
        }
      ],
      "name": "destnContractMap",
      "outputs": [
        {
          "internalType": "bytes",
          "name": "contractAddress",
          "type": "bytes"
        },
        {
          "internalType": "bytes",
          "name": "funcName",
          "type": "bytes"
        },
        {
          "internalType": "bool",
          "name": "used",
          "type": "bool"
        }
      ],
      "stateMutability": "view",
      "type": "function",
      "constant": true
    },
    {
      "inputs": [],
      "name": "getContext",
      "outputs": [
        {
          "components": [
            {
              "internalType": "uint256",
              "name": "id",
              "type": "uint256"
            },
            {
              "internalType": "string",
              "name": "fromChain",
              "type": "string"
            },
            {
              "internalType": "bytes",
              "name": "sender",
              "type": "bytes"
            },
            {
              "internalType": "bytes",
              "name": "signer",
              "type": "bytes"
            },
            {
              "components": [
                {
                  "internalType": "enum SQoSType",
                  "name": "t",
                  "type": "uint8"
                },
                {
                  "internalType": "bytes",
                  "name": "v",
                  "type": "bytes"
                }
              ],
              "internalType": "struct SQoS[]",
              "name": "sqos",
              "type": "tuple[]"
            },
            {
              "internalType": "address",
              "name": "contractAddress",
              "type": "address"
            },
            {
              "internalType": "bytes4",
              "name": "action",
              "type": "bytes4"
            },
            {
              "components": [
                {
                  "internalType": "uint256",
                  "name": "id",
                  "type": "uint256"
                },
                {
                  "internalType": "bytes",
                  "name": "callback",
                  "type": "bytes"
                }
              ],
              "internalType": "struct Session",
              "name": "session",
              "type": "tuple"
            }
          ],
          "internalType": "struct SimplifiedMessage",
          "name": "",
          "type": "tuple"
        }
      ],
      "stateMutability": "view",
      "type": "function",
      "constant": true
    },
    {
      "inputs": [
        {
          "internalType": "string",
          "name": "",
          "type": "string"
        },
        {
          "internalType": "uint256",
          "name": "",
          "type": "uint256"
        }
      ],
      "name": "ocResult",
      "outputs": [
        {
          "internalType": "bool",
          "name": "used",
          "type": "bool"
        },
        {
          "internalType": "uint256",
          "name": "result",
          "type": "uint256"
        }
      ],
      "stateMutability": "view",
      "type": "function",
      "constant": true
    },
    {
      "inputs": [],
      "name": "owner",
      "outputs": [
        {
          "internalType": "address",
          "name": "",
          "type": "address"
        }
      ],
      "stateMutability": "view",
      "type": "function",
      "constant": true
    },
    {
      "inputs": [
        {
          "internalType": "string",
          "name": "",
          "type": "string"
        },
        {
          "internalType": "string",
          "name": "",
          "type": "string"
        }
      ],
      "name": "permittedContractMap",
      "outputs": [
        {
          "internalType": "string",
          "name": "",
          "type": "string"
        }
      ],
      "stateMutability": "view",
      "type": "function",
      "constant": true
    },
    {
      "inputs": [],
      "name": "renounceOwnership",
      "outputs": [],
      "stateMutability": "nonpayable",
      "type": "function"
    },
    {
      "inputs": [
        {
          "internalType": "address",
          "name": "_address",
          "type": "address"
        }
      ],
      "name": "setCrossChainContract",
      "outputs": [],
      "stateMutability": "nonpayable",
      "type": "function"
    },
    {
      "inputs": [
        {
          "internalType": "address",
          "name": "newOwner",
          "type": "address"
        }
      ],
      "name": "transferOwnership",
      "outputs": [],
      "stateMutability": "nonpayable",
      "type": "function"
    },
    {
      "inputs": [
        {
          "internalType": "string",
          "name": "_toChain",
          "type": "string"
        },
        {
          "internalType": "uint32[]",
          "name": "_nums",
          "type": "uint32[]"
        }
      ],
      "name": "sendComputeTask",
      "outputs": [],
      "stateMutability": "nonpayable",
      "type": "function"
    },
    {
      "inputs": [
        {
          "components": [
            {
              "components": [
                {
                  "internalType": "string",
                  "name": "name",
                  "type": "string"
                },
                {
                  "internalType": "enum MsgType",
                  "name": "msgType",
                  "type": "uint8"
                },
                {
                  "internalType": "bytes",
                  "name": "value",
                  "type": "bytes"
                }
              ],
              "internalType": "struct PayloadItem[]",
              "name": "items",
              "type": "tuple[]"
            }
          ],
          "internalType": "struct Payload",
          "name": "_payload",
          "type": "tuple"
        }
      ],
      "name": "receiveComputeTask",
      "outputs": [
        {
          "internalType": "uint256",
          "name": "",
          "type": "uint256"
        }
      ],
      "stateMutability": "nonpayable",
      "type": "function"
    },
    {
      "inputs": [
        {
          "components": [
            {
              "components": [
                {
                  "internalType": "string",
                  "name": "name",
                  "type": "string"
                },
                {
                  "internalType": "enum MsgType",
                  "name": "msgType",
                  "type": "uint8"
                },
                {
                  "internalType": "bytes",
                  "name": "value",
                  "type": "bytes"
                }
              ],
              "internalType": "struct PayloadItem[]",
              "name": "items",
              "type": "tuple[]"
            }
          ],
          "internalType": "struct Payload",
          "name": "_payload",
          "type": "tuple"
        }
      ],
      "name": "receiveComputeTaskCallback",
      "outputs": [
        {
          "internalType": "uint256",
          "name": "",
          "type": "uint256"
        }
      ],
      "stateMutability": "nonpayable",
      "type": "function"
    },
    {
      "inputs": [
        {
          "internalType": "string",
          "name": "_funcName",
          "type": "string"
        },
        {
          "internalType": "string",
          "name": "_toChain",
          "type": "string"
        },
        {
          "internalType": "bytes",
          "name": "_contractAddress",
          "type": "bytes"
        },
        {
          "internalType": "bytes",
          "name": "_contractFuncName",
          "type": "bytes"
        }
      ],
      "name": "registerDestnContract",
      "outputs": [],
      "stateMutability": "nonpayable",
      "type": "function"
    },
    {
      "inputs": [
        {
          "internalType": "string",
          "name": "_chainName",
          "type": "string"
        },
        {
          "internalType": "string",
          "name": "_sender",
          "type": "string"
        },
        {
          "internalType": "string",
          "name": "_funcName",
          "type": "string"
        }
      ],
      "name": "registerPermittedContract",
      "outputs": [],
      "stateMutability": "nonpayable",
      "type": "function"
    },
    {
      "inputs": [
        {
          "internalType": "string",
          "name": "_chainName",
          "type": "string"
        },
        {
          "internalType": "bytes4",
          "name": "_funcName",
          "type": "bytes4"
        },
        {
          "internalType": "bytes",
          "name": "_sender",
          "type": "bytes"
        }
      ],
      "name": "verify",
      "outputs": [
        {
          "internalType": "bool",
          "name": "",
          "type": "bool"
        }
      ],
      "stateMutability": "view",
      "type": "function",
      "constant": true
    }
  ],
  "bytecode": "0x608060405234801561001057600080fd5b5061001a3361001f565b61006f565b600080546001600160a01b038381166001600160a01b0319831681178455604051919092169283917f8be0079c531659141344cd1fd0a4f28419497f9722a3daafe3b4186f6b6457e09190a35050565b611f5d8061007e6000396000f3fe608060405234801561001057600080fd5b50600436106101005760003560e01c80638da5cb5b11610097578063dbc90de111610066578063dbc90de114610289578063f2fde38b1461029c578063f50db507146102af578063fab1564e146102c257600080fd5b80638da5cb5b146101d2578063955a5ba4146101f7578063bb45acd914610217578063d64bf05a1461022a57600080fd5b8063715018a6116100d3578063715018a61461018257806379f6793c1461018a5780637fac11271461019d57806380899bba146101b057600080fd5b8063127f0f071461010557806318d72b541461012357806347e50a42146101385780634944e68614610159575b600080fd5b61010d6102d5565b60405161011a9190611224565b60405180910390f35b610136610131366004611314565b61035d565b005b61014b610146366004611338565b6103b2565b60405190815260200161011a565b6101726101673660046113d0565b600195945050505050565b604051901515815260200161011a565b610136610536565b610136610198366004611454565b61056c565b61014b6101ab366004611338565b6105f1565b6101c36101be3660046115fb565b6106c3565b60405161011a9392919061165e565b6000546001600160a01b03165b6040516001600160a01b03909116815260200161011a565b61020a610205366004611696565b610820565b60405161011a91906116af565b61020a6102253660046115fb565b6108ba565b6102726102383660046116c2565b8151602081840181018051600682529282019482019490942091909352909152600090815260409020805460019091015460ff9091169082565b60408051921515835260208301919091520161011a565b6001546101df906001600160a01b031681565b6101366102aa366004611314565b6108fb565b6101366102bd366004611706565b610996565b6101366102d03660046117c9565b610a3c565b6102dd610f4d565b600160009054906101000a90046001600160a01b03166001600160a01b0316639af7a48c6040518163ffffffff1660e01b8152600401600060405180830381865afa158015610330573d6000803e3d6000fd5b505050506040513d6000823e601f3d908101601f191682016040526103589190810190611a10565b905090565b6000546001600160a01b031633146103905760405162461bcd60e51b815260040161038790611b39565b60405180910390fd5b600180546001600160a01b0319166001600160a01b0392909216919091179055565b6001546000906001600160a01b031633146103cf57506064919050565b60006103db8380611b6e565b60008181106103ec576103ec611bb7565b90506020028101906103fe9190611bcd565b61040c906040810190611bed565b8101906104199190611c47565b90506000805b82518110156104675782818151811061043a5761043a611bb7565b602002602001015163ffffffff16826104539190611cf4565b91508061045f81611d0c565b91505061041f565b506040805160208101825260608152815160018082528184019093529091816020015b6040805160608082018352808252600060208301529181019190915281526020019060019003908161048a57505080825280516000919082906104cf576104cf611bb7565b60209081029190910181015160408051808201825260068152651c995cdd5b1d60d21b81850152825260038284015280518084018790528151808203909401845281018152810191909152905060606105288184610d29565b506000979650505050505050565b6000546001600160a01b031633146105605760405162461bcd60e51b815260040161038790611b39565b61056a6000610e15565b565b6000546001600160a01b031633146105965760405162461bcd60e51b815260040161038790611b39565b6000600487876040516105aa929190611d27565b9081526020016040518091039020905084848285856040516105cd929190611d27565b9081526040519081900360200190206105e7929091610fbf565b5050505050505050565b6001546000906001600160a01b0316331461060e57506064919050565b600061061a8380611b6e565b600081811061062b5761062b611bb7565b905060200281019061063d9190611bcd565b61064b906040810190611bed565b8101906106589190611d37565b905060006106646102d5565b905060006006826020015160405161067c9190611d52565b9081526040805191829003602090810190922060e090940151516000908152939091528220805460ff19166001908117825563ffffffff9094169301929092559392505050565b8151602081840181018051600382529282019482019490942091909352815180830184018051928152908401929093019190912091528054819061070690611d64565b80601f016020809104026020016040519081016040528092919081815260200182805461073290611d64565b801561077f5780601f106107545761010080835404028352916020019161077f565b820191906000526020600020905b81548152906001019060200180831161076257829003601f168201915b50505050509080600101805461079490611d64565b80601f01602080910402602001604051908101604052809291908181526020018280546107c090611d64565b801561080d5780601f106107e25761010080835404028352916020019161080d565b820191906000526020600020905b8154815290600101906020018083116107f057829003601f168201915b5050506002909301549192505060ff1683565b6002602052600090815260409020805461083990611d64565b80601f016020809104026020016040519081016040528092919081815260200182805461086590611d64565b80156108b25780601f10610887576101008083540402835291602001916108b2565b820191906000526020600020905b81548152906001019060200180831161089557829003601f168201915b505050505081565b815160208184018101805160048252928201948201949094209190935281518083018401805192815290840192909301919091209152805461083990611d64565b6000546001600160a01b031633146109255760405162461bcd60e51b815260040161038790611b39565b6001600160a01b03811661098a5760405162461bcd60e51b815260206004820152602660248201527f4f776e61626c653a206e6577206f776e657220697320746865207a65726f206160448201526564647265737360d01b6064820152608401610387565b61099381610e15565b50565b6000546001600160a01b031633146109c05760405162461bcd60e51b815260040161038790611b39565b6000600387876040516109d4929190611d27565b908152602001604051809103902090506000818a8a6040516109f7929190611d27565b9081526040519081900360200190209050610a13818787610fbf565b50610a22600182018585610fbf565b50600201805460ff19166001179055505050505050505050565b600060038585604051610a50929190611d27565b9081526040519081900360200181207172656365697665436f6d707574655461736b60701b825291506000908290601201908152604051908190036020019020600281015490915060ff16610adf5760405162461bcd60e51b81526020600482015260156024820152741858dd1a5bdb881b9bdd081c9959da5cdd195c9959605a1b6044820152606401610387565b6040805160208101825260608152815160018082528184019093529091816020015b60408051606080820183528082526000602083015291810191909152815260200190600190039081610b015750508082528051600091908290610b4657610b46611bb7565b60209081029190910181015160408051808201825260048152636e756d7360e01b818501528252600e8284015251909250610b85918891889101611d9f565b604051602081830303815290604052816040018190525060606000610d008a8a8080601f016020809104026020016040519081016040528093929190818152602001838380828437600092019190915250508854899250610be69150611d64565b80601f0160208091040260200160405190810160405280929190818152602001828054610c1290611d64565b8015610c5f5780601f10610c3457610100808354040283529160200191610c5f565b820191906000526020600020905b815481529060010190602001808311610c4257829003601f168201915b5050505050876001018054610c7390611d64565b80601f0160208091040260200160405190810160405280929190818152602001828054610c9f90611d64565b8015610cec5780601f10610cc157610100808354040283529160200191610cec565b820191906000526020600020905b815481529060010190602001808311610ccf57829003601f168201915b50505050508588637fac112760e01b610e65565b6000818152600560205260409020909150610d1c908989611043565b5050505050505050505050565b600080610d346102d5565b9050610d3e611086565b6020808301518252818101869052604080518082018252845181528151808401835260008152818401526060808501919091528151908101825281850151815260e085015183015192810192909252818101869052808301919091526001549051633ee690e560e21b81526001600160a01b039091169063fb9a439490610dc9908490600401611ddd565b6020604051808303816000875af1158015610de8573d6000803e3d6000fd5b505050506040513d601f19601f82011682018060405250810190610e0c9190611f0e565b95945050505050565b600080546001600160a01b038381166001600160a01b0319831681178455604051919092169283917f8be0079c531659141344cd1fd0a4f28419497f9722a3daafe3b4186f6b6457e09190a35050565b6000610e6f611086565b87815260208082018690526040805180820182526000815281516001600160e01b031987168185015282516004818303810182526024909201845282850152606080860192909252825191820183528a8252928101899052808201879052818401526001549051633ee690e560e21b81526001600160a01b039091169163fb9a439491610efe91859101611ddd565b6020604051808303816000875af1158015610f1d573d6000803e3d6000fd5b505050506040513d601f19601f82011682018060405250810190610f419190611f0e565b98975050505050505050565b604051806101000160405280600081526020016060815260200160608152602001606081526020016060815260200160006001600160a01b0316815260200160006001600160e01b0319168152602001610fba604051806040016040528060008152602001606081525090565b905290565b828054610fcb90611d64565b90600052602060002090601f016020900481019282610fed5760008555611033565b82601f106110065782800160ff19823516178555611033565b82800160010185558215611033579182015b82811115611033578235825591602001919060010190611018565b5061103f9291506110c9565b5090565b828054828255906000526020600020908101928215611033579160200282015b828111156110335763ffffffff8335168255602090920191600190910190611063565b604051806080016040528060608152602001606081526020016110a76110de565b8152602001610fba604051806040016040528060008152602001606081525090565b5b8082111561103f57600081556001016110ca565b60405180606001604052806060815260200160608152602001610fba6040518060200160405280606081525090565b60005b83811015611128578181015183820152602001611110565b83811115611137576000848401525b50505050565b6000815180845261115581602086016020860161110d565b601f01601f19169290920160200192915050565b634e487b7160e01b600052602160045260246000fd5b600082825180855260208086019550808260051b84010181860160005b848110156111f057601f19868403018952815160408151600981106111c3576111c3611169565b855290850151858501829052906111dc8186018361113d565b9a86019a945050509083019060010161119c565b5090979650505050505050565b80518252600060208201516040602085015261121c604085018261113d565b949350505050565b60208152815160208201526000602083015161010080604085015261124d61012085018361113d565b91506040850151601f198086850301606087015261126b848361113d565b93506060870151915080868503016080870152611288848361113d565b935060808701519150808685030160a08701526112a5848361117f565b935060a087015191506112c360c08701836001600160a01b03169052565b60c08701516001600160e01b0319811660e0880152915060e08701519150808685030183870152506112f583826111fd565b9695505050505050565b6001600160a01b038116811461099357600080fd5b60006020828403121561132657600080fd5b8135611331816112ff565b9392505050565b60006020828403121561134a57600080fd5b81356001600160401b0381111561136057600080fd5b82016020818503121561133157600080fd5b60008083601f84011261138457600080fd5b5081356001600160401b0381111561139b57600080fd5b6020830191508360208285010111156113b357600080fd5b9250929050565b6001600160e01b03198116811461099357600080fd5b6000806000806000606086880312156113e857600080fd5b85356001600160401b03808211156113ff57600080fd5b61140b89838a01611372565b909750955060208801359150611420826113ba565b9093506040870135908082111561143657600080fd5b5061144388828901611372565b969995985093965092949392505050565b6000806000806000806060878903121561146d57600080fd5b86356001600160401b038082111561148457600080fd5b6114908a838b01611372565b909850965060208901359150808211156114a957600080fd5b6114b58a838b01611372565b909650945060408901359150808211156114ce57600080fd5b506114db89828a01611372565b979a9699509497509295939492505050565b634e487b7160e01b600052604160045260246000fd5b604080519081016001600160401b0381118282101715611525576115256114ed565b60405290565b60405161010081016001600160401b0381118282101715611525576115256114ed565b604051601f8201601f191681016001600160401b0381118282101715611576576115766114ed565b604052919050565b60006001600160401b03821115611597576115976114ed565b50601f01601f191660200190565b600082601f8301126115b657600080fd5b81356115c96115c48261157e565b61154e565b8181528460208386010111156115de57600080fd5b816020850160208301376000918101602001919091529392505050565b6000806040838503121561160e57600080fd5b82356001600160401b038082111561162557600080fd5b611631868387016115a5565b9350602085013591508082111561164757600080fd5b50611654858286016115a5565b9150509250929050565b606081526000611671606083018661113d565b8281036020840152611683818661113d565b9150508215156040830152949350505050565b6000602082840312156116a857600080fd5b5035919050565b602081526000611331602083018461113d565b600080604083850312156116d557600080fd5b82356001600160401b038111156116eb57600080fd5b6116f7858286016115a5565b95602094909401359450505050565b6000806000806000806000806080898b03121561172257600080fd5b88356001600160401b038082111561173957600080fd5b6117458c838d01611372565b909a50985060208b013591508082111561175e57600080fd5b61176a8c838d01611372565b909850965060408b013591508082111561178357600080fd5b61178f8c838d01611372565b909650945060608b01359150808211156117a857600080fd5b506117b58b828c01611372565b999c989b5096995094979396929594505050565b600080600080604085870312156117df57600080fd5b84356001600160401b03808211156117f657600080fd5b61180288838901611372565b9096509450602087013591508082111561181b57600080fd5b818701915087601f83011261182f57600080fd5b81358181111561183e57600080fd5b8860208260051b850101111561185357600080fd5b95989497505060200194505050565b600082601f83011261187357600080fd5b81516118816115c48261157e565b81815284602083860101111561189657600080fd5b61121c82602083016020870161110d565b60006001600160401b038211156118c0576118c06114ed565b5060051b60200190565b600082601f8301126118db57600080fd5b815160206118eb6115c4836118a7565b82815260059290921b8401810191818101908684111561190a57600080fd5b8286015b848110156119995780516001600160401b038082111561192e5760008081fd5b908801906040828b03601f19018113156119485760008081fd5b611950611503565b87840151600981106119625760008081fd5b81529083015190828211156119775760008081fd5b6119858c8984870101611862565b81890152865250505091830191830161190e565b509695505050505050565b80516119af816112ff565b919050565b80516119af816113ba565b6000604082840312156119d157600080fd5b6119d9611503565b90508151815260208201516001600160401b038111156119f857600080fd5b611a0484828501611862565b60208301525092915050565b600060208284031215611a2257600080fd5b81516001600160401b0380821115611a3957600080fd5b908301906101008286031215611a4e57600080fd5b611a5661152b565b82518152602083015182811115611a6c57600080fd5b611a7887828601611862565b602083015250604083015182811115611a9057600080fd5b611a9c87828601611862565b604083015250606083015182811115611ab457600080fd5b611ac087828601611862565b606083015250608083015182811115611ad857600080fd5b611ae4878286016118ca565b608083015250611af660a084016119a4565b60a0820152611b0760c084016119b4565b60c082015260e083015182811115611b1e57600080fd5b611b2a878286016119bf565b60e08301525095945050505050565b6020808252818101527f4f776e61626c653a2063616c6c6572206973206e6f7420746865206f776e6572604082015260600190565b6000808335601e19843603018112611b8557600080fd5b8301803591506001600160401b03821115611b9f57600080fd5b6020019150600581901b36038213156113b357600080fd5b634e487b7160e01b600052603260045260246000fd5b60008235605e19833603018112611be357600080fd5b9190910192915050565b6000808335601e19843603018112611c0457600080fd5b8301803591506001600160401b03821115611c1e57600080fd5b6020019150368190038213156113b357600080fd5b803563ffffffff811681146119af57600080fd5b60006020808385031215611c5a57600080fd5b82356001600160401b03811115611c7057600080fd5b8301601f81018513611c8157600080fd5b8035611c8f6115c4826118a7565b81815260059190911b82018301908381019087831115611cae57600080fd5b928401925b82841015611cd357611cc484611c33565b82529284019290840190611cb3565b979650505050505050565b634e487b7160e01b600052601160045260246000fd5b60008219821115611d0757611d07611cde565b500190565b6000600019821415611d2057611d20611cde565b5060010190565b8183823760009101908152919050565b600060208284031215611d4957600080fd5b61133182611c33565b60008251611be381846020870161110d565b600181811c90821680611d7857607f821691505b60208210811415611d9957634e487b7160e01b600052602260045260246000fd5b50919050565b60208082528181018390526000908460408401835b868110156119995763ffffffff611dca84611c33565b1682529183019190830190600101611db4565b600060208083528351608082850152611df960a085018261113d565b905081850151601f196040818785030181880152611e17848461117f565b935080880151925060608288860301818901528351818652611e3b8287018261113d565b90508685015186820388880152611e52828261113d565b9584015187870397850197909752505093518584528051868501819052600581901b850183019591870194908382019060005b81811015611eed57838903603f1901835287518051868b52611ea9878c018261113d565b90508b82015160178110611ebf57611ebf611169565b8b8d0152908701518a8203888c015290611ed9818361113d565b9a5050509689019691890191600101611e85565b505050508801518785039092016080880152509250610e0c905081836111fd565b600060208284031215611f2057600080fd5b505191905056fea26469706673582212207e6b9244ac444a4bbac408f0b0f2a1cd0c52d2cca75e9e4cad86a8da00c5104b64736f6c634300080a0033",
  "immutableReferences": {},
  "source": "// SPDX-License-Identifier: MIT\npragma solidity >=0.8.0 <0.9.0;\n\nimport \"@openzeppelin/contracts/access/Ownable.sol\";\nimport \"./CrossChain/ContractAdvanced.sol\";\n\nuint256 constant CALLER_NOT_CROSS_CHAIN_CONTRACT = 100;\n\n// `OCComputing` is an example of multi-chain services with necessary implementations in `ContractAdvanced`, which provides basic cross-chain call interfaces.\ncontract OCComputing is ContractAdvanced {\n    // Destination contract info\n    struct DestnContract {\n        bytes contractAddress; // destination contract address\n        bytes funcName; // destination contract action name\n        bool used;\n    }\n\n    struct OCResult {\n        bool used;\n        uint256 result;\n    }\n\n    // Cross-chain destination contract map\n    mapping(string => mapping(string => DestnContract)) public destnContractMap;\n\n    // Cross-chain permitted contract map\n    mapping(string => mapping(string => string)) public permittedContractMap;\n\n    // Outsourcing computing data cache\n    mapping(uint256 => uint256[]) cachedData;\n    // Outsourcing computing result\n    mapping(string => mapping(uint256 => OCResult)) public ocResult;\n    \n    /**\n     * Send outsourcing computing task to other chain\n     * @param _toChain - to chain name\n     * @param _nums - nums to be accumulated\n     */\n    function sendComputeTask(string calldata _toChain, uint32[] calldata _nums) external {\n        mapping(string => DestnContract) storage map = destnContractMap[_toChain];\n        DestnContract storage destnContract = map[\"receiveComputeTask\"];\n        require(destnContract.used, \"action not registered\");\n\n        // Construct payload\n        Payload memory data;\n        data.items = new PayloadItem[](1);\n        PayloadItem memory item = data.items[0];\n        item.name = \"nums\";\n        item.msgType = MsgType.EvmU32Array;\n        item.value = abi.encode(_nums);\n\n        SQoS[] memory sqos;\n        uint id = crossChainCall(\n            _toChain,\n            destnContract.contractAddress,\n            destnContract.funcName,\n            sqos,\n            data,\n            OCComputing.receiveComputeTaskCallback.selector\n        );\n        cachedData[id] = _nums;\n    }\n\n    /**\n     * Receives outsourcing computing task from other chain\n     * @param _payload - payload which contains nums to be accumulated\n     */\n    function receiveComputeTask(Payload calldata _payload) external returns (uint256) {\n        if (msg.sender != address(crossChainContract)) {\n            return CALLER_NOT_CROSS_CHAIN_CONTRACT;\n        }\n\n        // decode\n        (uint32[] memory _nums) = abi.decode(_payload.items[0].value, (uint32[]));\n        \n        // compute\n        uint ret = 0;\n        for (uint i = 0; i < _nums.length; i++) {\n            ret += _nums[i];\n        }\n\n        // Construct payload\n        Payload memory data;\n        data.items = new PayloadItem[](1);\n        PayloadItem memory item = data.items[0];\n        item.name = \"result\";\n        item.msgType = MsgType.EvmU32;\n        item.value = abi.encode(ret);\n        SQoS[] memory sqos;\n        crossChainRespond(sqos, data);\n\n        return 0;\n    }\n\n    /**\n     * See IOCComputing\n     */\n    function receiveComputeTaskCallback(Payload calldata _payload) external returns (uint256) {\n        if (msg.sender != address(crossChainContract)) {\n            return CALLER_NOT_CROSS_CHAIN_CONTRACT;\n        }\n\n        (uint32 _result) = abi.decode(_payload.items[0].value, (uint32));\n        SimplifiedMessage memory context = getContext();\n        OCResult storage result = ocResult[context.fromChain][context.session.id];\n        result.used = true;\n        result.result = _result;\n\n        return 0;\n    }\n\n    ///////////////////////////////////////////////\n    /////    Send messages to other chains   //////\n    ///////////////////////////////////////////////\n\n    /**\n     * Register destination contract info\n     * @param _funcName - function name to be called\n     * @param _toChain - destination chain name\n     * @param _contractAddress - destination contract address\n     * @param _contractFuncName - contract function name\n     */\n    function registerDestnContract(\n        string calldata _funcName,\n        string calldata _toChain,\n        bytes calldata _contractAddress,\n        bytes calldata _contractFuncName\n    ) external onlyOwner {\n        mapping(string => DestnContract) storage map = destnContractMap[_toChain];\n        DestnContract storage destnContract = map[_funcName];\n        destnContract.contractAddress = _contractAddress;\n        destnContract.funcName = _contractFuncName;\n        destnContract.used = true;\n    }\n\n    ///////////////////////////////////////////////\n    ///    Receive messages from other chains   ///\n    ///////////////////////////////////////////////\n\n    /**\n     * Authorize contracts of other chains to call the functions of this contract\n     * @param _chainName - from chain name\n     * @param _sender - sender of cross chain message\n     * @param _funcName - action name which allowed to be invoked\n     */\n    function registerPermittedContract(\n        string calldata _chainName,\n        string calldata _sender,\n        string calldata _funcName\n    ) external onlyOwner {\n        mapping(string => string) storage map = permittedContractMap[\n            _chainName\n        ];\n        map[_funcName] = _sender;\n    }\n\n    /**\n     * This verify method will be invoked by the CrossChain contract automatically, ensure that only registered contract(registerSourceContract) calls are allowed\n     * @param _chainName - chain name of cross chain message\n     * @param _funcName - contract action name of cross chain message\n     * @param _sender - cross chain message sender\n     */\n    //  Will be deprecated soon\n    function verify(\n        string calldata _chainName,\n        bytes4 _funcName,\n        bytes calldata _sender\n    ) public view virtual returns (bool) {\n        // mapping(string => string) storage map = permittedContractMap[\n        //     _chainName\n        // ];\n        // string storage sender = map[_funcName];\n        // require(\n        //     keccak256(bytes(sender)) == keccak256(bytes(_sender)),\n        //     \"Sender does not match\"\n        // );\n        return true;\n    }\n}\n",
  "sourcePath": "/home/george/program/dante/solidity-contract-template/contracts/OCComputing.sol",
  "compiler": {
    "name": "solc",
    "version": "0.8.10+commit.fc410830.Emscripten.clang"
  },
  "schemaVersion": "3.4.6",
  "updatedAt": "2022-08-18T06:25:02.298Z",
  "networkType": "ethereum",
  "devdoc": {
    "kind": "dev",
    "methods": {
      "owner()": {
        "details": "Returns the address of the current owner."
      },
      "receiveComputeTask(((string,uint8,bytes)[]))": {
        "params": {
          "_payload": "- payload which contains nums to be accumulated"
        }
      },
      "registerDestnContract(string,string,bytes,bytes)": {
        "params": {
          "_contractAddress": "- destination contract address",
          "_contractFuncName": "- contract function name",
          "_funcName": "- function name to be called",
          "_toChain": "- destination chain name"
        }
      },
      "registerPermittedContract(string,string,string)": {
        "params": {
          "_chainName": "- from chain name",
          "_funcName": "- action name which allowed to be invoked",
          "_sender": "- sender of cross chain message"
        }
      },
      "renounceOwnership()": {
        "details": "Leaves the contract without owner. It will not be possible to call `onlyOwner` functions anymore. Can only be called by the current owner. NOTE: Renouncing ownership will leave the contract without an owner, thereby removing any functionality that is only available to the owner."
      },
      "sendComputeTask(string,uint32[])": {
        "params": {
          "_nums": "- nums to be accumulated",
          "_toChain": "- to chain name"
        }
      },
      "setCrossChainContract(address)": {
        "params": {
          "_address": "- cross chain contract address"
        }
      },
      "transferOwnership(address)": {
        "details": "Transfers ownership of the contract to a new account (`newOwner`). Can only be called by the current owner."
      },
      "verify(string,bytes4,bytes)": {
        "params": {
          "_chainName": "- chain name of cross chain message",
          "_funcName": "- contract action name of cross chain message",
          "_sender": "- cross chain message sender"
        }
      }
    },
    "version": 1
  },
  "userdoc": {
    "kind": "user",
    "methods": {
      "receiveComputeTask(((string,uint8,bytes)[]))": {
        "notice": "Receives outsourcing computing task from other chain"
      },
      "receiveComputeTaskCallback(((string,uint8,bytes)[]))": {
        "notice": "See IOCComputing"
      },
      "registerDestnContract(string,string,bytes,bytes)": {
        "notice": "Register destination contract info"
      },
      "registerPermittedContract(string,string,string)": {
        "notice": "Authorize contracts of other chains to call the functions of this contract"
      },
      "sendComputeTask(string,uint32[])": {
        "notice": "Send outsourcing computing task to other chain"
      },
      "setCrossChainContract(address)": {
        "notice": "Set cross chain contract"
      },
      "verify(string,bytes4,bytes)": {
        "notice": "This verify method will be invoked by the CrossChain contract automatically, ensure that only registered contract(registerSourceContract) calls are allowed"
      }
    },
    "version": 1
  }
}