{
  "contractName": "OCComputing",
  "abi": [
    {
      "anonymous": false,
      "inputs": [
        {
          "indexed": true,
          "internalType": "address",
          "name": "previousOwner",
          "type": "address"
        },
        {
          "indexed": true,
          "internalType": "address",
          "name": "newOwner",
          "type": "address"
        }
      ],
      "name": "OwnershipTransferred",
      "type": "event"
    },
    {
      "inputs": [
        {
          "internalType": "bytes32",
          "name": "",
          "type": "bytes32"
        }
      ],
      "name": "callbackAbis",
      "outputs": [
        {
          "internalType": "string",
          "name": "",
          "type": "string"
        }
      ],
      "stateMutability": "view",
      "type": "function",
      "constant": true
    },
    {
      "inputs": [],
      "name": "crossChainContract",
      "outputs": [
        {
          "internalType": "contract ICrossChain",
          "name": "",
          "type": "address"
        }
      ],
      "stateMutability": "view",
      "type": "function",
      "constant": true
    },
    {
      "inputs": [
        {
          "internalType": "string",
          "name": "",
          "type": "string"
        },
        {
          "internalType": "string",
          "name": "",
          "type": "string"
        }
      ],
      "name": "destnContractMap",
      "outputs": [
        {
          "internalType": "bytes",
          "name": "contractAddress",
          "type": "bytes"
        },
        {
          "internalType": "bytes",
          "name": "funcName",
          "type": "bytes"
        },
        {
          "internalType": "bool",
          "name": "used",
          "type": "bool"
        }
      ],
      "stateMutability": "view",
      "type": "function",
      "constant": true
    },
    {
      "inputs": [],
      "name": "getContext",
      "outputs": [
        {
          "components": [
            {
              "internalType": "uint256",
              "name": "id",
              "type": "uint256"
            },
            {
              "internalType": "string",
              "name": "fromChain",
              "type": "string"
            },
            {
              "internalType": "bytes",
              "name": "sender",
              "type": "bytes"
            },
            {
              "internalType": "bytes",
              "name": "signer",
              "type": "bytes"
            },
            {
              "components": [
                {
                  "internalType": "enum SQoSType",
                  "name": "t",
                  "type": "uint8"
                },
                {
                  "internalType": "bytes",
                  "name": "v",
                  "type": "bytes"
                }
              ],
              "internalType": "struct SQoS[]",
              "name": "sqos",
              "type": "tuple[]"
            },
            {
              "internalType": "address",
              "name": "contractAddress",
              "type": "address"
            },
            {
              "internalType": "bytes4",
              "name": "action",
              "type": "bytes4"
            },
            {
              "components": [
                {
                  "internalType": "uint256",
                  "name": "id",
                  "type": "uint256"
                },
                {
                  "internalType": "uint8",
                  "name": "sessionType",
                  "type": "uint8"
                },
                {
                  "internalType": "bytes",
                  "name": "callback",
                  "type": "bytes"
                },
                {
                  "internalType": "bytes",
                  "name": "commitment",
                  "type": "bytes"
                },
                {
                  "internalType": "bytes",
                  "name": "answer",
                  "type": "bytes"
                }
              ],
              "internalType": "struct Session",
              "name": "session",
              "type": "tuple"
            }
          ],
          "internalType": "struct SimplifiedMessage",
          "name": "",
          "type": "tuple"
        }
      ],
      "stateMutability": "view",
      "type": "function",
      "constant": true
    },
    {
      "inputs": [
        {
          "internalType": "string",
          "name": "",
          "type": "string"
        },
        {
          "internalType": "uint256",
          "name": "",
          "type": "uint256"
        }
      ],
      "name": "ocResult",
      "outputs": [
        {
          "internalType": "bool",
          "name": "used",
          "type": "bool"
        },
        {
          "internalType": "uint32",
          "name": "result",
          "type": "uint32"
        },
        {
          "internalType": "uint32",
          "name": "expected",
          "type": "uint32"
        },
        {
          "internalType": "uint256",
          "name": "session",
          "type": "uint256"
        }
      ],
      "stateMutability": "view",
      "type": "function",
      "constant": true
    },
    {
      "inputs": [],
      "name": "owner",
      "outputs": [
        {
          "internalType": "address",
          "name": "",
          "type": "address"
        }
      ],
      "stateMutability": "view",
      "type": "function",
      "constant": true
    },
    {
      "inputs": [
        {
          "internalType": "string",
          "name": "",
          "type": "string"
        },
        {
          "internalType": "string",
          "name": "",
          "type": "string"
        }
      ],
      "name": "permittedContractMap",
      "outputs": [
        {
          "internalType": "string",
          "name": "",
          "type": "string"
        }
      ],
      "stateMutability": "view",
      "type": "function",
      "constant": true
    },
    {
      "inputs": [],
      "name": "renounceOwnership",
      "outputs": [],
      "stateMutability": "nonpayable",
      "type": "function"
    },
    {
      "inputs": [
        {
          "internalType": "address",
          "name": "_address",
          "type": "address"
        }
      ],
      "name": "setCrossChainContract",
      "outputs": [],
      "stateMutability": "nonpayable",
      "type": "function"
    },
    {
      "inputs": [
        {
          "internalType": "address",
          "name": "newOwner",
          "type": "address"
        }
      ],
      "name": "transferOwnership",
      "outputs": [],
      "stateMutability": "nonpayable",
      "type": "function"
    },
    {
      "inputs": [
        {
          "internalType": "string",
          "name": "_toChain",
          "type": "string"
        },
        {
          "internalType": "uint32[]",
          "name": "_nums",
          "type": "uint32[]"
        }
      ],
      "name": "sendComputeTask",
      "outputs": [],
      "stateMutability": "nonpayable",
      "type": "function"
    },
    {
      "inputs": [
        {
          "components": [
            {
              "components": [
                {
                  "internalType": "string",
                  "name": "name",
                  "type": "string"
                },
                {
                  "internalType": "enum MsgType",
                  "name": "msgType",
                  "type": "uint8"
                },
                {
                  "internalType": "bytes",
                  "name": "value",
                  "type": "bytes"
                }
              ],
              "internalType": "struct PayloadItem[]",
              "name": "items",
              "type": "tuple[]"
            }
          ],
          "internalType": "struct Payload",
          "name": "_payload",
          "type": "tuple"
        }
      ],
      "name": "receiveComputeTask",
      "outputs": [
        {
          "internalType": "uint256",
          "name": "",
          "type": "uint256"
        }
      ],
      "stateMutability": "nonpayable",
      "type": "function"
    },
    {
      "inputs": [
        {
          "internalType": "string",
          "name": "_chainName",
          "type": "string"
        }
      ],
      "name": "clear",
      "outputs": [],
      "stateMutability": "nonpayable",
      "type": "function"
    },
    {
      "inputs": [
        {
          "internalType": "string",
          "name": "_chainName",
          "type": "string"
        }
      ],
      "name": "getResults",
      "outputs": [
        {
          "components": [
            {
              "internalType": "bool",
              "name": "used",
              "type": "bool"
            },
            {
              "internalType": "uint32",
              "name": "result",
              "type": "uint32"
            },
            {
              "internalType": "uint32",
              "name": "expected",
              "type": "uint32"
            },
            {
              "internalType": "uint256",
              "name": "session",
              "type": "uint256"
            }
          ],
          "internalType": "struct OCComputing.OCResult[]",
          "name": "",
          "type": "tuple[]"
        }
      ],
      "stateMutability": "view",
      "type": "function",
      "constant": true
    },
    {
      "inputs": [
        {
          "components": [
            {
              "components": [
                {
                  "internalType": "string",
                  "name": "name",
                  "type": "string"
                },
                {
                  "internalType": "enum MsgType",
                  "name": "msgType",
                  "type": "uint8"
                },
                {
                  "internalType": "bytes",
                  "name": "value",
                  "type": "bytes"
                }
              ],
              "internalType": "struct PayloadItem[]",
              "name": "items",
              "type": "tuple[]"
            }
          ],
          "internalType": "struct Payload",
          "name": "_payload",
          "type": "tuple"
        }
      ],
      "name": "receiveComputeTaskCallback",
      "outputs": [
        {
          "internalType": "uint256",
          "name": "",
          "type": "uint256"
        }
      ],
      "stateMutability": "nonpayable",
      "type": "function"
    },
    {
      "inputs": [
        {
          "internalType": "string",
          "name": "_funcName",
          "type": "string"
        },
        {
          "internalType": "string",
          "name": "_toChain",
          "type": "string"
        },
        {
          "internalType": "bytes",
          "name": "_contractAddress",
          "type": "bytes"
        },
        {
          "internalType": "bytes",
          "name": "_contractFuncName",
          "type": "bytes"
        }
      ],
      "name": "registerDestnContract",
      "outputs": [],
      "stateMutability": "nonpayable",
      "type": "function"
    },
    {
      "inputs": [
        {
          "internalType": "string",
          "name": "_chainName",
          "type": "string"
        },
        {
          "internalType": "string",
          "name": "_sender",
          "type": "string"
        },
        {
          "internalType": "string",
          "name": "_funcName",
          "type": "string"
        }
      ],
      "name": "registerPermittedContract",
      "outputs": [],
      "stateMutability": "nonpayable",
      "type": "function"
    },
    {
      "inputs": [
        {
          "internalType": "string",
          "name": "_chainName",
          "type": "string"
        },
        {
          "internalType": "bytes4",
          "name": "_funcName",
          "type": "bytes4"
        },
        {
          "internalType": "bytes",
          "name": "_sender",
          "type": "bytes"
        }
      ],
      "name": "verify",
      "outputs": [
        {
          "internalType": "bool",
          "name": "",
          "type": "bool"
        }
      ],
      "stateMutability": "view",
      "type": "function",
      "constant": true
    }
  ],
  "bytecode": "0x608060405234801561001057600080fd5b5061001a3361001f565b61006f565b600080546001600160a01b038381166001600160a01b0319831681178455604051919092169283917f8be0079c531659141344cd1fd0a4f28419497f9722a3daafe3b4186f6b6457e09190a35050565b6124ae8061007e6000396000f3fe608060405234801561001057600080fd5b50600436106101165760003560e01c806380899bba116100a2578063d64bf05a11610071578063d64bf05a14610273578063dbc90de1146102b5578063f2fde38b146102c8578063f50db507146102db578063fab1564e146102ee57600080fd5b806380899bba146101f95780638da5cb5b1461021b578063955a5ba414610240578063bb45acd91461026057600080fd5b806347e50a42116100e957806347e50a42146101815780634944e686146101a2578063715018a6146101cb57806379f6793c146101d35780637fac1127146101e657600080fd5b8063127f0f071461011b57806316cf503e1461013957806318d72b541461014e5780632ff20f0114610161575b600080fd5b610123610301565b604051610130919061163a565b60405180910390f35b61014c61014736600461175d565b610389565b005b61014c61015c3660046117b3565b6103c1565b61017461016f36600461175d565b6103eb565b60405161013091906117d7565b61019461018f366004611846565b6104a1565b604051908152602001610130565b6101bb6101b0366004611896565b600195945050505050565b6040519015158152602001610130565b61014c610625565b61014c6101e136600461191a565b610639565b6101946101f4366004611846565b61069c565b61020c610207366004611ae3565b610861565b60405161013093929190611b46565b6000546001600160a01b03165b6040516001600160a01b039091168152602001610130565b61025361024e366004611b7e565b6109be565b6040516101309190611b97565b61025361026e366004611ae3565b610a58565b610286610281366004611baa565b610a99565b6040516101309493929190931515845263ffffffff928316602085015291166040830152606082015260800190565b600154610228906001600160a01b031681565b61014c6102d63660046117b3565b610b01565b61014c6102e9366004611bee565b610b7a565b61014c6102fc366004611cb1565b610bfe565b6103096112f5565b600160009054906101000a90046001600160a01b03166001600160a01b0316639af7a48c6040518163ffffffff1660e01b8152600401600060405180830381865afa15801561035c573d6000803e3d6000fd5b505050506040513d6000823e601f3d908101601f191682016040526103849190810190611f6e565b905090565b610391610f8a565b600582826040516103a3929190612097565b908152602001604051809103902060006103bd919061137f565b5050565b6103c9610f8a565b600180546001600160a01b0319166001600160a01b0392909216919091179055565b6060600583836040516103ff929190612097565b9081526020016040518091039020805480602002602001604051908101604052809291908181526020016000905b828210156104955760008481526020908190206040805160808101825260028602909201805460ff81161515845263ffffffff61010082048116858701526501000000000090910416918301919091526001908101546060830152908352909201910161042d565b50505050905092915050565b6001546000906001600160a01b031633146104be57506064919050565b60006104ca83806120a7565b60008181106104db576104db6120f0565b90506020028101906104ed9190612106565b6104fb906040810190612126565b8101906105089190612180565b90506000805b825181101561055657828181518110610529576105296120f0565b602002602001015163ffffffff1682610542919061222d565b91508061054e81612245565b91505061050e565b506040805160208101825260608152815160018082528184019093529091816020015b6040805160608082018352808252600060208301529181019190915281526020019060019003908161057957505080825280516000919082906105be576105be6120f0565b60209081029190910181015160408051808201825260068152651c995cdd5b1d60d21b81850152825260038284015280518084018790528151808203909401845281018152810191909152905060606106178184610fe4565b506000979650505050505050565b61062d610f8a565b61063760006110fb565b565b610641610f8a565b600060048787604051610655929190612097565b908152602001604051809103902090508484828585604051610678929190612097565b9081526040519081900360200190206106929290916113a0565b5050505050505050565b6001546000906001600160a01b031633146106b957506064919050565b60006106c583806120a7565b60008181106106d6576106d66120f0565b90506020028101906106e89190612106565b6106f6906040810190612126565b8101906107039190612260565b9050600061070f610301565b905060008060005b6005846020015160405161072b919061227b565b908152604051908190036020019020548110156107b15760e084015151602085015160405160059161075c9161227b565b9081526020016040518091039020828154811061077b5761077b6120f0565b906000526020600020906002020160010154141561079f57600191508092506107b1565b806107a981612245565b915050610717565b50806107f05760405162461bcd60e51b8152602060048201526009602482015268139bdd08199bdd5b9960ba1b60448201526064015b60405180910390fd5b600060058460200151604051610806919061227b565b90815260200160405180910390208381548110610825576108256120f0565b600091825260208220600290910201805463ffffffff9097166101000264ffffffffff1990971696909617600117909555509295945050505050565b815160208184018101805160038252928201948201949094209190935281518083018401805192815290840192909301919091209152805481906108a49061228d565b80601f01602080910402602001604051908101604052809291908181526020018280546108d09061228d565b801561091d5780601f106108f25761010080835404028352916020019161091d565b820191906000526020600020905b81548152906001019060200180831161090057829003601f168201915b5050505050908060010180546109329061228d565b80601f016020809104026020016040519081016040528092919081815260200182805461095e9061228d565b80156109ab5780601f10610980576101008083540402835291602001916109ab565b820191906000526020600020905b81548152906001019060200180831161098e57829003601f168201915b5050506002909301549192505060ff1683565b600260205260009081526040902080546109d79061228d565b80601f0160208091040260200160405190810160405280929190818152602001828054610a039061228d565b8015610a505780601f10610a2557610100808354040283529160200191610a50565b820191906000526020600020905b815481529060010190602001808311610a3357829003601f168201915b505050505081565b81516020818401810180516004825292820194820194909420919093528151808301840180519281529084019290930191909120915280546109d79061228d565b81516020818401810180516005825292820191850191909120919052805482908110610ac457600080fd5b60009182526020909120600290910201805460019091015460ff8216935063ffffffff610100830481169350650100000000009092049091169084565b610b09610f8a565b6001600160a01b038116610b6e5760405162461bcd60e51b815260206004820152602660248201527f4f776e61626c653a206e6577206f776e657220697320746865207a65726f206160448201526564647265737360d01b60648201526084016107e7565b610b77816110fb565b50565b610b82610f8a565b600060038787604051610b96929190612097565b908152602001604051809103902090506000818a8a604051610bb9929190612097565b9081526040519081900360200190209050610bd58187876113a0565b50610be46001820185856113a0565b50600201805460ff19166001179055505050505050505050565b600060038585604051610c12929190612097565b9081526040519081900360200181207172656365697665436f6d707574655461736b60701b825291506000908290601201908152604051908190036020019020600281015490915060ff16610ca15760405162461bcd60e51b81526020600482015260156024820152741858dd1a5bdb881b9bdd081c9959da5cdd195c9959605a1b60448201526064016107e7565b6040805160208101825260608152815160018082528184019093529091816020015b60408051606080820183528082526000602083015291810191909152815260200190600190039081610cc35750508082528051600091908290610d0857610d086120f0565b60209081029190910181015160408051808201825260048152636e756d7360e01b818501528252600e8284015251909250610d479188918891016122c8565b604051602081830303815290604052816040018190525060606000610ec28a8a8080601f016020809104026020016040519081016040528093929190818152602001838380828437600092019190915250508854899250610da8915061228d565b80601f0160208091040260200160405190810160405280929190818152602001828054610dd49061228d565b8015610e215780601f10610df657610100808354040283529160200191610e21565b820191906000526020600020905b815481529060010190602001808311610e0457829003601f168201915b5050505050876001018054610e359061228d565b80601f0160208091040260200160405190810160405280929190818152602001828054610e619061228d565b8015610eae5780601f10610e8357610100808354040283529160200191610eae565b820191906000526020600020905b815481529060010190602001808311610e9157829003601f168201915b50505050508588637fac112760e01b61114b565b9050600060058b8b604051610ed8929190612097565b908152602001604051809103902060018160018154018082558091505003906000526020600020906002020190506000805b89811015610f57578a8a82818110610f2457610f246120f0565b9050602002016020810190610f399190612260565b610f439083612306565b915080610f4f81612245565b915050610f0a565b50815463ffffffff909116650100000000000268ffffffff00000000001990911617815560010155505050505050505050565b6000546001600160a01b031633146106375760405162461bcd60e51b815260206004820181905260248201527f4f776e61626c653a2063616c6c6572206973206e6f7420746865206f776e657260448201526064016107e7565b600080610fef610301565b9050610ff9611424565b60208083015182528181018690526040805160a081018252845181526000818401819052825180850184528181528284015282518085018452818152606080840191909152835180860185529182526080830191909152808501919091528151908101825281850151815260e085015182015192810192909252818101869052808301919091526001549051632f260fd760e01b81526001600160a01b0390911690632f260fd7906110af90849060040161232e565b6020604051808303816000875af11580156110ce573d6000803e3d6000fd5b505050506040513d601f19601f820116820180604052508101906110f2919061245f565b95945050505050565b600080546001600160a01b038381166001600160a01b0319831681178455604051919092169283917f8be0079c531659141344cd1fd0a4f28419497f9722a3daafe3b4186f6b6457e09190a35050565b6000611155611424565b878152602081018590526001546040516304330ae160e11b81526000916001600160a01b03169063086615c290611190908c90600401611b97565b602060405180830381865afa1580156111ad573d6000803e3d6000fd5b505050506040513d601f19601f820116820180604052508101906111d1919061245f565b6111dc90600161222d565b90506040518060a00160405280828152602001600060ff1681526020018560405160200161121a91906001600160e01b031991909116815260040190565b60408051601f198184030181529181529082528051602081810183526000808352848201929092528251808201845291825292820152606080860193909352805192830181528a8352908201899052818101879052838101919091526001549051632f260fd760e01b81526001600160a01b0390911690632f260fd7906112a590859060040161232e565b6020604051808303816000875af11580156112c4573d6000803e3d6000fd5b505050506040513d601f19601f820116820180604052508101906112e8919061245f565b9998505050505050505050565b604051806101000160405280600081526020016060815260200160608152602001606081526020016060815260200160006001600160a01b0316815260200160006001600160e01b031916815260200161137a6040518060a0016040528060008152602001600060ff1681526020016060815260200160608152602001606081525090565b905290565b5080546000825560020290600052602060002090810190610b77919061147f565b8280546113ac9061228d565b90600052602060002090601f0160209004810192826113ce5760008555611414565b82601f106113e75782800160ff19823516178555611414565b82800160010185558215611414579182015b828111156114145782358255916020019190600101906113f9565b506114209291506114a7565b5090565b604051806080016040528060608152602001606081526020016114456114bc565b815260200161137a6040518060a0016040528060008152602001600060ff1681526020016060815260200160608152602001606081525090565b5b8082111561142057805468ffffffffffffffffff1916815560006001820155600201611480565b5b8082111561142057600081556001016114a8565b6040518060600160405280606081526020016060815260200161137a6040518060200160405280606081525090565b60005b838110156115065781810151838201526020016114ee565b83811115611515576000848401525b50505050565b600081518084526115338160208601602086016114eb565b601f01601f19169290920160200192915050565b634e487b7160e01b600052602160045260246000fd5b600082825180855260208086019550808260051b84010181860160005b848110156115ce57601f19868403018952815160408151600a81106115a1576115a1611547565b855290850151858501829052906115ba8186018361151b565b9a86019a945050509083019060010161157a565b5090979650505050505050565b8051825260ff60208201511660208301526000604082015160a0604085015261160760a085018261151b565b905060608301518482036060860152611620828261151b565b915050608083015184820360808601526110f2828261151b565b60208152815160208201526000602083015161010080604085015261166361012085018361151b565b91506040850151601f1980868503016060870152611681848361151b565b9350606087015191508086850301608087015261169e848361151b565b935060808701519150808685030160a08701526116bb848361155d565b935060a087015191506116d960c08701836001600160a01b03169052565b60c08701516001600160e01b0319811660e0880152915060e087015191508086850301838701525061170b83826115db565b9695505050505050565b60008083601f84011261172757600080fd5b5081356001600160401b0381111561173e57600080fd5b60208301915083602082850101111561175657600080fd5b9250929050565b6000806020838503121561177057600080fd5b82356001600160401b0381111561178657600080fd5b61179285828601611715565b90969095509350505050565b6001600160a01b0381168114610b7757600080fd5b6000602082840312156117c557600080fd5b81356117d08161179e565b9392505050565b602080825282518282018190526000919060409081850190868401855b828110156118395781518051151585528681015163ffffffff9081168887015286820151168686015260609081015190850152608090930192908501906001016117f4565b5091979650505050505050565b60006020828403121561185857600080fd5b81356001600160401b0381111561186e57600080fd5b8201602081850312156117d057600080fd5b6001600160e01b031981168114610b7757600080fd5b6000806000806000606086880312156118ae57600080fd5b85356001600160401b03808211156118c557600080fd5b6118d189838a01611715565b9097509550602088013591506118e682611880565b909350604087013590808211156118fc57600080fd5b5061190988828901611715565b969995985093965092949392505050565b6000806000806000806060878903121561193357600080fd5b86356001600160401b038082111561194a57600080fd5b6119568a838b01611715565b9098509650602089013591508082111561196f57600080fd5b61197b8a838b01611715565b9096509450604089013591508082111561199457600080fd5b506119a189828a01611715565b979a9699509497509295939492505050565b634e487b7160e01b600052604160045260246000fd5b604080519081016001600160401b03811182821017156119eb576119eb6119b3565b60405290565b60405160a081016001600160401b03811182821017156119eb576119eb6119b3565b60405161010081016001600160401b03811182821017156119eb576119eb6119b3565b604051601f8201601f191681016001600160401b0381118282101715611a5e57611a5e6119b3565b604052919050565b60006001600160401b03821115611a7f57611a7f6119b3565b50601f01601f191660200190565b600082601f830112611a9e57600080fd5b8135611ab1611aac82611a66565b611a36565b818152846020838601011115611ac657600080fd5b816020850160208301376000918101602001919091529392505050565b60008060408385031215611af657600080fd5b82356001600160401b0380821115611b0d57600080fd5b611b1986838701611a8d565b93506020850135915080821115611b2f57600080fd5b50611b3c85828601611a8d565b9150509250929050565b606081526000611b59606083018661151b565b8281036020840152611b6b818661151b565b9150508215156040830152949350505050565b600060208284031215611b9057600080fd5b5035919050565b6020815260006117d0602083018461151b565b60008060408385031215611bbd57600080fd5b82356001600160401b03811115611bd357600080fd5b611bdf85828601611a8d565b95602094909401359450505050565b6000806000806000806000806080898b031215611c0a57600080fd5b88356001600160401b0380821115611c2157600080fd5b611c2d8c838d01611715565b909a50985060208b0135915080821115611c4657600080fd5b611c528c838d01611715565b909850965060408b0135915080821115611c6b57600080fd5b611c778c838d01611715565b909650945060608b0135915080821115611c9057600080fd5b50611c9d8b828c01611715565b999c989b5096995094979396929594505050565b60008060008060408587031215611cc757600080fd5b84356001600160401b0380821115611cde57600080fd5b611cea88838901611715565b90965094506020870135915080821115611d0357600080fd5b818701915087601f830112611d1757600080fd5b813581811115611d2657600080fd5b8860208260051b8501011115611d3b57600080fd5b95989497505060200194505050565b600082601f830112611d5b57600080fd5b8151611d69611aac82611a66565b818152846020838601011115611d7e57600080fd5b611d8f8260208301602087016114eb565b949350505050565b60006001600160401b03821115611db057611db06119b3565b5060051b60200190565b600082601f830112611dcb57600080fd5b81516020611ddb611aac83611d97565b82815260059290921b84018101918181019086841115611dfa57600080fd5b8286015b84811015611e895780516001600160401b0380821115611e1e5760008081fd5b908801906040828b03601f1901811315611e385760008081fd5b611e406119c9565b87840151600a8110611e525760008081fd5b8152908301519082821115611e675760008081fd5b611e758c8984870101611d4a565b818901528652505050918301918301611dfe565b509695505050505050565b8051611e9f8161179e565b919050565b8051611e9f81611880565b805160ff81168114611e9f57600080fd5b600060a08284031215611ed257600080fd5b611eda6119f1565b905081518152611eec60208301611eaf565b602082015260408201516001600160401b0380821115611f0b57600080fd5b611f1785838601611d4a565b60408401526060840151915080821115611f3057600080fd5b611f3c85838601611d4a565b60608401526080840151915080821115611f5557600080fd5b50611f6284828501611d4a565b60808301525092915050565b600060208284031215611f8057600080fd5b81516001600160401b0380821115611f9757600080fd5b908301906101008286031215611fac57600080fd5b611fb4611a13565b82518152602083015182811115611fca57600080fd5b611fd687828601611d4a565b602083015250604083015182811115611fee57600080fd5b611ffa87828601611d4a565b60408301525060608301518281111561201257600080fd5b61201e87828601611d4a565b60608301525060808301518281111561203657600080fd5b61204287828601611dba565b60808301525061205460a08401611e94565b60a082015261206560c08401611ea4565b60c082015260e08301518281111561207c57600080fd5b61208887828601611ec0565b60e08301525095945050505050565b8183823760009101908152919050565b6000808335601e198436030181126120be57600080fd5b8301803591506001600160401b038211156120d857600080fd5b6020019150600581901b360382131561175657600080fd5b634e487b7160e01b600052603260045260246000fd5b60008235605e1983360301811261211c57600080fd5b9190910192915050565b6000808335601e1984360301811261213d57600080fd5b8301803591506001600160401b0382111561215757600080fd5b60200191503681900382131561175657600080fd5b803563ffffffff81168114611e9f57600080fd5b6000602080838503121561219357600080fd5b82356001600160401b038111156121a957600080fd5b8301601f810185136121ba57600080fd5b80356121c8611aac82611d97565b81815260059190911b820183019083810190878311156121e757600080fd5b928401925b8284101561220c576121fd8461216c565b825292840192908401906121ec565b979650505050505050565b634e487b7160e01b600052601160045260246000fd5b6000821982111561224057612240612217565b500190565b600060001982141561225957612259612217565b5060010190565b60006020828403121561227257600080fd5b6117d08261216c565b6000825161211c8184602087016114eb565b600181811c908216806122a157607f821691505b602082108114156122c257634e487b7160e01b600052602260045260246000fd5b50919050565b60208082528181018390526000908460408401835b86811015611e895763ffffffff6122f38461216c565b16825291830191908301906001016122dd565b600063ffffffff80831681851680830382111561232557612325612217565b01949350505050565b60006020808352835160808285015261234a60a085018261151b565b905081850151601f196040818785030181880152612368848461155d565b93508088015192506060828886030181890152835181865261238c8287018261151b565b905086850151868203888801526123a3828261151b565b9584015187870397850197909752505093518584528051868501819052600581901b850183019591870194908382019060005b8181101561243e57838903603f1901835287518051868b526123fa878c018261151b565b90508b8201516017811061241057612410611547565b8b8d0152908701518a8203888c01529061242a818361151b565b9a50505096890196918901916001016123d6565b5050505088015187850390920160808801525092506110f2905081836115db565b60006020828403121561247157600080fd5b505191905056fea26469706673582212200033bf47561927992fddaa874db125f59646d2e9175d3cb64d0ac793bc69c4a464736f6c634300080a0033",
  "immutableReferences": {},
  "source": "// SPDX-License-Identifier: MIT\npragma solidity >=0.8.0 <0.9.0;\n\nimport \"@openzeppelin/contracts/access/Ownable.sol\";\nimport \"./CrossChain/ContractAdvanced.sol\";\n\nuint256 constant CALLER_NOT_CROSS_CHAIN_CONTRACT = 100;\n\n// `OCComputing` is an example of multi-chain services with necessary implementations in `ContractAdvanced`, which provides basic cross-chain call interfaces.\ncontract OCComputing is ContractAdvanced {\n    // Destination contract info\n    struct DestnContract {\n        bytes contractAddress; // destination contract address\n        bytes funcName; // destination contract action name\n        bool used;\n    }\n\n    struct OCResult {\n        bool used;\n        uint32 result;\n        uint32 expected;\n        uint256 session;\n    }\n\n    // Cross-chain destination contract map\n    mapping(string => mapping(string => DestnContract)) public destnContractMap;\n\n    // Cross-chain permitted contract map\n    mapping(string => mapping(string => string)) public permittedContractMap;\n\n    // Outsourcing computing result\n    mapping(string => OCResult[]) public ocResult;\n    \n    /**\n     * Send outsourcing computing task to other chain\n     * @param _toChain - to chain name\n     * @param _nums - nums to be accumulated\n     */\n    function sendComputeTask(string calldata _toChain, uint32[] calldata _nums) external {\n        mapping(string => DestnContract) storage map = destnContractMap[_toChain];\n        DestnContract storage destnContract = map[\"receiveComputeTask\"];\n        require(destnContract.used, \"action not registered\");\n\n        // Construct payload\n        Payload memory data;\n        data.items = new PayloadItem[](1);\n        PayloadItem memory item = data.items[0];\n        item.name = \"nums\";\n        item.msgType = MsgType.EvmU32Array;\n        item.value = abi.encode(_nums);\n\n        SQoS[] memory sqos;\n        uint256 id = crossChainCall(\n            _toChain,\n            destnContract.contractAddress,\n            destnContract.funcName,\n            sqos,\n            data,\n            OCComputing.receiveComputeTaskCallback.selector\n        );\n        OCResult storage result = ocResult[_toChain].push();\n\n        uint32 sum = 0;\n        for (uint256 i = 0; i < _nums.length; i++) {\n            sum += _nums[i];\n        }\n        result.expected = sum;\n        result.session = id;\n    }\n\n    /**\n     * Receives outsourcing computing task from other chain\n     * @param _payload - payload which contains nums to be accumulated\n     */\n    function receiveComputeTask(Payload calldata _payload) external returns (uint256) {\n        if (msg.sender != address(crossChainContract)) {\n            return CALLER_NOT_CROSS_CHAIN_CONTRACT;\n        }\n\n        // decode\n        (uint32[] memory _nums) = abi.decode(_payload.items[0].value, (uint32[]));\n        \n        // compute\n        uint ret = 0;\n        for (uint i = 0; i < _nums.length; i++) {\n            ret += _nums[i];\n        }\n\n        // Construct payload\n        Payload memory data;\n        data.items = new PayloadItem[](1);\n        PayloadItem memory item = data.items[0];\n        item.name = \"result\";\n        item.msgType = MsgType.EvmU32;\n        item.value = abi.encode(ret);\n        SQoS[] memory sqos;\n        crossChainRespond(sqos, data);\n\n        return 0;\n    }\n\n    /**\n     * Clear historical messages\n     * @param _chainName - The chain which messages come from\n     */\n    function clear(string calldata _chainName) external onlyOwner {\n        delete ocResult[_chainName];\n    }\n\n    /**\n     * Returns all tasks\n     * @param _chainName - The chain which messages come from\n     */\n    function getResults(string calldata _chainName) external view returns (OCResult[] memory) {\n        return ocResult[_chainName];\n    }\n\n    /**\n     * See IOCComputing\n     */\n    function receiveComputeTaskCallback(Payload calldata _payload) external returns (uint256) {\n        if (msg.sender != address(crossChainContract)) {\n            return CALLER_NOT_CROSS_CHAIN_CONTRACT;\n        }\n\n        (uint32 _result) = abi.decode(_payload.items[0].value, (uint32));\n        SimplifiedMessage memory context = getContext();\n        uint256 index = 0;\n        bool found = false;\n        for (uint256 i = 0; i < ocResult[context.fromChain].length; i++) {\n            if (ocResult[context.fromChain][i].session == context.session.id) {\n                found = true;\n                index = i;\n                break;\n            }\n        }\n        require(found, \"Not found\");\n        OCResult storage result = ocResult[context.fromChain][index];\n        result.used = true;\n        result.result = _result;\n\n        return 0;\n    }\n\n    ///////////////////////////////////////////////\n    /////    Send messages to other chains   //////\n    ///////////////////////////////////////////////\n\n    /**\n     * Register destination contract info\n     * @param _funcName - function name to be called\n     * @param _toChain - destination chain name\n     * @param _contractAddress - destination contract address\n     * @param _contractFuncName - contract function name\n     */\n    function registerDestnContract(\n        string calldata _funcName,\n        string calldata _toChain,\n        bytes calldata _contractAddress,\n        bytes calldata _contractFuncName\n    ) external onlyOwner {\n        mapping(string => DestnContract) storage map = destnContractMap[_toChain];\n        DestnContract storage destnContract = map[_funcName];\n        destnContract.contractAddress = _contractAddress;\n        destnContract.funcName = _contractFuncName;\n        destnContract.used = true;\n    }\n\n    ///////////////////////////////////////////////\n    ///    Receive messages from other chains   ///\n    ///////////////////////////////////////////////\n\n    /**\n     * Authorize contracts of other chains to call the functions of this contract\n     * @param _chainName - from chain name\n     * @param _sender - sender of cross chain message\n     * @param _funcName - action name which allowed to be invoked\n     */\n    function registerPermittedContract(\n        string calldata _chainName,\n        string calldata _sender,\n        string calldata _funcName\n    ) external onlyOwner {\n        mapping(string => string) storage map = permittedContractMap[\n            _chainName\n        ];\n        map[_funcName] = _sender;\n    }\n\n    /**\n     * This verify method will be invoked by the CrossChain contract automatically, ensure that only registered contract(registerSourceContract) calls are allowed\n     * @param _chainName - chain name of cross chain message\n     * @param _funcName - contract action name of cross chain message\n     * @param _sender - cross chain message sender\n     */\n    //  Will be deprecated soon\n    function verify(\n        string calldata _chainName,\n        bytes4 _funcName,\n        bytes calldata _sender\n    ) public view override returns (bool) {\n        // mapping(string => string) storage map = permittedContractMap[\n        //     _chainName\n        // ];\n        // string storage sender = map[_funcName];\n        // require(\n        //     keccak256(bytes(sender)) == keccak256(bytes(_sender)),\n        //     \"Sender does not match\"\n        // );\n        return true;\n    }\n}\n",
  "sourcePath": "/home/dd512/solidity-contract-template/contracts/OCComputing.sol",
  "compiler": {
    "name": "solc",
    "version": "0.8.10+commit.fc410830.Emscripten.clang"
  },
  "schemaVersion": "3.4.13",
  "updatedAt": "2023-04-26T09:54:01.583Z",
  "networkType": "ethereum",
  "devdoc": {
    "kind": "dev",
    "methods": {
      "clear(string)": {
        "params": {
          "_chainName": "- The chain which messages come from"
        }
      },
      "getResults(string)": {
        "params": {
          "_chainName": "- The chain which messages come from"
        }
      },
      "owner()": {
        "details": "Returns the address of the current owner."
      },
      "receiveComputeTask(((string,uint8,bytes)[]))": {
        "params": {
          "_payload": "- payload which contains nums to be accumulated"
        }
      },
      "registerDestnContract(string,string,bytes,bytes)": {
        "params": {
          "_contractAddress": "- destination contract address",
          "_contractFuncName": "- contract function name",
          "_funcName": "- function name to be called",
          "_toChain": "- destination chain name"
        }
      },
      "registerPermittedContract(string,string,string)": {
        "params": {
          "_chainName": "- from chain name",
          "_funcName": "- action name which allowed to be invoked",
          "_sender": "- sender of cross chain message"
        }
      },
      "renounceOwnership()": {
        "details": "Leaves the contract without owner. It will not be possible to call `onlyOwner` functions anymore. Can only be called by the current owner. NOTE: Renouncing ownership will leave the contract without an owner, thereby removing any functionality that is only available to the owner."
      },
      "sendComputeTask(string,uint32[])": {
        "params": {
          "_nums": "- nums to be accumulated",
          "_toChain": "- to chain name"
        }
      },
      "setCrossChainContract(address)": {
        "params": {
          "_address": "- cross chain contract address"
        }
      },
      "transferOwnership(address)": {
        "details": "Transfers ownership of the contract to a new account (`newOwner`). Can only be called by the current owner."
      },
      "verify(string,bytes4,bytes)": {
        "params": {
          "_chainName": "- chain name of cross chain message",
          "_funcName": "- contract action name of cross chain message",
          "_sender": "- cross chain message sender"
        }
      }
    },
    "version": 1
  },
  "userdoc": {
    "kind": "user",
    "methods": {
      "clear(string)": {
        "notice": "Clear historical messages"
      },
      "getResults(string)": {
        "notice": "Returns all tasks"
      },
      "receiveComputeTask(((string,uint8,bytes)[]))": {
        "notice": "Receives outsourcing computing task from other chain"
      },
      "receiveComputeTaskCallback(((string,uint8,bytes)[]))": {
        "notice": "See IOCComputing"
      },
      "registerDestnContract(string,string,bytes,bytes)": {
        "notice": "Register destination contract info"
      },
      "registerPermittedContract(string,string,string)": {
        "notice": "Authorize contracts of other chains to call the functions of this contract"
      },
      "sendComputeTask(string,uint32[])": {
        "notice": "Send outsourcing computing task to other chain"
      },
      "setCrossChainContract(address)": {
        "notice": "Set cross chain contract"
      },
      "verify(string,bytes4,bytes)": {
        "notice": "This verify method will be invoked by the CrossChain contract automatically, ensure that only registered contract(registerSourceContract) calls are allowed"
      }
    },
    "version": 1
  }
}